:100000000C94EA070C9412080C9412080C94120831
:100010000C9412080C9412080C9412080C941208F8
:100020000C9412080C9412080C944A240C94BC24CE
:100030000C9412080C9412080C9412080C941208D8
:100040000C9412080C9412080C9412080C941208C8
:100050000C9412080C9412080C9412080C94BC18FE
:100060000C9412080C9412080C9412080C941208A8
:100070000C9412080C9412080C9412080C94120898
:100080000C94C11A0C9412080C9412080C941208C7
:100090000C9406190C9412080C9412080C94120873
:1000A0000C9412080C9412080C941208CA2FCD2F2D
:1000B000D62FD92FDC2FDF2FE22FE52FB510B81068
:1000C000C410C110BE10BB10C710CA10F0F89C8E2F
:1000D0008783878E9CF8F00000FEFF030303030371
:1000E000070EFCF80000FEFF0303030303070EFCEA
:1000F000F80000FFFF00000000000000FFFF00000C
:10010000FEFF8383838383C7EE7C380000F8FC0EF8
:1001100007030303070EFCF800003F7FE0C0808068
:10012000C0E07F3FFFFF01010101010101FFFF006E
:1001300000FFFF0C0C0C0C1C3E77E3C100007FFF9E
:10014000C0C0C0C0C0E0703F1F00001F3F70E0C0D3
:10015000C0C0E0703F1F00007FFFC1C1C1C1C1E34B
:10016000773E1C00001F3F70E0C0C0C0E0703F1F22
:10017000000000000001FFFF01000000D5F08D1419
:10018000A1C881CFD9F1AF200061726475544400D9
:1001900070381C387048381E38481C497F491C4E3E
:1001A0004F5420454E4F55474820434F494E53002A
:1001B000413A20544F2053454E4420574156450064
:1001C0004A5553542041204255494C44494E47001A
:1001D0004E4F20454E54525920424C4F434B494EAE
:1001E0004700424C4F434B45442041524541004E4D
:1001F0004F5420414C4C4F574544204845524500F0
:1002000041204F52204220544F2045584954004429
:10021000454C45544500464F5245535400412052E9
:100220004F434B00544845204851005155495420F4
:10023000454449544F523F0043484F534520545979
:100240005000454449544F52004D00440053454C22
:100250004C00494E464F53005550475241444500CB
:100260004D4158204C4556454C003C003E004C56F4
:100270004C000008081C1C08000014141C1C08007A
:1002800000082A2A3E3E08082A2A2A7F7F3E0010BC
:1002900010180C0C000008283C1C0C000014145210
:1002A0005E3E041414564A7F3F3E0000100C0E06BA
:1002B000000008042C1E06000024120927160C4812
:1002C00024134F2F1F1E0000380E06000000180CCC
:1002D0003E0E00000C023E06370E001C07770F771B
:1002E0001F06001C1C1C1408001C1C1C1C1C1408D1
:1002F0001C1C1C1C3E361C1C1C1C3E7F773E003008
:10030000383C140800183C1C1E0A0400383C1C1E13
:100310000F1B1E383C3C1F1F3B1F0010381C0A04DB
:10032000006070381C0A04002070381E0F0D076032
:10033000703E1F1F1D0F00383C1A0C000000207873
:100340007C3A0C0000607B7F3D0F0600727F7F3D92
:100350000F0F0808080808081C0808080808141CDB
:100360000808080814361C0808081436773E1010D0
:100370001008080E18101010080C0A0E1010080EA5
:100380001A1A0E101018171B3B3E00201008040309
:1003900002002010080605030020100E0B0D074078
:1003A000201C171B0D0F0000710F020200000070CF
:1003B0000F0503000000661F090F0000037F1709E7
:1003C0000F0E001414141408001414141414141C24
:1003D0001414143636361C1414363636773E00089C
:1003E000282414180008282414120A0C082824169B
:1003F000131B1E082C2637333B1E0008042214084A
:100400000010084422160C0010084623171E0C107A
:100410000C4723371F1E001806320C000000300C5A
:100420006319060000300F63190F06003E0F633991
:100430001F0E0808141408000008081C22140800E5
:1004400008081C2A2A1400081C2A496B36001018B8
:100450001414080000101C1A120C000010183C2A7A
:100460002A1E00101C3A2925171C00201814080009
:100470000040383424180000002C122A261C0000EA
:100480002E132925321C00003C120C0000003C1ADF
:10049000120C0000001C723E120E00001C73392763
:1004A000120E0008143E2200000008142A36000034
:1004B000081422497F0000081422495D63000018D7
:1004C000162C302000001816222C3000001816239D
:1004D0002C7000001816212B4C70003E2428302070
:1004E00000003E222C283000003F222C2830200023
:1004F0003F21262C2830000E3428181000000E3220
:1005000024141800020E3224141808030D31261288
:10051000140C00001C141C0000001C3E363E1C0085
:100520001C3E6B776B3E1C3E635D555D633E000871
:10053000083E0808000808087F0808081C08497FCA
:1005400049081C3C194B7F694C1E5F3C0A961E32C1
:10055000140F424F4F535453204F544845525300A9
:10056000484954532045564552594F4E4500313065
:10057000302520484954204348414E4345004D55BD
:100580004C5449504C452048495453004849545311
:1005900020414C4C20494E204C494E4500534C4F75
:1005A000575320454E454D595300414F45204F4E1E
:1005B00020494D50414354002D0000000301020129
:1005C00002032D0035302500060B080C32320000E6
:1005D000545950450052454C4F41440052414E47FA
:1005E000450044414D41474500424F4F5354005050
:1005F000524943450053434F52450047414D452022
:100600004F5645520057454C4C20444F4E45002212
:100610001408142270185F1B730C32263E1C040E43
:10062000362A04484152544D414E4E313330310048
:1006300050524F4752414D4D454420425900000011
:100640000000806038261616161616263840C04060
:10065000404040FF013D3D2D353D01FF40404040C1
:10066000C040382616169616162638608000000000
:100670000000807C830000382810834583102838D0
:10068000008083FC8060216204F800F8046261202D
:1006900080FC8380382838008302830010281000F3
:1006A000837C8000E01F0001020408081011111172
:1006B00010BC42993C66663C9942BCC87B0A7BC828
:1006C000BC42993C66663C9942BC1012111210085B
:1006D00008040201001FE03F4040808080804040CD
:1006E00020180402010000010101010000030202C0
:1006F00002020203000001010101000001020418CE
:100700002040408080808040403F804040E06060EA
:10071000D06040804040E060E050604080404060F9
:10072000E060D06040806030F03078A830108060A9
:10073000B0703038E83010806030F030F828301079
:10074000002090F878BC740C08004020F8783CF445
:100750000C0800209078B8FC740C0810207070F021
:1007600070F86810102070F07070F8681020207019
:10077000F070F07868104020F070F8783C2C14404D
:1007800020F07078F83C2C14402070F07878BC2C65
:100790001400EE1F3BCD00C02E1FFB0D0000EE1F0E
:1007A000FB0D0000F60F3DC600C0360FFD06000031
:1007B000F60FFD0600E3970F3DC68403F78F3DC695
:1007C0008403F78FFD8604E6970F3DCE8C06F78FE6
:1007D0003DCE8C06F78FFD8E0CE39F0F3DCE9E071E
:1007E000F78F3DCE9E07F78FFD8E1E0000F868A0A4
:1007F00020008078E820200000F8E820200020F881
:1008000068A00000A078E800000000F8E8400000C0
:1008100000F868A078008078E820780000F8E820E8
:100820007810F8689010109078E810101010F8E820
:10083000101010707820F868807078A078E8007048
:100840007820F8E8000E0A0A1B110A041F131F1370
:1008500013170E04040404150A1B0A04110E0011D8
:100860000E52455349535453200049532046415397
:1008700054200049532044454641554C54001941E9
:10088000400001414C4C4101004041191C22455D92
:1008900041221C060B173E1F0F06080C3A013A0CAA
:1008A0000800003B3B2000002C2E2A6B2A3A1A7FBE
:1008B0003E1C7F3E1C0833000001010000010100C6
:1008C0006699010000010100000101CC030004044D
:1008D00000000404000006010404000004040000F9
:1008E0000404FA0032005E013200C2016400F40127
:1008F000320000804C043200900132009600320039
:10090000008026026400BC026400B6036400520347
:100910006400008060D0E8687030F8E8906070C8CB
:10092000E8F06030E8E8F06000204000004000009F
:10093000600020000000005064FF5860000040206C
:1009400040081C6C540840E0607C0657067C60E060
:10095000400003000100030001000300FC065607ED
:1009600054047C40F8500003000300010001000320
:10097000000096003200008000FFFEFDFDFDFEFF3E
:1009800000010203030302010303020100FFFEFD55
:10099000FDFDFEFF000102031C08000008141A08F8
:1009A00000081420000004120203020402040100E3
:1009B00004050303020401040C10080C1E0428089B
:1009C0000A0C12161E26281643414D5041494E006E
:1009D000534F554E44004352454449545300454EED
:1009E000454D49455300454449544F52004F4646F2
:1009F000004F4E004D4943524F20544F57455253DC
:100A000000535550504F52540053484F434B0046EB
:100A1000524F5354005241494C47554E00464C41A9
:100A20004D45004C415345520043414E4E4F4E0000
:100A30004D494E4947554E00206060A0A0300C0340
:100A40000C30A0A06060200000603C130804060485
:100A500008133C6000004849474853434F52450043
:100A6000205354415253004D4150204E454544536C
:100A700000534C4F54004C4556454C004544495496
:100A800000323C32325A505050505050505050501A
:100A90005050505050505A646E646464646464648E
:100AA0006464646464646464640102040810204043
:100AB00080FEFEFEFFFF00000101020202FF0001B6
:100AC000FE02FE02FE02FF0001E03E3FA3A33F3E06
:100AD000E007040405050404071E1F09091F1E1F63
:100AE0001F15151F0E0E1F11111B0A1F1F11110FAD
:100AF0000E1F1F151511111F1F050501010E1F11D6
:100B0000150D1C1F1F04041F1F111F1F11000008BB
:100B100011111F0F011F1F040E1F191F1F1010108E
:100B2000101F170E071F1F1F1F060C1F1F0E1F1160
:100B3000111F0E1F1F090907060E1F11091F161F7F
:100B40001F09091F16161715151D0D01011F1F017D
:100B5000010F1F10101F0F070F18180F071F190C78
:100B6000181F1F111B0E0E1B110307041C1F031956
:100B70001D1D171713131B0C061B19020301151754
:100B800006040E1F1B110000111B1F0E040004049D
:100B9000040400121F1F100000121B191D1713114F
:100BA00011151F1F0A0F0F081E1E081717151D1DF0
:100BB000090E1F15151D0C0101191D07030A1F152C
:100BC000151F0A061715151F0E080B000202020159
:100BD00000090400000102020000052400100105C4
:100BE00024010101042402060524060001070581F1
:100BF0000310004009040100020A0000000705027A
:100C000002400000070583024000000403090412AB
:100C1000010002EF0201404123368000010102037E
:100C20000141726475696E6F204C4C4300417264DF
:100C300075696E6F204C656F6E6172646F0005059B
:100C4000020305030404090501050D0C0207FC005D
:100C500000000FF0000000030000AC00000003AC37
:100C600000000003EC00040003E80000000028007E
:100C700000C000000000F00000000FC000000000F5
:100C80000002C00037000280A03F280000200000C2
:100C900000000000002028000000A000E800000084
:100CA00000E800FF00000000000000030300C3A4F0
:100CB00000000C02A0300000000000F00000000066
:100CC00000003000000000000030000C00000003B5
:100CD000000030000F00000000000000000000389D
:100CE000000000003800000000F84000000038005C
:100CF00003000038000FC00000003F0000000000AB
:100D000000000000000000000000000000000000E3
:100D100000ABD000002802C00000E800AAAAAABCCC
:100D2000000000003C000000000000000000000087
:100D300000000000000F0F0284000F0F028000C0AF
:100D4000A0F00000F0A0F000000F0F0000000F0F57
:100D500000000000F000000000F00000003FFFF085
:100D600000002800A0000022022000000A128000DB
:100D70000000000000000AAA8000000800800000B7
:100D800002AA00000000000000030030080000007C
:100D9000000003C830200000000000040000000034
:100DA000000000C8000008000000800020030000D0
:100DB000030C0003030000000000000000FC000022
:100DC0000003030000000C00C000000C10C0000075
:100DD0000C00C00000030300000000FC0000000045
:100DE0000000002C00000008C80000002FC3C00055
:100DF0003E83C300000AB7C0003C0F00000000C0E3
:100E0000030003C000A8008C0800AFF2BF3E00FE44
:100E1000000000000000A00A06A8020820800808C0
:100E200008808020000000002008088080800820C2
:100E3000820080028028008000000000000C20C298
:100E400000000020C200000000C2000000000200FC
:100E500000000000000400000200000000C20000CA
:100E60000020C200000C20C20000000000000000B2
:100E70004000000000000000000000000000000032
:100E80000000000000000000000000000000000062
:100E900000000000000000000280000000028A0044
:100EA0000000000A000000000000002AAAAAAA848C
:100EB00000000030000CC0000300C000000C30FC3B
:100EC0000000F0000002000200000200023A0002EE
:100ED0000002CA02020202DC0202020283AA020229
:100EE00002B0F000020000F000020000FC0002006E
:100EF00000C00030000F00CC0000030C0000000018
:100F00000033000000030300100000030000000095
:100F1000300000000C0CC0000000030C000F0000AB
:100F2000000000000B00040000FFC000000203C02E
:100F3000000003CB0000000333C0000000CB000022
:100F40000000BC00000000000000000000000000E5
:100F50002AAAAAAAA8200000000820000100082050
:100F600000000008A00000000800000000082AAAF5
:100F7000AAAAA8000000000000F000000003FF0083
:100F800003F4030F000FF03F03003C00F003C0F038
:100F900000C0030030000000CCC00000003F000093
:100FA0000000000000000000000002A8812A0002EA
:100FB00000A2208002808A2080020082208002A875
:100FC000822A000000000000000000000000000075
:100FD0000000B43511241FBECFEFDAE0DEBFCDBF75
:100FE00011E0A0E0B1E0EEEBFEE602C005900D924C
:100FF000A236B107D9F729E0A2E6B1E001C01D92FF
:10100000AF3BB207E1F717E0CAEED7E004C0219783
:10101000FE010E944B37C93ED107C9F70E94C9297A
:101020000C945D370C9400002F923F924F925F9288
:101030006F927F928F929F92AF92BF92CF92DF92E8
:10104000EF92FF920F931F93CF93DF93CDB7DEB74D
:101050002C970FB6F894DEBF0FBECDBF809106016E
:1010600081110E94EF213BEE3A83512C2EEFA22EEC
:10107000BB24BA94812C912C3A813B5E3C83FA804C
:10108000F3944A80140192E0C92ED12C10E0352D42
:1010900031703E833C813F193987A5014350510986
:1010A00058874F83C50101969B878A87EC80E10EA4
:1010B0008E2D0E944627682F813061F48091510463
:1010C000E8123DC0E12C01E025E04FE056E06A85E2
:1010D0007B8532C08230E1F4112309F4F0C681141B
:1010E000910409F4ECC68985840D0E94462782305C
:1010F00009F0E5C6812F8F0D0E944627823009F046
:10110000DEC6842D0E944627823009F0D8C6BBC6B1
:101110008330A9F4812F0E940937D101A90FB11D95
:10112000CD0166E070E00E94373704E0080FEE80E2
:1011300025E044E159E0B501C6010E942C131F5F70
:10114000B6E0CB0ED11CEFEF2E1A3E0A43941431B9
:1011500009F0ACCFFFEF8F1A9F0A26E0A20EB11C58
:101160005394352D3170532E3A813C5E3A8349E0D9
:101170008416910409F080CFB3EBEB2EB3E0FB2E85
:1011800011EBC12E13E0D12E02EB402E03E0502EC6
:1011900084EB93E09B838A8384E1782ED7018C9142
:1011A00083FFE3C1F2011081012F02950F7003301C
:1011B00009F04FC08091E40181114EC08091B301CC
:1011C000882309F449C01F7080919A0982FD24C0C8
:1011D0008091990982FF20C076C62F5F3F4F3596D8
:1011E0002C333105C9F0908193FDF7CFF5E0F29FE4
:1011F000D001F39FB00D1124AF5FBD4F0C9311963A
:10120000BC921197886312968C93129713961C9335
:1012100013978AEF14968C930E946F14811177C1F3
:101220000E94341B84FF04C081E08093B0091F5FDB
:101230000E94341B87FF04C081E08093B0091150E5
:101240001F70D2018C91807F182B1C930E945A141E
:101250005EC1073009F45BC160E0C6010E94D8148A
:10126000282FF7018081A82EA294AFE0AA229091A6
:10127000E501992369F0AA2019F0AA94A11008C0E9
:101280009BEF900F923018F48460D7018C93A12CBF
:101290002F3F09F43CC1F6018081672D0E94093778
:1012A000182FB92EBB0C9B0D990FF7E0BF2EB90E6E
:1012B000880F180F110F1A5FF8E02F029001112408
:1012C000A9014459564F5D834C83DA019C90939455
:1012D00093949E8211962C912B5F2F83F201408173
:1012E000342F3F70063008F0A4C0612F621BE92D37
:1012F000EB1919F4662309F465C00E2E000CFF0BE0
:10130000062E000C770B77FF05C07195619571096A
:1013100021E001C020E0F7FF04C02E5FF195E195C8
:10132000F1095DE2E617F70748F45E9FC0015F9F91
:10133000900D11240E942337205F08C0569FC001E2
:10134000579F900D1124BF010E942337673160F031
:101350006D3208F0E0C56A3208F0DFC5663208F089
:10136000DEC5613270F00BC0623008F4D4C566305F
:1013700008F4D3C56A3008F4D2C56F3010F483E0A6
:1013800001C084E0680F711D24FF05C08AE590E06C
:10139000861B970BBC01822F817021FF0BC0882315
:1013A00019F06C547F4F10C0A4EBB0E0A61BB70B34
:1013B000BD010AC0882341F0E8E6F1E0E61BF70B27
:1013C000BF0102C060E070E0F4E6F69FC001F79F45
:1013D000900D11248B599B4F6AEC78E00E942337C3
:1013E0006F70361739F1631740F480E1831B860F65
:1013F000932F961B98178CF012C0262F231B862F35
:1014000090E0831B910941971CF080EF820F03C08D
:1014100080E1830F861B821714F4315001C03F5FB7
:10142000832F8F70407F482BD2014C9336136FC0AF
:1014300001C0632F862F90E0FC01E857F64F3490EF
:101440003B0CFC01E858F64F6490610E6983F7018C
:101450008081F82FF3702F2E053019F482FD61C5BD
:1014600005C0063009F0C5C582FD9DC56A2DC701BE
:101470000E94FB11A1104BC08091E501882369F007
:10148000043039F0E02FF0E0E853FA4F649162192C
:1014900001C061E0C7010E94FB118091E401882333
:1014A00021F082E799E00E941A1BEA81FB811081FA
:1014B0009980E3E0F2E040E050E0908193FD21C0AC
:1014C000F5E0F49F9001F59F300D1124A9014F5FC5
:1014D0005D4F5A019B7F9860DA0112969C93129798
:1014E0003C9211966C92602FC9018D5F9D4F0E94B6
:1014F000FB11F50182818C7F282A2282938214833A
:1015000006C04F5F5F4F35964C335105B1F6D6019B
:101510008C91672D0E940937B92EBB0CB90EBB0CFC
:10152000B394B394182F110F180F110F1F5FF70109
:1015300000810370D201AC90A294EFE0AE22402F64
:10154000612F8B2D0E940C13B8E0AB1206C0609186
:10155000E301C6010E94A61508C0F20120812F7088
:101560004A2D612F8B2D0E94FE13F4E0EF0EF11C2B
:1015700024E0C20ED11C34E0430E511C4A815B8131
:101580004C5F5F4F5B834A8353E5E51654E0F506F5
:1015900009F004CE8091E401873089F441E0A42E63
:1015A00042E0B42E52E0E52E52E0F52E64E0862EA5
:1015B00062E0962E73E0C72E72E0D72E80C21CE642
:1015C000A12E19E0B12E0DE6402E09E0502E8FE637
:1015D000882E89E0982E92E7C92E99E0D92E25E031
:1015E000622E36E0232E312C80910301823009F4E3
:1015F000DFC00091FA011091FB012091FC013091B4
:10160000FD014091E6015091E7016091E801709180
:10161000E901401751076207730708F4C9C0811137
:101620003FC085E080930002A091F9018091A9015B
:10163000E1E028EE33E040E050E090E06E2F70E013
:101640008617970774F0B4E4EB9FB00111247B0177
:10165000770F000B110B2E0D3F1D401F511FEF5F29
:10166000EDCFB0E00E94C53624E630E040E050E027
:101670000E94D8363093FF012093FE018091A8018B
:10168000813059F4C9019695879596958795281BC1
:10169000390B3093FF012093FE0181E08093030119
:1016A00080E090E020E0FC01E459F64F368136FD01
:1016B0002F5F089688329105B1F7211131C08091D2
:1016C000000281112DC08091E401882321F082E085
:1016D00099E00E941A1B82E0809303018091A90186
:1016E0008F5F8093A9018E3139F40E943E140E94CD
:1016F000961687E08093E4018091A90166E00E943C
:1017000009379093A8018091E4018350853018F443
:1017100084E00E948A118091A801853009F473C485
:1017200010910002112309F443C0115010930002DC
:101730008091A801853009F0182F0E948036A2E719
:10174000B9E0E0E0F0E02C9126FD1AC0A3E0EE0F36
:10175000FF1FAA95E1F7E459F64F2064268364E061
:1017600070E00E9437378850808386E1818312833E
:1017700013828091FE019091FF019583848305C0BF
:1017800031961896E530F105F1F68091E6019091D9
:10179000E701A091E801B091E9014E96A11DB11DAC
:1017A0008093FA019093FB01A093FC01B093FD019B
:1017B000F601008106FF73C18091E501882329F0BD
:1017C00034978081813009F00BC1D4011C91612FC5
:1017D00062956F7029F06150C4010E94FB1100C135
:1017E000133008F07DC0F2019081D5018C9122E088
:1017F000280F223014F400E058C085E0890F66E01D
:101800000E941537082F822F220F990B0197B101E3
:101810000E943737862FE62E602F0E945B1D782EA0
:101820000E94803662E070E00E943737F82E9927D8
:101830009C012F5F3F4F3B832A8331E03E0D3C8369
:101840004FEF4E0D4E835FEF500F5F8391E0900F8F
:1018500099878F2D90E02A813B8128173907F4F072
:10186000F0FE0DC06F818E2D0E945B1D8715C0F0AC
:1018700069858E2D0E945B1D871570F413C0602F43
:101880008C810E945B1D871508F4B5CF602F8E8177
:101890000E945B1D871540F0F394DBCF04E005C088
:1018A00001E003C003E001C002E0D4018C918F701D
:1018B00063E00E940937990F402F092E01C0440FA1
:1018C0000A94EAF723E030E001C0220F9A95EAF784
:1018D000822F8095F60190818923842B808318C004
:1018E000812F63E00E940937492F440F23E030E045
:1018F000042E01C0220F0A94EAF7802F8223082EBB
:10190000000C990B02C0959587954A95E2F7082F30
:10191000D2018C918B5F66E00E941537482FF5014C
:1019200080818E5F282F880F330BC9010197B10189
:101930000E943737862F642F0E945B1DD5011796B2
:101940008C930430E9F48091E4018823A9F080911C
:10195000AC018B3040F08A508093AC0184EF98E06A
:101960000E941A1B09C01092AC010E943E140E94F2
:10197000961687E08093E401F60180818F7B808357
:10198000D4018C91153019F4807F8C9306C01F5FB1
:101990001F70807F182BF4011083011108C0D5013E
:1019A0008C918F5F8C93F60180818F7718C0013006
:1019B00039F4D2018C9118169CF481508C9310C08C
:1019C000033021F4F20180818F5F09C0023041F4BD
:1019D000D5018C9181508C93F60180818068808341
:1019E000D6018C91E82EF12C86FF59C0C701880FD3
:1019F000892F881F990BB82FB170EB2EF4018081CD
:101A00008F7063E00E9409371091F801F601349756
:101A10003081D2016C91F5018081112331F01130B8
:101A200039F04AE057E029E006C04BEE57E002C02B
:101A300041E957E026E0032F000F300F032F090F75
:101A4000062E000C770B082E000C990B0E942C130D
:101A5000D2012C91113009F422508091FE01909115
:101A6000FF0167E070E00E94233761157105B9F04E
:101A7000F501848195810E94233741E0460F622F52
:101A8000220F770B88E090E0841B9109308100E001
:101A900021E0830F911D37FD9A950E941A206A94C8
:101AA000F8E0AF0EB11C28E0420E511C38E0830E66
:101AB000911C48E0C40ED11C611096CD6FCDD601AB
:101AC0003C9133FFE3C0F4012081822F8F7090E0BE
:101AD000FC01E857F64FE491D5014C910E2E000C15
:101AE000FF0BE40FF11D47FDFA95EC93FC01E8585C
:101AF000F64FE491D7018C910E2E000CFF0BE80FEE
:101B0000F11D87FDFA95EC9332953F70343071F4F6
:101B1000122F12951F706FEF610FC4010E94FB110D
:101B2000111104C0F6018081877F8083D5018C91DB
:101B30003FEF380F3A3708F071C2F70190819833C0
:101B40000CF06CC2D6019C9192959F70923041F13D
:101B500098F49923B9F0913009F098C0D7016C91AD
:101B6000062E000C770B00E022E042E0082E000C6D
:101B7000990B0E941A208AC0933009F466C09430F1
:101B8000D9F084C0F7014081042E000C550B682F5A
:101B9000880F770B20E084E999E00E94F21C76C060
:101BA000F7016081062E000C770B41E0082E000C37
:101BB000990B0E94381F6AC0D4018C9182958F7056
:101BC00005E0081B02300CF402E0F7018081002ED2
:101BD000000C110B2801430E511CF1E84F16510463
:101BE0000CF054C022242A94280E020D111D013439
:101BF00011050CF04BC0632E712C641475040CF0AD
:101C000045C0322CA32FA170AA83432D50E040176A
:101C10005107CCF437FD15C02FE3231590F0832D29
:101C200081709A81992319F0811103C00AC0811132
:101C300008C020E0B30184E999E03C870E94F21CCF
:101C40003C853394E2CF3F5FD6CFF7016081062E0B
:101C5000000C770BD401EC912E2F30E0F901E858FD
:101C6000F64F4491082E000C990BF901E857F64FF6
:101C7000E4919B01240F311D47FD3A95AC014E0FB5
:101C8000511DE7FD5A9500E00E94B11EB5E0CB0E54
:101C9000D11CE5E0AE0EB11CF5E0EF0EF11C25E025
:101CA000820E911C3DE2A31633E0B30609F007CF84
:101CB0005CE6E52E51E0F52E63E0862E912CA12CFA
:101CC000B12CD7010C9103FF33C002950F70F701BF
:101CD00031976081062E000C770B6E5F7F4F319736
:101CE0008081082E000C990B24E048E959E0039606
:101CF0000E941C136091E6017091E7018091E80158
:101D00009091E901A50194010E94D836672B682BB8
:101D1000692B71F4F7018081682F62956F706330D1
:101D200028F46F5FC7010E94FB1102C0877F808388
:101D3000B3E0EB0EF11CE8EAEE16E1E0FE0609F670
:101D40002CE6C22E29E0D22EE12CF12C35E0332EE8
:101D500044E6842E912CA12CB12CF701E459F64FC6
:101D6000868186FF6CC08181D6012C91E3E0F2E090
:101D700000E010E030E02901B5E04B0E511C90E08E
:101D80003C0145E0640E711C408143FF1BC0DF0134
:101D900012976C91062E000C770B4616570694F09E
:101DA00011964C91042E000C550B6416750654F0D8
:101DB0006B5F7F4F621773072CF04B5F5F4F4817C5
:101DC00059073CF40F5F1F4F35960C331105E1F6B0
:101DD00036C0309EF001319EF00D1124EF5FFD4FB3
:101DE0008281282E22949FE029222481E22DF0E096
:101DF000E65BFA4FE491837090E00196E89FD00192
:101E0000E99FB00D11242D010B2E000C66087708F8
:101E1000222359F030E00E945137A50194010E941D
:101E2000D836420E531E641E751E422DB201C601E5
:101E30000E941E128DEF820D823008F0F4C058E02F
:101E4000E50EF11C88E0C80ED11C98E2E916F104F9
:101E500009F083CF2C960FB6F894DEBF0FBECDBF2E
:101E6000DF91CF911F910F91FF90EF90DF90CF9076
:101E7000BF90AF909F908F907F906F905F904F90AA
:101E80003F902F9008953601A6E06A1A710801E08C
:101E90002BE04BE06F817885C3010E941A20E0FCA3
:101EA00003C046E459E002C04CE559E0E12C0BE0E8
:101EB0002BE06F817885C3010E94851B40C9EE80AD
:101EC000022D037035C9F6018081212F30E0F90120
:101ED000E857F64F0491672D0E940937E92FEE0F5E
:101EE0009E0F990F995F090FF901E858F64FE49199
:101EF000282F220F820F880F8A5FB82EBE0E82E72E
:101F000099E00E941A1BD7018C918370E3E0F2E004
:101F100020E030E068C980E035CA81E033CA82E061
:101F200031CAC6010E940712EA81FB812081EFE4D9
:101F3000F5E03491822D90E00196389FD001399FD1
:101F4000B00D11244D010B2E000CAA08BB08222352
:101F500069F030E00E94513724E630E040E050E084
:101F60000E94D836820E931EA41EB51E45E0B40111
:101F70008C819D810E941E128091E501882309F4C5
:101F8000C6CA4F81242F440F330B8E81482F880FF0
:101F9000550B662D660C770B00E0832D330C990BE7
:101FA0000E94B11EB4CAC6010E94071261E0C601B8
:101FB0000E94D8148091E501882309F4A8CAD701AA
:101FC0006C916370F201808182958F700E94C514BC
:101FD000D7019C91492F42954F709370990F985F4C
:101FE000491B480F612F70E08B2D90E00E94381F35
:101FF0008ECA043009F03ACA65E0620DCE0101963E
:102000000E94FB1133CA8091F801823020F48F5F67
:102010008093F80185CB1092F80182CBD6019C9178
:10202000977F9C938FCDB1E02B120DC0309EF001B5
:10203000319EF00D1124EF5FFD4F8281982F946047
:10204000928382FFFCCE309EF001319EF00D112470
:10205000EF5FFD4F8281877F8283F1CE80910909F6
:10206000882341F08091080990E0880F991F8F50D4
:102070009F4F08958091070990E0880F991F875E10
:102080009E4F0895EF920F931F93CF93DF9380910C
:10209000AA019091AB016AEF70E00E942337C62F2E
:1020A000D0E018E0DC1770F4E12C00E12FE048E309
:1020B0005AE063E070E0812F90E00E94851B1C5E77
:1020C000DF5FF0CFDF91CF911F910F91EF900895D7
:1020D000809100018A3718F081508093000180912F
:1020E0000001881F8827881F089580910001843887
:1020F00018F48F5F8093000108950F9300E02EE1A4
:1021000030E048E450E060E070E088E490E00E9455
:10211000B11E20E430E048E450E062E270E088E480
:1021200090E00E94B11E2EE130E04FE450E06EE1FD
:1021300070E088E490E00E94B11E22E230E04FE4BB
:1021400050E062E270E088E490E00E94B11E0F91DE
:102150000895E091E3018E2F90E088309105F0F42E
:10216000FC01E25AFF4F0C944B3780E39AE014C015
:1021700089E29AE011C083E29AE00EC08DE19AE014
:102180000BC085E19AE008C08FE09AE005C089E0C5
:102190009AE002C081E09AE00C9400210895FC01CD
:1021A00040815181CA01861B970BBC019C0197FF9E
:1021B00004C022273327281B390B283031052CF087
:1021C000359527953595279501C021E077FF03C008
:1021D000420F511D04C0672B21F0421B510951834E
:1021E00040830895FF920F931F93CF93DF9316E1DF
:1021F00010930A0983E080930B0984EF99E00E9411
:102200000021C091B50140E1C49FE0011124BE014D
:1022100081E393E00E94CF108091310390913203CB
:102220008C179D07D9F48091B501882349F010934C
:102230000A098AE380930B098AE692E00E94002152
:102240008091B501843050F484E580930A098AE3D3
:1022500080930B098CE692E00E94002100E210E0DE
:10226000C0E0DCEF8AE3F82E209131033091320395
:102270004D2F4203C001439F900D1124800F911FE9
:102280009C0120583F4F2F3F310509F0F0F4809317
:102290000A09F0920B09C23071F018F4C13041F014
:1022A00004C0C33059F0C43061F088EC99E00BC031
:1022B00086EE99E008C08EED99E005C086ED99E0C4
:1022C00002C080ED99E00E940021CF5F005C1F4FAB
:1022D000C53051F68091B5018430B1F48FE580931B
:1022E0000A098AE380930B098091B201882319F0CF
:1022F00081EF99E002C08DEE99E0DF91CF911F91BF
:102300000F91FF900C940021DF91CF911F910F91BD
:10231000FF90089592E39093A70190910501911188
:1023200003C096E99093A7018093A6010895CF93E7
:10233000DF93D82F81E08093060184E68093AC017F
:102340001092A9011092F8011092A8011092FA01BE
:102350001092FB011092FC011092FD0182E080932B
:1023600003018091E4018350853018F484E00E94D9
:102370008A112D2F30E0F901EB56F54FE491E093EF
:10238000F901F901EF57F54FE491F0E0F093B00156
:10239000E093AF01E3EBF3E08081877F80833496A5
:1023A00084E0E335F807C1F7E2E7F9E090819F7B2D
:1023B0009083389689E0EA39F807C1F7ECE6F1E056
:1023C0009081977F9083339681E0E83AF807C1F7D0
:1023D000C0E06D2F8C2F0E940927813011F4C0932B
:1023E0005104682F8C2F0E94EC26CF5FC43B89F7E5
:1023F000DF91CF910895FC01962F6081262F2F70D9
:1024000080E1989FB0011124622B60830895FC0144
:102410008091E501811111C09281692F62956F70E1
:10242000292F2370220F285F621728F46E5FCF01D7
:1024300002960C94FB119B7F92830895AF92BF92FA
:10244000CF92DF92EF92FF920F931F93CF93DF9380
:102450001F92CDB7DEB75C018B01423069F4DC011D
:1024600013966C9162956F706E3030F46E5F0396C8
:1024700049830E94FB1149810115110509F496C099
:10248000E42FF0E0E654FA4FE491D50112968C91D6
:10249000823019F4E1110CC009C0833019F4E13025
:1024A00039F404C0843021F4E23011F41695079514
:1024B0004450433008F07CC08091E6019091E701E0
:1024C000A091E801B091E90183709927AA27BB2761
:1024D000892B8A2B8B2BB9F46BC02F5F3F4F339620
:1024E0002431310581F0808183FDF7CFF901EE0FB2
:1024F000FF1F2E0F3F1FF901E659FE4F88609083A2
:1025000041838F708283F5018481958108171907B3
:1025100028F4801B910B9583848348C06091A901A6
:1025200081E028EE33E040E050E070E0E82FF0E09A
:102530006E177F0774F0F4E48F9F600111240D2C57
:10254000000CEE08FF082C0D3D1D4E1D5F1D8F5F1A
:10255000EDCFA4E6B0E00E94C53624E630E040E0CE
:1025600050E00E94D836C90164EF71E00E94233721
:102570008091AF019091B001680F791F683E83E0B0
:10258000780728F47093B0016093AF0106C087EE1E
:1025900093E09093B0018093AF01D50116968C9192
:1025A00016978F7B16968C9381E00AC080E008C056
:1025B000F50141819081ECE6F1E020E030E093CF3D
:1025C0000F90DF91CF911F910F91FF90EF90DF90CF
:1025D000CF90BF90AF9008950F931F93CF938C012E
:1025E0000E942528C82FC80101960E9425282C2F5B
:1025F00030E0322F2227A901480F511DCA01CF9187
:102600001F910F9108950E942E100E94EC1290933A
:10261000AB018093AA0108950F9303E0041B91E09E
:10262000423008F090E0090F70E02BE04BE090E0C2
:102630000E943C200F910895CF92EF920F93FB01DF
:102640003896E934F10520F4C12CE12C0E9463276F
:102650000F91EF90CF900895CF92EF920F93FB01DF
:102660003896E934F10518F4C12C0E9463270F91C4
:10267000EF90CF900895CF92DF92EF920F93CF9388
:10268000C82F6B01E12C02E027E04EE758E069E338
:1026900070E090E00E942C13EAE0F9E0C85FC0838C
:1026A0008AE38183C601CF910F91EF90DF90CF90A5
:1026B0000C94B1202F923F924F925F926F927F9233
:1026C0008F929F92AF92BF92CF92DF92EF92FF9242
:1026D0000F931F93CF93DF9300D000D000D0CDB7DE
:1026E000DEB73A01222309F470C0002309F46DC05B
:1026F000AB823C2D502F022F4B015C012E9D7001AF
:102700001124822F90E0079623E0959587952A95CE
:10271000E1F7089F202D11242A830150C12C452E5A
:10272000512C515059831E821D8217012C0C311CD3
:102730008D814D815E814415550509F442C09D810E
:10274000969596959695F1014A81499FE00DF11D68
:102750001124E60DF71DE491F0E09D81977002C011
:10276000F595E7959A95E2F7E0FF25C0313061F0E5
:1027700040F0323061F0333069F41981181BDC2CE1
:1027800009C01C2DDD8006C01D81D02E03C0102F76
:10279000D980D81A2B81A4014D0D511DD7FC5A9513
:1027A000B501610F711D17FD7A9584E999E03C83AD
:1027B0000E94F21C3C818D819E8101969E838D83B7
:1027C000B7CFC394015008F0AECF26960FB6F89459
:1027D000DEBF0FBECDBFDF91CF911F910F91FF9054
:1027E000EF90DF90CF90BF90AF909F908F907F90B1
:1027F0006F905F904F903F902F900895AF92CF923F
:10280000DF92EF920F938E5F6E5F0370062E000CC7
:10281000770B082E000C990B463008F5322F3370D9
:10282000E32EEE0CEE0C0E0D30E1439F000D112453
:1028300038EF320F3430B8F026952695C22ED12CC1
:1028400022E0C20ED11C33E0C322DD24A12CE02EF5
:1028500007E027E042E752E00E945A1309C0440F04
:10286000440F040F085B27E042E752E00E941C136C
:102870000F91EF90DF90CF90AF9008958091A901D4
:102880002091AC0193E0299F9001112494E1899F4C
:10289000200D311D11248091AF019091B0016AE0AB
:1028A00070E00E942337260F371F3093AB0120932F
:1028B000AA0108958091B009882381F00E94B01880
:1028C000DC01CB018A569F4FAF4FBF4F80932D0342
:1028D00090932E03A0932F03B09330030895CF92CB
:1028E000DF92EF92FF921092B0090E94B01821E09F
:1028F000C0902D03D0902E03E0902F03F090300372
:102900006C157D058E059F0508F020E0822FFF9055
:10291000EF90DF90CF900895282F30E0F901E05438
:10292000F64F8491F901E854F64F2491869F800D6B
:102930001124269F800D112408950F931F93CF9388
:10294000C0E000E010E08091AE018C1748F06C2FE1
:102950008091AD010E948C14080F111DCF5FF3CF41
:10296000C80196958795CF911F910F910895609119
:10297000AE01633038F46F5F8091AD010E948C141A
:1029800090E008958FEF90E00895282F30E0F9014E
:10299000E055F64F8491F901E855F64F249190E007
:1029A000880F991F0A969927269F800D1124089554
:1029B0002F923F924F925F926F927F928F929F924F
:1029C000AF92BF92CF92DF92EF92FF920F931F933D
:1029D000CF93DF938C01862E8CE6E82E89E0F82ECB
:1029E000C3E7D9E0D12C99249A94CC24CA9497E0D7
:1029F000292E312CFE013197808186FF8BC0F80192
:102A000062816370818182958F700E94C514A82FA6
:102A1000F801808164E10E940937482F440F480F74
:102A2000440F4A5F50E0692F660F690F660F695FB8
:102A300070E0F7018081E2E0E80FF0E09B012E1BDF
:102A40003F0B121613061CF09F01261B370BFE01CD
:102A5000369760816B5F70E0FA01E61BF70B1E167C
:102A60001F061CF0FB01E41BF50BAA2EB12CA216CD
:102A7000B30608F44FC0AE16BF0608F44BC04AE0D8
:102A8000A49FC0011124B1010E9437377727261770
:102A9000370718F4E617F70770F0229F802D1124EE
:102AA000EE9F800D1124823010F00E94092890E0E2
:102AB0008A159B057CF5882041F1F8012381E0E52A
:102AC000F5E03491F8018281837090E00196389F9F
:102AD000D001399FB00D11242D010B2E000C66087A
:102AE0007708222369F030E00E94513724E630E075
:102AF00040E050E00E94D836420E531E641E751E00
:102B000046E0B201C7010E941E128881891510F4A7
:102B1000CD2C982ED394F8E0EF0EF11C289645E0CA
:102B2000D41268CF8C2DDF91CF911F910F91FF9020
:102B3000EF90DF90CF90BF90AF909F908F907F905D
:102B40006F905F904F903F902F900895CF93DF93B9
:102B5000EC01862F9A81692F63700E94C514482F5B
:102B6000888164E10E940937682F880F680F660F1B
:102B70006A5F70E0892F880F980F990F87E0890F9F
:102B800090E0DF91CF910C94381F8091B40186952D
:102B90008B5F0895CF92EF920F931F93CF93DF93A4
:102BA000182F8091E401813019F40E94421030C046
:102BB000823071F5809104018823F1F0CAE0C0935E
:102BC0000A09C0930B098AE692E00E94002184E181
:102BD00080930A09C0930B098CE79AE00E940021B8
:102BE000E12C0BE02BE04CE559E067E070E082E37C
:102BF00090E00E94851B0CC00E94421080E48093EC
:102C00000A098AE080930B098CE692E00E94002179
:102C10008AE080930A0986E180930B098091E401A0
:102C2000813019F486E79AE002C081E79AE00E94B9
:102C30000021C12FD0E0CE0101960E94B12085E095
:102C400080930A0982E280930B090E94C51518132C
:102C500015C087E69AE00E9400218AE080930A0965
:102C60008CE280930B09CE010497880F991F0E9474
:102C7000B12080E69AE00E94002110C086E59AE02B
:102C80000E94002188E180930A098CE280930B095D
:102C90008091AA019091AB010E94B1208091E40142
:102CA0008130E9F4C12CE12C01E025E040E951E05C
:102CB00067E370E085E090E00E9463278CE08093FA
:102CC0000A0989E380930B098091B40190E0DF91B8
:102CD000CF911F910F91EF90CF900C94B120DF9185
:102CE000CF911F910F91EF90CF900895EF92FF92A7
:102CF0000F931F93CF93DF931F92CDB7DEB77C0165
:102D0000FC0100811181C80169830E9490366981AC
:102D1000681719F0C8010E949836C7010F90DF911B
:102D2000CF911F910F91FF90EF900895EF92FF9236
:102D30000F931F93CF93DF9300D0CDB7DEB70E94E0
:102D40002E108C010E94EC12E090AA01F090AB01D1
:102D50008E159F0580F41A8309836F2DCE0101968D
:102D60000E9476160F5F1F4F1A8309836E2DCE01C6
:102D700001960E9476160F900F90DF91CF911F91D0
:102D80000F91FF90EF900895CF93DF931F92CDB7EF
:102D9000DEB76983DC01ED91FC910280F381E02DC7
:102DA00041E050E0BE016F5F7F4F09950F90DF91CA
:102DB000CF91089583E08093E9008091F200882309
:102DC00019F08AE38093E8000895FC0184859585D5
:102DD00097FD0BC09FB7F89482E08093E900809143
:102DE000F2009FBF90E0019608959FB7F89482E0AB
:102DF0008093E9008091F2009FBF90E008953FB773
:102E0000F8948091AD039091AE03A091AF03B0917F
:102E1000B00326B5A89B05C02F3F19F00196A11D50
:102E2000B11D3FBFBA2FA92F982F8827820F911D60
:102E3000A11DB11DBC01CD0142E0660F771F881FA7
:102E4000991F4A95D1F7089585ED8093BC00809134
:102E5000BC0084FDFCCF10928203089540915C0376
:102E6000262F30E0240F311D21323105DCF4209172
:102E700082032430C9F4FC0180E090E0861758F406
:102E800030915C032191DC01A65CBC4FA30FB11D06
:102E90002C930196F3CF80915C03680F60935C03E1
:102EA00080E0089581E0089582E0089508958FEF0D
:102EB0009FEF08958FEF9FEF08958091390390E081
:102EC0009195819591090895CF93DF9300D0CDB767
:102ED000DEB7CB01642F49835A830E942E174981A4
:102EE000842F5A81952F0F900F90DF91CF910895E5
:102EF000CF93DF931F92CDB7DEB7698361E0CE0138
:102F000001960E942E1781E090E00F90DF91CF9103
:102F1000089580916901E0916701F091680188232B
:102F200049F0CF01029690936801809367018591E3
:102F300094910895CF010296909368018093670160
:102F40008081918108958091B20108950895089536
:102F500080E090E008950E94A42990E008950F93E6
:102F60001F93CF93DF931F92CDB7DEB78C01FC0187
:102F70008485958597FF0EC0CE0101960E947A291F
:102F8000019719F4298130E002C02FEF3FEFF801DB
:102F900035872487F801848595850F90DF91CF913F
:102FA0001F910F910895CF93DF931F92CDB7DEB796
:102FB000FC018485958597FD05C02FEF3FEF358790
:102FC00024870BC0CE0101960E947A29019719F43B
:102FD000898190E002C08FEF9FEF0F90DF91CF913A
:102FE00008958F929F92AF92BF92CF92DF92EF920D
:102FF000FF926B017C010E94FF164B015C01C11422
:10300000D104E104F104F1F00E94FF16DC01CB01D0
:1030100088199909AA09BB09883E9340A105B10501
:1030200070F321E0C21AD108E108F10888EE880E99
:1030300083E0981EA11CB11CC114D104E104F10469
:1030400019F7DDCFFF90EF90DF90CF90BF90AF905A
:103050009F908F9008958F929F92AF92BF92CF9240
:10306000DF92EF92FF920F931F93CF93DF935C0158
:103070006B017A0180911201882309F45BC0809171
:10308000B209882309F456C08091630180FF05C00E
:103090008091E00082608093E000E70110E00AEF99
:1030A00083E0882E9AE3992E2097D9F10E94A429D3
:1030B00081110AC0015009F43DC061E070E080E078
:1030C00090E00E94F117F0CF282F30E0C217D3070D
:1030D0000CF48C2F4FB7F8948092E9009091E8009F
:1030E00095FF1DC0282F30E0C21BD30BF601982F8F
:1030F000915020F081918093F100FACFC20ED31E3F
:10310000112319F09092E80009C08091E80085FD34
:1031100006C09092E80011E0209709F010E04FBF40
:10312000C3CF1111C3CF5D9884E68093AB091E1401
:103130001F0444F081E090E0F5019383828380E0F6
:1031400090E001C0C701DF91CF911F910F91FF90D7
:10315000EF90DF90CF90BF90AF909F908F900895A9
:103160002FB7F8946091A9037091AA038091AB03E3
:103170009091AC032FBF08951F920F920FB60F923C
:1031800011242F933F938F939F93AF93BF9380917D
:10319000A9039091AA03A091AB03B091AC03309125
:1031A000A80323E0230F2D3720F40196A11DB11DA4
:1031B00005C026E8230F0296A11DB11D2093A80388
:1031C0008093A9039093AA03A093AB03B093AC039D
:1031D0008091AD039091AE03A091AF03B091B00385
:1031E0000196A11DB11D8093AD039093AE03A093F2
:1031F000AF03B093B003BF91AF919F918F913F9177
:103200002F910F900FBE0F901F9018951F920F9245
:103210000FB60F9211242F933F934F935F936F93A9
:103220007F938F939F93AF93BF93EF93FF9380917F
:10323000B900887F803609F49CC068F5883209F4AB
:103240005BC090F4803109F454C038F4882309F449
:10325000F6C0883009F44DC0F6C0883109F44CC07E
:10326000803209F45DC0EFC0803409F468C048F4CE
:10327000803309F455C0883309F0E5C08093810399
:10328000D8C0803509F44FC0883509F45DC0883452
:1032900009F0D9C0D6C0883909F4C7C0A8F4883766
:1032A00009F467C038F4883609F463C0803709F43C
:1032B00060C0C9C0883809F4B8C0803909F45FC05B
:1032C000803809F0C0C05BC0803B09F486C038F488
:1032D000803A09F466C0883A09F47FC0B4C0803CE3
:1032E00009F4A7C0883C09F4A4C0883B09F48AC04B
:1032F000AAC08091A70310C09091A6038091A50356
:10330000981770F5E091A60381E08E0F8093A603D5
:10331000F0E0EB57FC4F80818093BB0085EC86C0CA
:10332000809381038EC0E091A60381E08E0F80938D
:10333000A6038091BB00F0E0EB57FC4F8083909197
:10334000A6038091A5036EC0E091A60381E08E0FD5
:103350008093A6038091BB00F0E0EB57FC4F808385
:103360008091840381116DC081E08093830384EA9E
:1033700061C083E08093820310928003CFCF80915D
:103380008003803208F051C0E091800381E08E0F0D
:10339000809380038091BB00F0E0E05AFC4F808373
:1033A000BDCF85EC8093BC00109282038091800396
:1033B000803230F4E0918003F0E0E05AFC4F10825C
:1033C0006091800370E0E0915E03F0915F0380E61E
:1033D00093E009951092800336C084E080938203C5
:1033E00010925D0310925C03E0915A03F0915B032D
:1033F000099580915C03811105C081E080935C0395
:1034000010923A03E0915D0381E08E0F80935D039B
:10341000F0E0E65CFC4F80818093BB0090915D03FF
:1034200080915C03981708F479CF85E88093BC00FD
:103430000AC085EC8093BC001092820304C01092F5
:1034400081030E942417FF91EF91BF91AF919F914B
:103450008F917F916F915F914F913F912F910F903D
:103460000FBE0F901F901895CF92DF92EF92FF92B0
:103470000F931F93CF93DF930E948917811520E844
:10348000920759F4809171008D7F809371001092A2
:1034900091004698109233036BC021E020933303D0
:1034A000813020E8920751F4809165019091660186
:1034B00090936801809367010E948917EC01DF7780
:1034C000209769F4469881E0809334033FE9C32E46
:1034D0003FE0D32EE12CF12CCAEFD0E014C08E01D6
:1034E00020E030E060E472E48FE090E0A901980110
:1034F0000E94A63669017A0181E0C81AD108E10864
:10350000F10810923403E0916A09F0916B09099572
:10351000811103C081E0809334030E9489170097D2
:1035200071F09C01DE010E94FA36DC01CB0129E03A
:10353000B595A795979587952A95D1F703C08FEFF5
:103540009FEFDC01109290002AE020939100D0922E
:103550009900C09298008093350390933603A0930E
:103560003703B093380380917100826080937100BB
:10357000DF91CF911F910F91FF90EF90DF90CF904F
:1035800008951F920F920FB60F9211242F933F931D
:103590004F935F936F937F938F939F93AF93BF935B
:1035A000EF93FF938091350390913603A0913703F9
:1035B000B0913803892B8A2B8B2B49F180913403EE
:1035C000811104C098B180E4892788B980913503BE
:1035D00090913603A0913703B0913803181619065D
:1035E0001A061B06B4F48091350390913603A0911E
:1035F0003703B09138030197A109B10980933503CE
:1036000090933603A0933703B093380302C00E940F
:10361000341AFF91EF91BF91AF919F918F917F915C
:103620006F915F914F913F912F910F900FBE0F902F
:103630001F9018959C01E1E7F0E090819D7F9083B9
:1036400081E0809369013093680120936701309392
:103650006601209365010C94341A2D9A0895BC01DB
:1036600080E090E00C94F1178FB18095807F669B8D
:1036700088601C9B846008953E9A3F9A81E0809305
:10368000B2010895FC01840F911D18161906E4F586
:10369000E038F105CCF5F7FF02C0E0E0F0E081385A
:1036A000910514F080E890E0382F3E1BAB0177FFC6
:1036B00002C0495F5F4F83E0559547958A95E1F7D2
:1036C0005695542F442757954795E40FF51FEA5F09
:1036D000FA4F6770772781E090E001C0880F6A9504
:1036E000EAF7482F222349F0213071F4315020F0BD
:1036F0008081842B8193FACF08958095315020F0FA
:10370000908198239193FACF08952F923F924F92F0
:103710005F926F927F928F929F92AF92BF92CF9261
:10372000DF92EF92FF920F931F93CF93DF93CDB76A
:10373000DEB72D970FB6F894DEBF0FBECDBFED827A
:10374000E22EF12C9C012E0D3F1D37FD32C1803839
:1037500091050CF02EC19B01200F311D37FD29C1B1
:10376000603471050CF025C1DB0177FF04C0AA2786
:10377000BB27A61BB70BA770BB279B0177FF02C017
:10378000295F3F4F13E0359527951A95E1F777FFAD
:1037900008C02150310968E070E0FB01EA1BFB0B17
:1037A000DF01E02FE695E695E695CE2ED12C077049
:1037B00019F0FFEFCF1ADF0AB9017695762F662749
:1037C00077956795680F791F6A5F7A4F8601020FB8
:1037D000131F19870887C12CD12CF8E0AF2EB12C0C
:1037E00085010A1B1B0B1F830E8308851985201773
:1037F000310709F4DEC02830310509F4DAC02F3F63
:103800001FEF31070CF4CAC08B0100581F4F1D87F2
:103810000C874B013B012B011C011C830B831A837A
:1038200009831B861A860A851B850E151F050CF059
:10383000B5C010E82116310409F4B0C037FC89C0C6
:103840002F3FEFEF3E0709F4B0C00A851B850C0D32
:103850001D1DFD81F13079F4F801E40FF51FE491AD
:10386000F0E08F010A2E01C0000F0A94EAF7F3017D
:10387000B0800B2925C0FD81F11114C0F801E40FBF
:10388000F51FE491F0E00A2E02C0EE0FFF1F0A942C
:10389000E2F78F0100951095F401A080B12C0A2168
:1038A0001B210EC0F801E40FF51FE491F0E08F0139
:1038B0000A2E01C0000F0A94EAF7F201B0800B252E
:1038C0000083109709F445C02730310509F441C041
:1038D0000A851B850C0D1D1DFD81F13089F4F80151
:1038E000E40FF51FE4910E2F10E00E8002C0159535
:1038F00007950A94E2F7EC85FD85B0800B2928C076
:10390000FD81F11115C0F801E40FF51FE4910E2FB0
:1039100010E00E8002C0159507950A94E2F7009515
:103920001095E981FA81A080B12C0A211B2110C0D9
:10393000F801E40FF51FE4910E2F10E00E8002C095
:10394000159507950A94E2F7EB81FC81B0800B2571
:1039500000830A851B850F5F1F4F1B870A870C8515
:103960001D850F5F1F4F1D870C8709811A810F5F0F
:103970001F4F1A8309830B811C810F5F1F4F1C830C
:103980000B831FEF211A310AEFEF4E1A5E0AFFEF89
:103990006F1A7F0A0FEF801A900A45CF2F5F3F4FB3
:1039A00060587F4FCE0CDF1C20CF109709F090CFCE
:1039B000D0CF2D960FB6F894DEBF0FBECDBFDF91EE
:1039C000CF911F910F91FF90EF90DF90CF90BF901C
:1039D000AF909F908F907F906F905F904F903F90AF
:1039E0002F90089560387105D0F440345105B8F433
:1039F000E9EAFAE080E1849FD001A0781124A60FC3
:103A00004770E40FF11D8491AA5FBA4F222319F089
:103A10006C91862B03C080956C9186238C930895BE
:103A20000F93CF93DF93D82FC62F70E06D5F7F4F3A
:103A300090E001E027E049E001970E941A2061E050
:103A40006C0F40E08EEF8D0F0E940C1383E08C0F03
:103A5000DF91CF910F910895FF920F931F93CF9312
:103A6000DF938C01EB01643B7105F8F4FB01EA5F25
:103A7000FA4F80818130C9F0F62E862F0E944627AA
:103A80008150823090F0F8019191DF018A2F8E1BD6
:103A9000891720F48D918F11F9CF07C0F801E90F34
:103AA000F11DC1839F5FF8019083DF91CF911F913A
:103AB0000F91FF900895843160F4693050F494E1DF
:103AC000699F800D1124E82FF0E0EE5AFB4F8081B2
:103AD00008958FEF0895CF93DF93C82FD62F0E94BC
:103AE000EC266D2F81E08C0F0E94EC266D2F84E177
:103AF0008C0F0E94EC266D2F85E18C0F0E94EC2626
:103B000081E080930601DF91CF910895DF92EF92DB
:103B1000FF920F931F93CF93DF937C01D22E8B01E3
:103B2000040F111DEB0177FF0EC0C0E0D0E00BC009
:103B3000C417D5077CF42D2DAE01B70184E999E0B7
:103B40000E94F21C2196A801013411058CF340E477
:103B500050E0EECFDF91CF911F910F91FF90EF904A
:103B6000DF9008952F923F924F925F926F927F92D3
:103B70008F929F92AF92BF92CF92DF92EF92FF927D
:103B80000F931F93CF93DF937C016B01C42FD0E081
:103B900081E090E05C01AC1ABD0A662477246C1ABF
:103BA0007D0A660C771C00E010E088248394912C39
:103BB000822F8470282E822F8270482E822F887048
:103BC000382E2170522E0C171D070CF071C0B7FC57
:103BD00006C0219782E0680E711CA60CB71C0F5F0F
:103BE0001F4F82E0880E911CA80CB91C2220B1F056
:103BF00020E0A6014C0F5D1FB8016E0D7F1D84E90A
:103C000099E00E94F21C20E0A8014C0D5D1DB70157
:103C10006C0F7D1F84E999E00E94F21C4420B1F0F2
:103C200020E0A6014C1B5D0BB8016E0D7F1D84E9E1
:103C300099E00E94F21C20E0A601401B510BB70145
:103C40006C0F7D1F84E999E00E94F21C3320B1F0D3
:103C500020E0A8014C0D5D1DB7016C1B7D0B84E9B4
:103C600099E00E94F21C20E0A6014C0F5D1FB701F5
:103C7000601B710B84E999E00E94F21C552009F445
:103C8000A2CF20E0A601401B510BB7016C1B7D0B9E
:103C900084E999E00E94F21C20E0A6014C1B5D0B18
:103CA000B701601B710B84E999E00E94F21C8BCF75
:103CB000DF91CF911F910F91FF90EF90DF90CF9008
:103CC000BF90AF909F908F907F906F905F904F903C
:103CD0003F902F900895EF920F93CF93C82F80338A
:103CE00009F4CFE40FEB0C0F0A31C0F08FEC8C0F0E
:103CF000893018F40EEE0C0F11C0C53271F0CF33BD
:103D000041F1CC3341F1CE3341F1CD3241F1C133F8
:103D1000B9F080910A09895F16C00AE160910B0928
:103D2000062E000C770B80910A09E12C26E049ED64
:103D30005AE0082E000C990B0E942C13C93439F755
:103D400080910A098B5F80930A09CF910F91EF90C0
:103D500008950BE1E3CF0CE1E1CF0DE1DFCF0EE100
:103D6000DDCF4F925F926F927F928F929F92AF9230
:103D7000BF92CF92DF92EF92FF920F931F93CF9358
:103D8000DF93EC017B016A01C901A901461B570BB6
:103D900057FF03C051954195510996012C1B3D0BCE
:103DA00037FF03C031952195310911E024173507FC
:103DB00014F010E00AC03C2D2D2D6C01832F922FA2
:103DC0003C2F2D2FE701E32EF22ECC16DD0654F406
:103DD0003E2D2F2D7C01832F922F3C2F2D2FE6017E
:103DE000C32ED22E26014C1A5D0A4C018E189F0854
:103DF00097FE03C0919481949108520157FE03C02D
:103E00002FEFA21AB20AB594A794E816F90614F097
:103E10008FEF01C081E0682E880F7708CC16DD0691
:103E2000B4F0202F112319F0AE01B70102C0A70191
:103E3000BE0184E999E00E94F21CA818B908B7FEF7
:103E400004C0E60CF71CA40CB51C2196E7CFDF914B
:103E5000CF911F910F91FF90EF90DF90CF90BF9087
:103E6000AF909F908F907F906F905F904F9008954C
:103E70002F923F924F925F926F927F928F929F927A
:103E8000AF92BF92CF92DF92EF92FF920F931F9368
:103E9000CF93DF9300D000D0CDB7DEB78C017B018C
:103EA000242F30E03C832B8381E090E05C01A21A58
:103EB000B30AC9019195819591091C01220C331C0B
:103EC000A901460F571F20E0B80184E999E00E943C
:103ED000F21CA7018B819C81481B590B20E0B80183
:103EE00084E999E00E94F21C6B817C81600F711F54
:103EF00020E0A70184E999E00E94F21CB801EB815F
:103F0000FC816E1B7F0B20E0A70184E999E00E94F1
:103F1000F21CC12CD12C21E030E03A8329832B8183
:103F20003C81C216D3060CF06EC0B7FC0AC08B8170
:103F30009C8101979C838B8392E0290E311CA20CFB
:103F4000B31CEFEFCE1ADE0A29813A812E5F3F4F74
:103F50003A832983A20EB31E3601600E711E20E043
:103F60008B809C808E0C9F1CA401B30184E999E096
:103F70000E94F21C28014C185D0820E0A401B20147
:103F800084E999E00E94F21C20E047018B819C812A
:103F9000881A990AA401B30184E999E00E94F21CED
:103FA00020E0A401B20184E999E00E94F21C4601DC
:103FB0008E0C9F1C20E0A4016B807C80600E711E23
:103FC000B30184E999E00E94F21C20E0A4012801D9
:103FD000EB81FC814E1A5F0AB20184E999E00E94EC
:103FE000F21C47018C189D0820E0A401B30184E96C
:103FF00099E00E94F21C20E0A401B20184E999E05A
:104000000E94F21C8CCF0F900F900F900F90DF91B9
:10401000CF911F910F91FF90EF90DF90CF90BF90C5
:10402000AF909F908F907F906F905F904F903F9058
:104030002F900895CF92DF92EF92FF920F931F93EC
:10404000CF93DF936B01122FEC017C01E40EF11C86
:10405000CE15DF0544F4202F412FB601CE010E947A
:10406000861D2196F5CFDF91CF911F910F91FF9083
:10407000EF90DF90CF9008955F926F927F928F9232
:104080009F92AF92BF92CF92DF92EF92FF920F93E7
:104090001F93CF93DF93EC013B01542EF22E102F90
:1040A0001195110FE12EE40E802E912C5C01A80CCD
:1040B000B91C6034710528F420E04E2DC5010E9422
:1040C000421B6301CF0CD11CB601615071096034F1
:1040D000710528F420E04E2DC5010E94421B1F0DE2
:1040E0007301E80CF91C20E0412FB701CE010E94BA
:1040F000861DC50DD11D20E0412FB701CE010197CE
:104100000E94861D21E0402FB701C5010E94B21D0B
:10411000C819D909219722E0402FB701CE010E948A
:10412000B21DC818D90881E0C81AD10824E0402F70
:10413000B601CE010E94B21D28E0402FB601C50194
:10414000DF91CF911F910F91FF90EF90DF90CF9073
:10415000BF90AF909F908F907F906F905F900C94E6
:10416000B21DCF92DF92EF92FF920F931F93CF93E6
:10417000DF937C018A30910550F08436910548F038
:1041800088EEE81683E0F80630F0C4E005C0C1E030
:1041900003C0C2E001C0C3E020E001E010E08C2FCA
:1041A00090E001973AE0422F50E04817590744F455
:1041B000A801349F8001359F100D11242F5FF3CF8C
:1041C000D0E08AE0C82ED12CC701B8010E94233765
:1041D000CB01B6010E942337805D0E946B1EC8018F
:1041E000B6010E9423378B01DF5FDC13EDCFDF9137
:1041F000CF911F910F91FF90EF90DF90CF90089596
:104200001F93CF93DF93EC01FE011491812F0E9445
:104210006B1E21961111F8CFDF91CF911F91089558
:10422000DF92EF92FF920F931F93CF93DF93EC01F6
:104230007B01D42E122F6034710520F4202FCE0183
:104240000E94421BB701610F711D615071096034FA
:10425000710528F4202F4D2DCE010E94421B202FE6
:10426000412FB701CE010E94861DCE018D0D911DFB
:10427000202F412FB7010197DF91CF911F910F910F
:10428000FF90EF90DF900C94861D8F929F92AF92DB
:10429000BF92CF92DF92EF92FF920F931F93CF9333
:1042A000DF93EC01D62E00E024E14AE2BC0180E578
:1042B00090E00E94102180910909882321F08091CB
:1042C0000809D81621F080910709D8120DC001E025
:1042D0009E01255F3F4F40E550E0BE01675F7F4F85
:1042E00080E590E00E94B11E0E94C515D816C0F06E
:1042F000BE016E5F7F4F00E020E146E282E590E084
:104300000E941A20BE016B5F7F4FEE24E3940BE006
:1043100028E049EC5AE081E690E00E94851B45C008
:1043200010E05E018FEFA81AB80AC12E81E5E82ED1
:10433000F12C4E0182E0880E911C6D2D8C2D0E9477
:104340000927823069F0833099F0813009F501E066
:1043500024E044E0BE01C70101970E943C2018C040
:1043600000E022E042E0B501C7010E941A2010C01F
:1043700020E0A401B70184E999E00E94F21C20E04A
:10438000A501B7016F5F7F4F84E999E00E94F21C9D
:10439000C39482E0E80EF11C89E7E816F10469F69F
:1043A0001C5E2296143B09F0BCCFDF91CF911F9188
:1043B0000F91FF90EF90DF90CF90BF90AF909F90C4
:1043C0008F90089581E0E6E0F5E081118FEF002401
:1043D00081938193819381930394D1F708952F92D0
:1043E0003F924F925F926F927F928F929F92AF9285
:1043F000BF92CF92DF92EF92FF920F931F93CF93D2
:10440000DF93CDB7DEB7AA970FB6F894DEBF0FBE25
:10441000CDBF10920601198232E5832E34E0932E2F
:10442000E6E0F5E0D40180E08D9311928F5F843B4C
:10443000D9F7809151048F8B81E0F12CE12C552428
:10444000539494E1492E25E1322E9E01295E3F4F7F
:104450003901A12CB12CC82ED12CAC14BD04ECF523
:10446000D3012D903D01B0E52B1202C0FF24F3943F
:10447000022D10E0F801EE5AFB4FE082F801EA5FEE
:10448000FA4F5082B80164517109CE0101960E9421
:104490002C1DB8016C5E7F4FCE0101960E942C1D31
:1044A000822D642D0E940937292E911108C0B80170
:1044B0006F5F7F4FCE0101960E942C1D0AC0B8018C
:1044C00061507109CE0101960E942C1DE3E12E126C
:1044D000EECFFFEFAF1ABF0AC0CFFE013196DE016B
:1044E0005696832D01900D928A95E1F7898181116D
:1044F00013C0E6E0F5E02FEFCF018C5491919111BC
:1045000002C0D4012C93BFEF8B1A9B0A8E13F6CFF7
:104510000E94E2218F2D06C01982E394EAE5EE1293
:1045200094CF80E0AA960FB6F894DEBF0FBECDBF41
:10453000DF91CF911F910F91FF90EF90DF90CF907F
:10454000BF90AF909F908F907F906F905F904F90B3
:104550003F902F900895E1EBF3E090E0228123FF5C
:1045600003C02081281731F09F5F34969832B1F74D
:104570008FEF0895892F0895AF92BF92CF92DF9267
:10458000EF92FF920F931F93CF93DF931F92CDB7BC
:10459000DEB780E090E0FC01EF54FC4F13820496FC
:1045A000803A9105C1F783EBA82E83E0B82E94E101
:1045B000F92E2FE0E22EF501208123FD14C0F4E056
:1045C000AF0EB11C23E5A21624E0B206A1F70F90AE
:1045D000DF91CF911F910F91FF90EF90DF90CF90DF
:1045E000BF90AF900895F5013197808182958F70CB
:1045F000873029F7319780816F2D0E940937D82E97
:104600002370CE2C2E9DC00C112400E010E0F80188
:10461000E354F54F2491822F890FF801EF54F54FA1
:10462000E4918431D0F4ED0DE930B8F4EF9D800DC4
:10463000112499830E94AB2299818F3F71F024E06D
:10464000829FF0011124EF54FC4F818182958F707D
:10465000873019F023812C0D23830F5F1F4F0C30FF
:104660001105A9F6ACCFDF92EF92FF920F931F9343
:10467000CF93DF93A3EBB3E0E0E0F0E09C9193FDF8
:1046800030C0122FD42EEF01CC0FDD1FCC0FDD1F59
:10469000FE01EF54FC4F98609283082F94E1699FCC
:1046A000000D1124E8E04E1721F061E0802F0E94F8
:1046B0006B1DCE018F549C4F7C01FC010083138243
:1046C000137022812C70122B12836D2DCE018E540B
:1046D0009C4F0E94FB11F7018181807F886081835C
:1046E00005C031961496E832F10541F6DF91CF917D
:1046F0001F910F91FF90EF90DF90089520919A09FC
:10470000282329F090919909982381E009F080E00D
:1047100008954091AE095091AF092091AC093091B4
:10472000AD0942175307B4F49091E8009570E1F396
:104730009091E80092FD19C08093F1008091AE093C
:104740009091AF0901968F739927892B19F48EEFF9
:104750008093E8008091AE099091AF090196909303
:10476000AF098093AE0981E0089580E00895DF925B
:10477000EF92FF920F931F93CF93DF93D82E8A016E
:104780007B01E40EF51EEB01CE15DF0571F0D7FEBF
:1047900003C0FE01849101C088810E948923219673
:1047A0008111F2CF8FEF9FEF01C0C801DF91CF9150
:1047B0001F910F91FF90EF90DF900895615030F0BE
:1047C0002091F100FC0120830196F8CF289884E61F
:1047D0008093B1090895CF92DF92EF92FF920F93E9
:1047E0001F93CF93DF936C017A018B01C0E0D0E07F
:1047F000CE15DF0589F0D8016D918D01D601ED91BF
:10480000FC910190F081E02DC6010995892B11F4EE
:104810007E0102C02196ECCFC701DF91CF911F919D
:104820000F91FF90EF90DF90CF9008950E9458373E
:104830000F931F93CF93DF931F92CDB7DEB782E024
:10484000898342E450E069EC7BE080E80E94B72372
:104850000E94B529DC0112960D911C911397011548
:10486000110569F0D801ED91FC910280F381E02DF2
:10487000BE016F5F7F4FC801099597FF07C089810F
:104880000F90DF91CF911F910F910895F80100854E
:104890001185E5CF1F920F920FB60F9211248F93BF
:1048A0009F938091E1009091E100937F9093E100CC
:1048B00083FF0FC01092E90091E09093EB001092FB
:1048C000EC0092E39093ED001092B20998E090937F
:1048D000F00082FF20C093E09093E9009091F200F5
:1048E000992319F09AE39093E8009091AB099923EA
:1048F00039F09091AB0991509093AB09992389F1CC
:104900009091B109992339F09091B1099150909308
:10491000B109992341F184FF10C08091E2008E7E9D
:1049200081608093E2008091E1008F7E8093E100BE
:10493000809163018E7E806111C080FF16C08091DE
:10494000E2008E7E80618093E2008091E1008E7EA5
:104950008093E100809163018E7E8160809363018A
:1049600004C05D9ACDCF289AD6CF9F918F910F909A
:104970000FBE0F901F9018951F920F920FB60F92B7
:104980001124CF92DF92EF92FF920F931F932F93F8
:104990003F934F935F936F937F938F939F93AF93C7
:1049A000BF93EF93FF93CF93DF93CDB7DEB76C97B1
:1049B000DEBFCDBF1092E9008091E80083FFEDC11A
:1049C00068E0CE0145960E94DE2382EF8093E800E6
:1049D0008D8987FF05C09091E80090FFFCCF03C050
:1049E0009EEF9093E800982F907609F0C6C09E89BC
:1049F0002F89188D91110CC0803829F480916401A1
:104A00008093F10002C01092F1001092F10048C1B1
:104A1000422F50E0512B913051F4811141C141306E
:104A2000510509F03DC1809164018D7F0BC0933029
:104A300061F4811135C14130510509F031C18091D6
:104A400064018260809364012BC1953041F48091B0
:104A5000E80080FFFCCF20682093E30021C196305E
:104A600009F05FC0EB8CFC8C1092E9001092AF094A
:104A70001092AE09123091F51092AD091092AC0966
:104A80000E94182499E0BE016F5F7F4FDB01E92F80
:104A90001D92EA95E9F799831A8391E09E8390EA43
:104AA00098879AEF99872091AE093091AF09275FD7
:104AB0003F4F3C832B838D831092E9001092AF0906
:104AC0001092AE09F092AD09E092AC0949E050E0D5
:104AD00080E00E94B7230E941824E2C0F092AD0942
:104AE000E092AC090E94B529DC011296ED90FC9091
:104AF0001397E114F10409F4C0C0D701ED91FC91C2
:104B00000480F581E02DBE016B5E7F4FC7010995E2
:104B1000009719F00CF0C4C0C7C0F701E084F1841D
:104B2000E8CF973009F4C0C0983021F481E0809339
:104B3000F100B6C0993009F0B3C0837009F0B4C079
:104B4000E2E4F1E081E021E036E39081992361F035
:104B50008093E9002093EB0091919093EC003093C7
:104B6000ED008F5F873089F78EE78093EA0010921F
:104B7000EA008F898093B20993C08B8D9C8D10922F
:104B8000E9001092AF091092AE099093AD0980939D
:104B9000AC09898D811156C08E899D89913A59F44D
:104BA000813209F081C047E050E06BE071E080E0C5
:104BB0000E94B72375C0913209F076C0833289F420
:104BC000888D90E0982F88272F89822BA0E0B0E075
:104BD0008093070190930801A0930901B0930A0103
:104BE0005FC0803269F48091E80082FFFCCF67E00B
:104BF0008BE091E00E94DE238BEF8093E80006C0FB
:104C0000823209F04DC08F89809312018091620138
:104C1000882319F0EEEFFAE002C0E0E0F8E08091BE
:104C20000B0190910C01A0910D01B0910E01803B00
:104C30009440A105B10509F07BC08091120180FF6D
:104C400093C076C00E94B529DC0112960D911C918B
:104C500013970115110541F1D801ED91FC910190D7
:104C6000F081E02DBE016B5E7F4FC8010995811177
:104C700017C0F80100851185ECCF113009F44EC042
:104C8000133091F48F89882309F445C0823081F470
:104C900040E860E18DE29CE00E94F735882321F036
:104CA0008EEF8093E80079C081E28093EB0075C0BD
:104CB000813029F440E86BE081E29CE0EDCF833065
:104CC00099F70E94B529DC011296ED90FC9013979C
:104CD0008E010F5F1F4F6801E114F10479F0D701D5
:104CE000ED91FC910680F781E02DB801C70109958F
:104CF000080F111DF701E084F184EECFD8011C925A
:104D0000F60101900020E9F73197BF016C197D0988
:104D100040E0C601C1CF6BE07CE002C06FE07CE008
:104D20006115710509F2FB01449150E080E840CF24
:104D30000FB6F894A8958091600088618093600018
:104D4000109260000FBEA895EE3F2AE0F20739F0FE
:104D50008091FE0A9091FF0A91838083A1CF1092E7
:104D6000FF0A1092FE0A9CCFEE3F8AE0F80731F06E
:104D7000808191819093FF0A8093FE0A87E797E7ED
:104D8000918380839BE088E10FB6F894A895809387
:104D900060000FBE9093600083CF6C960FB6F894BE
:104DA000DEBF0FBECDBFDF91CF91FF91EF91BF91DD
:104DB000AF919F918F917F916F915F914F913F91B3
:104DC0002F911F910F91FF90EF90DF90CF900F9058
:104DD0000FBE0F901F901895282F20952370220F3B
:104DE00086958695E82FF0E0EA54FE4F83E090E048
:104DF000022E02C0880F991F0A94E2F780959095C1
:104E00009081892301C0660F2A95EAF7862B80835B
:104E10000895E82FE695E6959091E401F0E0923050
:104E2000B1F4611103C0EA54FE4F0FC0062E000C0E
:104E3000770B615071099DE2969F9001979F300D0D
:104E40001124E20FF31FEE5AFB4FE08108C02DE260
:104E50006202E00DF11D1124E25BF34FE491982F03
:104E600090959370990FF0E023E030E0092E02C096
:104E7000220F331F0A94E2F7E223F3239F0102C0BB
:104E8000359527959A95E2F7C9010895482F4095E1
:104E90004370440F63E070E0042E02C0660F771F7A
:104EA0000A94E2F786958695E82FF0E0EA54FE4FE3
:104EB000208130E0CB018223932302C09595879512
:104EC0004A95E2F708952F923F924F925F926F9228
:104ED0007F928F929F92AF92BF92CF92DF92EF928A
:104EE000FF920F931F93CF93DF937E2CE22EF12C32
:104EF000FC01EE0DFF1DF7FD79C0813891050CF026
:104F000075C0362F3770D32E1B0177FF03C0A7E083
:104F10002A0E311C33E0359427943A95E1F7369404
:104F2000322C222437942794029F20011124C0E0C0
:104F3000D0E04701F1E08F1A910808E010E00D1968
:104F40001109CE15DF0508F051C0772021F094013A
:104F50002C1B3D0B01C09E01FE01E40DF51DE40F6D
:104F6000F51FE491D901A80FB91F9D01220D331D32
:104F70002115F4E03F07C0F5A038B105A8F5D90127
:104F8000AA5FBA4FF0E077FD20C0C1100AC05F01F0
:104F90000D2C01C0AA0C0A94EAF7A094BC90AB2097
:104FA00008C06C905F010D2C01C0AA0C0A94EAF7AE
:104FB000A628AC92DD20C1F02038A3E03A07A4F483
:104FC00020583F4FD901AA5FBA4F002E02C0F59575
:104FD000E7950A94E2F7C11004C0E0952C91E22312
:104FE00002C02C91E22BEC932196ABCFDF91CF91B5
:104FF0001F910F91FF90EF90DF90CF90BF90AF90F7
:105000009F908F907F906F905F904F903F902F90E8
:105010000895CF93DF93C82FD0E09E013595279553
:1050200035952795822F2230310514F00E940928EA
:10503000880F91E0980F999F90011124C217D30710
:105040000CF0892FDF91CF9108950C9490369091B8
:1050500001018091020124E1929F800D11240E94A0
:10506000AB228093B10194E0899FF0011124EF54A9
:10507000FC4F818182958F708093AD018281837016
:105080008093AE010895EF92FF921F93CF93DF9329
:1050900000D0CDB7DEB71092E40181E08093050126
:1050A0001092B30182E08093030184E880930001B1
:1050B000E2E7F9E080818F7B8083389689E0EA39E6
:1050C000F807C1F7ECE6F1E08081877F80833396B3
:1050D00081E0E83AF807C1F789E00E949711E12CD6
:1050E000F12CF701EA5BF34F1491F701E25CF34F07
:1050F0006491EA8269830E94C5159701280F311DCA
:10510000280F311D2A5031094E2D69812032310579
:1051100054F437FF02C0295F3F4F83E03595279550
:105120008A95E1F701C023E0812F0E9433238FEF9E
:10513000E81AF80A88E0E816F10499F60F900F9043
:10514000DF91CF911F91FF90EF90089588E00E942A
:105150007E23811104C084E00E947E2381110C947F
:1051600043280895FF920F931F93CF93DF93182F37
:10517000D091020190910101C4E19C9FC02D1124A6
:105180008C2F8D0F0E944627F82E811317C011E037
:105190001D0F812F8C0F0E944627082F8F110EC0E4
:1051A000CC5E8C2F8D0F0E944627D82F801306C00F
:1051B0008C2F810F0E94462791E08D1390E0892F5C
:1051C000DF91CF911F910F91FF9008951F93CF937F
:1051D000DF93EC01162F0E94341B85FF08C081E08D
:1051E0008093B0098881882311F0815088830E94C0
:1051F000341B86FF0FC081E08093B0098881282F7F
:1052000030E0612F70E0615071092617370714F400
:105210008F5F8883DF91CF911F9108951F93CF9364
:10522000DF93EC01162F0E94341B87FF08C081E03A
:105230008093B0098881882311F0815088830E946F
:10524000341B84FF0FC081E08093B0098881282F30
:1052500030E0612F70E0615071092617370714F4B0
:105260008F5F8883DF91CF911F910895CF93DF9354
:10527000D091E4010E946F14811114C0C1E0D430B8
:1052800009F0C0E069E06C1B81E091E00E940E290A
:1052900064E16C1B82E091E00E94E628DF91CF91EF
:1052A0000C945A14DF91CF910895FC0180816623FC
:1052B00049F087FF02C081E0808380818F3751F001
:1052C0008F5F07C018160CF410828081803811F0AF
:1052D000815080830895E6E0F5E0A0E0B8E000802A
:1052E0000EBC8111012C1197A0FDFDCF0192B9F7E1
:1052F0000DB40895FC018091B209811103C08FEFB4
:105300009FEF08959FB7F89482E08093E900209181
:10531000F20030E01216130614F421E030E02115FB
:10532000310559F0289884E68093B1098091F10005
:1053300080838091F200882319F09FBFC9010895EE
:105340008BE68093E800F9CF2FB7F89483E0809341
:10535000E9009091E800892F807295FF04C0909138
:10536000F20080E4891B2FBF08958091B709811155
:105370000DC082E08093B30984E08093B409109259
:10538000B6091092B50981E08093B70983EB99E0E3
:105390000895CF93DF93CDB7DEB727970FB6F89474
:1053A000DEBF0FBECDBF789484B5826084BD84B566
:1053B000816084BD85B5826085BD85B5816085BD10
:1053C00080916E00816080936E00109281008091C8
:1053D0008100826080938100809181008160809350
:1053E0008100809180008160809380008091910095
:1053F0008260809391008091910081608093910000
:10540000809190008160809390008091C1008460C1
:105410008093C1008091C10082608093C10080911F
:10542000C10081608093C1008091C300816080933E
:10543000C3008091C00082608093C0008091C20050
:1054400081608093C20080917A00846080937A00AA
:1054500080917A00826080937A0080917A008160E6
:1054600080937A0080917A00806880937A0010920D
:10547000B20910926401109263018091D70081609B
:105480008093D70080EA8093D80089B5806189BD78
:1054900089B5826089BD09B400FEFDCF61E070E08E
:1054A00080E090E00E94F1178091D8008F7C8061AD
:1054B0008093D8008091E000807F8093E00080910D
:1054C000E1008E7E8093E1008DE08093E200559AAA
:1054D000209AEEEFFFE7859194918B3F9C4D19F454
:1054E00081E08093620181EC80937C0085B1806FC4
:1054F00085B984B1877E84B984B1876E84B95E9A98
:105500005F988AB1806D8AB9769A6E9881B3806F00
:1055100081BB899880B38D7080BB80E58CBD81E0B4
:105520008DBD85E090E00E942F1B5F9A85E090E0A2
:105530000E942F1B5E985C98ECE7F1E08DE08E0FE7
:1055400094919EBD00000DB407FEFDCF31968E13E1
:10555000F7CF5C9A81E88093640080916500816058
:105560008093650080E00E946B290E94341B87FFB6
:1055700016C05C9885EA8EBD00000DB407FEFDCF15
:105580008EB55C9A2E982F982D9880916400806239
:105590008093640081E083BF889513BEFCCF02E056
:1055A00010E00E94341B82FF42C02D980E94341BE1
:1055B00084788438C9F00E94341B8471843191F559
:1055C0000E942D1B88EC90E00E942F1B2E981A83BE
:1055D000098360E0CE0101960E94761684EF91E087
:1055E0000E942F1B2E9A19C00E942D1B88EC90E060
:1055F0000E942F1B2F981A8309836FEFCE0101960B
:105600000E94761684EF91E00E942F1B2F9A0E9431
:10561000341B84788438D9F3CECF0E94341B847134
:105620008431D9F388EC90E00E942F1BBACF0E94FE
:105630002D1B82E090E00E94903681110E943C1B5D
:1056400081E090E00E94903682FB112710F981E002
:1056500090E00E94903681FF3CC011112E98E0EF3F
:105660008E2E99249A940E94341B86FF04C02E9A91
:105670002F9A2D9A2EC0112331F034E08316910415
:1056800011F42E9A2F9881E00E946B29EE24E39466
:1056900000E128E54CEC50E0B40184E190E00E9488
:1056A000851B80E00E946B298FE090E00E942F1BF9
:1056B0004FEF841A940A89E188169104A1F6112308
:1056C00011F02F9A2D9880E991E00E942F1B0E94E3
:1056D0002D1B82E390E00E942F1B0E94341B81113E
:1056E000F8CF81E280939B09E3EBF3E08081877F31
:1056F0008083349694E0E335F907C1F7E2E7F9E0F7
:1057000080818F7B8083389629E0EA39F207C1F7E0
:10571000ECE6F1E08081877F8083339631E0E83AE0
:10572000F307C1F703E211E0FF24F394C8010E94DC
:105730002528F801EA59FF4FE4918E13F12C0F5FF1
:105740001F4F093241E0140789F7FF20A9F10E9499
:105750004328809171008D7F8093710010926901C0
:105760008CE599E0909368018093670190936601BE
:105770008093650188EC90E090935D0980935C09CB
:1057800090935F0980935E092CE231E030936109C8
:1057900020936009909363098093620980E090E808
:1057A00090936509809364090E94341A73E0272E50
:1057B000312C412C512C6CC000E110E01A8309837C
:1057C00060E0CE0101960E9476160F5F1F4F0332F4
:1057D00081E0180799F703E211E0F801EA59FF4F59
:1057E00064911A830983CE0101960E9476160F5F99
:1057F0001F4F093291E0190781F7A9CF153009F041
:1058000036C18091A701882319F081508093A701A8
:105810008091A70181119FC11111F6C10E94F21060
:105820000E94F2100E94C515282F8091A90166E000
:105830000E940937392F8BEA289F812D11248695E4
:1058400090E00696830F911D8093A901809103013A
:10585000823011F41092030180E00E946B29809144
:10586000E6019091E701A091E801B091E90101966C
:10587000A11DB11D8093E6019093E701A093E8017B
:10588000B093E90180E090E0892B21F00E940000B4
:105890006FE2B62E0E94B01880919C09E62FE81B9B
:1058A0008E2F90919D09992329F0E0939E091092E3
:1058B0009D09D9C490919B09E91748F48F5F891716
:1058C00008F0D1C481E083BF889513BECCC481E0C9
:1058D00080939D0960939C09809197099091980904
:1058E00001969093980980939709809199098093E4
:1058F0009A090E94341B809399090E94E2218091A9
:10590000E60181708093E5010E94B0180091EF01DB
:105910001091F0012091F1013091F20168017901BB
:10592000F0E2CF0ED11CE11CF11C21E06C157D05CD
:105930008E059F0508F020E02093F30121111CC083
:105940000E94B0186093EF017093F0018093F10111
:105950009093F2010E94341B61E083FF60E087EFC7
:1059600091E00E9455290E94341B61E082FF60E0B3
:1059700086EF91E00E9455298091F7018F3721F041
:105980008091F6018F3729F481E08093F7018093AD
:10599000F6012091F5019091F7018091F601222303
:1059A00039F019162CF018161CF01092F50123C0CE
:1059B0009E3134F09FE79093F70191E09093F501C9
:1059C0008E3134F08FE78093F60181E08093F5010A
:1059D0008091E4018111F0C48091F7018F310CF0C6
:1059E00047C488E00E947E2381115FC40E946F1427
:1059F000882309F4CEC48091E4019FEF980F93307F
:105A000020F08A50823008F0AFC71091E4018FEF88
:105A1000810F823008F4C9C000E028E130E040E0A6
:105A200050E060E070E080E090E00E94B11E26E36C
:105A300030E040E050E06EE170E080E090E00E94F5
:105A4000B11E27E330E04AE750E067E370E080E012
:105A500090E00E94B11E809100018D3708F4CECEF7
:105A600027E330E04AE750E060E070E01BC088EFD9
:105A7000810F823020F02AE2F22E2DE003C09DE259
:105A8000F92E2AE030E000E04AE750E060E070E004
:105A90008AE790E00E94B11E6F2D70E027E330E0AE
:105AA0004AE750E08AE790E00E94B11E112329F0F6
:105AB00086EF810F823008F0A4CE00E028E345E0B5
:105AC00060E070E08BE790E00E941A2001E023E0A4
:105AD00045E063E370E08BE790E00E941021F12C39
