:100000000C94A8070C94D0070C94D0070C94D0073C
:100010000C94D0070C94D0070C94D0070C94D00704
:100020000C94D0070C94D0070C9479250C94EB25F4
:100030000C94D0070C94D0070C94D0070C94D007E4
:100040000C94D0070C94D0070C94D0070C94D007D4
:100050000C94D0070C94D0070C94D0070C949C18E7
:100060000C94D0070C94D0070C94D0070C94D007B4
:100070000C94D0070C94D0070C94D0070C94D007A4
:100080000C94141A0C94D0070C94D0070C94D0073D
:100090000C94E6180C94D0070C94D0070C94D0075D
:1000A0000C94D0070C94D0070C94D0079C109F1090
:1000B000AB10A810A510A210AE10B110F0F89C8ED5
:1000C0008783878E9CF8F00000FEFF030303030381
:1000D000070EFCF80000FEFF0303030303070EFCFA
:1000E000F80000FFFF00000000000000FFFF00001C
:1000F000FEFF8383838383C7EE7C380000F8FC0E09
:1001000007030303070EFCF800003F7FE0C0808078
:10011000C0E07F3FFFFF01010101010101FFFF007E
:1001200000FFFF0C0C0C0C1C3E77E3C100007FFFAE
:10013000C0C0C0C0C0E0703F1F00001F3F70E0C0E3
:10014000C0C0E0703F1F00007FFFC1C1C1C1C1E35B
:10015000773E1C00001F3F70E0C0C0C0E0703F1F32
:10016000000000000001FFFF01000000D5F08D1429
:10017000A1C881CFD9F1AF200061726475544400E9
:1001800070381C387048381E38481C497F491C4E4E
:100190004F5420454E4F55474820434F494E53003A
:1001A000413A20544F2053454E4420574156450074
:1001B0004A5553542041204255494C44494E47002A
:1001C0004E4F20454E54525920424C4F434B494EBE
:1001D0004700424C4F434B45442041524541004E5D
:1001E0004F5420414C4C4F57454420484552450000
:1001F00041204F52204220544F204558495400443A
:10020000454C45544500464F5245535400412052F9
:100210004F434B0054484520485100515549542004
:10022000454449544F523F0043484F534520545989
:100230005000454449544F52004D00440053454C32
:100240004C00494E464F53005550475241444500DB
:100250004D4158204C4556454C003C003E004C5604
:100260004C000008081C1C08000014141C1C08008A
:1002700000082A2A3E3E08082A2A2A7F7F3E0010CC
:1002800010180C0C000008283C1C0C000014145220
:100290005E3E041414564A7F3F3E0000100C0E06CA
:1002A000000008042C1E06000024120927160C4822
:1002B00024134F2F1F1E0000380E06000000180CDC
:1002C0003E0E00000C023E06370E001C07770F772B
:1002D0001F06001C1C1C1408001C1C1C1C1C1408E1
:1002E0001C1C1C1C3E361C1C1C1C3E7F773E003018
:1002F000383C140800183C1C1E0A0400383C1C1E24
:100300000F1B1E383C3C1F1F3B1F0010381C0A04EB
:10031000006070381C0A04002070381E0F0D076042
:10032000703E1F1F1D0F00383C1A0C000000207883
:100330007C3A0C0000607B7F3D0F0600727F7F3DA2
:100340000F0F0808080808081C0808080808141CEB
:100350000808080814361C0808081436773E1010E0
:100360001008080E18101010080C0A0E1010080EB5
:100370001A1A0E101018171B3B3E00201008040319
:1003800002002010080605030020100E0B0D074088
:10039000201C171B0D0F0000710F020200000070DF
:1003A0000F0503000000661F090F0000037F1709F7
:1003B0000F0E001414141408001414141414141C34
:1003C0001414143636361C1414363636773E0008AC
:1003D000282414180008282414120A0C08282416AB
:1003E000131B1E082C2637333B1E0008042214085A
:1003F0000010084422160C0010084623171E0C108B
:100400000C4723371F1E001806320C000000300C6A
:100410006319060000300F63190F06003E0F6339A1
:100420001F0E0808141408000008081C22140800F5
:1004300008081C2A2A1400081C2A496B36001018C8
:100440001414080000101C1A120C000010183C2A8A
:100450002A1E00101C3A2925171C00201814080019
:100460000040383424180000002C122A261C0000FA
:100470002E132925321C00003C120C0000003C1AEF
:10048000120C0000001C723E120E00001C73392773
:10049000120E0008143E2200000008142A36000044
:1004A000081422497F0000081422495D63000018E7
:1004B000162C302000001816222C300000181623AD
:1004C0002C7000001816212B4C70003E2428302080
:1004D00000003E222C283000003F222C2830200033
:1004E0003F21262C2830000E3428181000000E3230
:1004F00024141800020E3224141808030D31261299
:10050000140C00001C141C0000001C3E363E1C0095
:100510001C3E6B776B3E1C3E635D555D633E000881
:10052000083E0808000808087F0808081C08497FDA
:1005300049081C3C194B7F694C1E444542554720D5
:1005400056455253494F4E0053434F524500474181
:100550004D45204F5645520057454C4C20444F4E78
:100560004500221408142270185F1B730C32263EBB
:100570001C040E362A04484152544D414E4E31332C
:1005800030310050524F4752414D4D454420425961
:100590000000000000806038261616161616263851
:1005A00040C040404040FF013D3D2D353D01FF40F2
:1005B000404040C0403826161696161626386080F1
:1005C0000000000000807C830000382810834583F1
:1005D000102838008083FC8060216204F800F80451
:1005E00062612080FC8380382838008302830010F9
:1005F000281000837C8000E01F000102040808101E
:1006000011111110BC42993C66663C9942BCC87BF2
:100610000A7BC8BC42993C66663C9942BC101211E8
:1006200012100808040201001FE03F404080808053
:100630008040402018040201000001010101000077
:100640000302020202020300000101010100000195
:100650000204182040408080808040403F8040401D
:10066000E06060D06040804040E060E050604080EA
:10067000404060E060D06040806030F03078A8306A
:10068000108060B0703038E83010806030F030F8A2
:10069000283010002090F878BC740C08004020F836
:1006A000783CF40C0800209078B8FC740C081020FA
:1006B0007070F070F86810102070F07070F86810AA
:1006C000202070F070F07868104020F070F8783CCE
:1006D0002C144020F07078F83C2C14402070F078F6
:1006E00078BC2C1400EE1F3BCD00C02E1FFB0D006C
:1006F00000EE1FFB0D0000F60F3DC600C0360FFDDB
:10070000060000F60FFD0600E3970F3DC68403F7D1
:100710008F3DC68403F78FFD8604E6970F3DCE8C90
:1007200006F78F3DCE8C06F78FFD8E0CE39F0F3DB5
:10073000CE9E07F78F3DCE9E07F78FFD8E1E0000E1
:10074000F868A020008078E820200000F8E8202049
:100750000020F868A00000A078E800000000F8E899
:1007600040000000F868A078008078E82078000059
:10077000F8E8207810F8689010109078E8101010C1
:1007800010F8E8101010707820F868807078A07861
:10079000E800707820F8E8000E0A0A1B110A041F0E
:1007A000131F1313170E04040404150A1B0A041163
:1007B0000E00110E52455349535453200049532003
:1007C00046415354200049532044454641554C541A
:1007D000001941400001414C4C4101004041191CAD
:1007E00022455D41221C060B173E1F0F06080C3ADE
:1007F000013A0C0800003B3B2000002C2E2A6B2AFB
:100800003A1A7F3E1C7F3E1C0833000001010000A5
:100810000101006699010000010100000101CC0303
:1008200000040400000404000006010404000004A5
:100830000400000404FA0032005E013200C20164C8
:1008400000F401320000804C043200900132009626
:10085000003200008026026400BC026400B603641B
:100860000052036400008060D0E8687030F8E890BF
:100870006070C8E8F06030E8E8F0600020400000F8
:10088000400000600020000000005064FF5860003D
:1008900000402040081C6C540840E0607C0657066D
:1008A0007C60E0400003000100030001000300FC45
:1008B00006560754047C40F8500003000300010072
:1008C0000100030000960032000080060B080C3285
:1008D0003200003200320000805E013200008000F1
:1008E000FFFEFDFDFDFEFF00010203030302010305
:1008F00003020100FFFEFDFDFDFEFF000102031CDF
:1009000008000008141A0800081420000004125FF0
:100910003C0A961632140F0203020402040100047A
:1009200005030302040104060804060F0214040A66
:100930000C12161E262816000003010201020343B2
:10094000414D5041494E00534F554E44004352458E
:100950004449545300454E454D494553004544498B
:10096000544F52004F4646004F4E004652414D45AF
:100970005320444542554700535550504F52540060
:1009800053484F434B0046524F5354005241494C39
:1009900047554E00464C414D45004C415345520091
:1009A00043414E4E4F4E004D494E4947554E002053
:1009B0006060A0A0300C030C30A0A060602000009C
:1009C000603C130804060408133C600000484947D3
:1009D0004853434F524500205354415253004D4118
:1009E00050204E4545445300534C4F54004C4556FF
:1009F000454C00504C4159004544495400323C4656
:100A0000325A6496B446505050C8504650465078BA
:100A100096505A646E6E645A6E5A64466E785A786E
:100A2000646E645A6EFC0000000FF00000000300CA
:100A300000AC00000003AC00000003EC0004000365
:100A4000E800000000280000C000000000F00000E6
:100A5000000FC0000000000002C00037000280A0AC
:100A60003F280000200000000000000020280000B7
:100A700000A000E800000000E800FF000000000007
:100A80000000030300C3A400000C02A0300000001B
:100A90000000F00000000000003000000000000036
:100AA00030000C00000003000030000F00000000C8
:100AB00000000000000038000000003800000000C6
:100AC000F840000000380003000038000FC00000AC
:100AD000003F0000000000000000000000000000D7
:100AE0000000000000000000ABD000002802C000A1
:100AF00000E800AAAAAABC000000003C0000000018
:100B00000000000000000000000000000F0F028441
:100B1000000F0F028000C0A0F00000F0A0F0000065
:100B20000F0F0000000F0F00000000F00000000099
:100B3000F00000003FFFF000002800A000002202AB
:100B40002000000A1280000000000000000AAA80B5
:100B50000000080080000002AA0000000000000061
:100B600003003008000000000003C830200000002F
:100B700000000400000000000000C80000080000A1
:100B800000800020030000030C00030300000000AD
:100B900000000000FC00000003030000000C00C087
:100BA00000000C10C000000C00C000000303000097
:100BB0000000FC000000000000002C00000008C83D
:100BC0000000002FC3C0003E83C300000AB7C0006E
:100BD0003C0F00000000C0030003C000A8008C0808
:100BE00000AFF2BF3E00FE000000000000A00A06B9
:100BF000A80208208008080880802000000000204B
:100C00000808808080082082008002802800800000
:100C1000000000000C20C200000020C20000000004
:100C2000C2000000000200000000000004000002FA
:100C300000000000C200000020C200000C20C20022
:100C40000000000000000040000000000000000064
:100C50000000000000000000000000000000000094
:100C60000000000000000000000000000000000282
:100C700080000000028A000000000A00000000005E
:100C800000002AAAAAAA8400000030000CC00003B9
:100C900000C000000C30FC0000F000000200020068
:100CA000000200023A00020002CA02020202DC0252
:100CB00002020283AA020202B0F000020000F00069
:100CC000020000FC00020000C00030000F00CC0059
:100CD00000030C00000000003300000003030010BC
:100CE00000000300000000300000000C0CC00000F9
:100CF00000030C000F0000000000000B00040000C7
:100D0000FFC000000203C0000003CB00000003335B
:100D1000C0000000CB00000000BC0000000000008C
:100D2000000000000000002AAAAAAAA820000000D3
:100D30000820000100082000000008A000000008B2
:100D400000000000082AAAAAAAA8000000000000CB
:100D5000F000000003FF0003F4030F000FF03F0357
:100D6000003C00F003C0F000C0030030000000CCE5
:100D7000C00000003F000000000000000000000074
:100D80000002A8812A000200A2208002808A20801E
:100D9000020082208002A8822A00000000000000D9
:100DA00000000000000000000001020408102040C4
:100DB00080FEFEFEFFFF00000101020202FF0001B3
:100DC000FE02FE02FE02FF0001E03E3FA3A33F3E03
:100DD000E007040405050404071E1F09091F1E1F60
:100DE0001F15151F0E0E1F11111B0A1F1F11110FAA
:100DF0000E1F1F151511111F1F050501010E1F11D3
:100E0000150D1C1F1F04041F1F111F1F11000008B8
:100E100011111F0F011F1F040E1F191F1F1010108B
:100E2000101F170E071F1F1F1F060C1F1F0E1F115D
:100E3000111F0E1F1F090907060E1F11091F161F7C
:100E40001F09091F16161715151D0D01011F1F017A
:100E5000010F1F10101F0F070F18180F071F190C75
:100E6000181F1F111B0E0E1B110307041C1F031953
:100E70001D1D171713131B0C061B19020301151751
:100E800006040E1F1B110000111B1F0E040004049A
:100E9000040400121F1F100000121B191D1713114C
:100EA00011151F1F0A0F0F081E1E081717151D1DED
:100EB000090E1F15151D0C0101191D07030A1F1529
:100EC000151F0A061715151F0E0403090412010049
:100ED00002EF02014041233680000101020301417B
:100EE000726475696E6F204C4C4300417264756981
:100EF0006E6F204C656F6E6172646F0005050203B2
:100F000005030404090501050D0C0207080B000286
:100F10000202010009040000010202000005240091
:100F20001001052401010104240206052406000124
:100F30000705810310004009040100020A000000B7
:100F40000705020240000007058302400000453506
:100F500011241FBECFEFDAE0DEBFCDBF11E0A0E06D
:100F6000B1E0E0EEFDE602C005900D92AA34B107B3
:100F7000D9F729E0AAE4B1E001C01D92A63EB2076C
:100F8000E1F717E0C8EAD7E004C02197FE010E940C
:100F9000DC36C73AD107C9F70E94132A0C94EE3603
:100FA0000C9400002F923F924F925F926F927F922B
:100FB0008F929F92AF92BF92CF92DF92EF92FF9269
:100FC0000F931F93CF93DF93CDB7DEB72C970FB658
:100FD000F894DEBF0FBECDBF8091070181110E9442
:100FE0007B223BEE3A83512C9EEFA92EBB24BA9470
:100FF000812C912C3A813B5E3C83FA80F3944A80A9
:10100000140182E0C82ED12C10E0352D31703F83C1
:101010003C813F193E83A5014350510959874887B8
:10102000C50101969B878A87EC80E10E8E2D0E9478
:10103000041D682F813061F480917604E8123DC070
:10104000E12C01E025E042E655E06A857B8532C06F
:101050008230E1F4112309F406C78114910409F4E4
:1010600002C78E81840D0E94041D823009F0FBC6E8
:10107000812F8F0D0E94041D823009F0F4C6842D4B
:101080000E94041D823009F0EEC6D1C68330A9F457
:10109000812F0E949A36D101A90FB11DCD0166E0C2
:1010A00070E00E94C83604E0080FEF8025E047E6B4
:1010B00058E0B501C6010E941F131F5FB6E0CB0EBA
:1010C000D11CEFEF2E1A3E0A4394143109F0ACCF35
:1010D000FFEF8F1A9F0A26E0A20EB11C5394352D04
:1010E0003170532E3A813C5E3A8349E08416910474
:1010F00009F080CFB8EDEB2EB3E0FB2E16EDA12E5C
:1011000013E0B12E07ED402E03E0502E89ED93E061
:101110009B838A83D7018C9183FFFBC1F20180817D
:10112000182F12951F70133009F050C09091FF01D5
:1011300091114FC09091CF01992309F44AC0182F03
:101140001F708091610982FD24C08091600982FF37
:1011500020C08DC62F5F3F4F35962C333105C9F027
:10116000908193FDF7CFF5E0F29FD001F39FB00D92
:101170001124A15EBD4F0C931196DC9211978863E8
:1011800012968C93129713961C9313978AEF1496CA
:101190008C930E94621481118EC10E94871A84FF71
:1011A00004C081E08093E4091F5F0E94871A87FFD3
:1011B00004C081E08093E40911501F70D2018C912A
:1011C000807F182B1C930E944D1475C1173009F4B1
:1011D00072C160E0C5010E94CB14282FF701808105
:1011E000C82EC294AFE0CA2290910002992369F000
:1011F000CC2019F0CA94C11008C09BEF910F923017
:1012000018F48460D7018C93C12C2F3F09F453C18B
:10121000F501808164E10E949A36082FD92EDD0CF9
:101220009D0D990FF7E0DF2ED90E880F080F000FE4
:101230000A5FF8E02F0290011124A9014D5C564F7E
:101240005D834C83DA019C90939493949F821196D2
:101250002C912B5F2887F2014081342F3F7016308C
:1012600008F0A4C0602F621BE92DED1919F4662364
:1012700009F465C00E2E000CFF0B062E000C770B38
:1012800077FF05C071956195710921E001C020E0EB
:10129000F7FF04C02E5FF195E195F1095DE2E617D5
:1012A000F70748F45E9FC0015F9F900D11240E94D4
:1012B000B436205F08C0569FC001579F900D11247F
:1012C000BF010E94B436673160F06D3208F0F7C597
:1012D0006A3208F0F6C5663208F0F5C5613270F082
:1012E0000BC0623008F4EBC5663008F4EAC56A301A
:1012F00008F4E9C56F3010F483E001C084E0680FA2
:10130000711D24FF05C08AE590E0861B970BBC0188
:10131000822F817021FF0BC0882319F06C547F4FFE
:1013200010C0A4EBB0E0A61BB70BBD010AC0882318
:1013300041F0E8E6F1E0E61BF70BBF0102C060E018
:1013400070E0F4E6F69FC001F79F900D11248B59D1
:101350009B4F6AEC78E00E94B4366F70361739F113
:10136000631740F480E1831B860F932F961B981719
:101370008CF012C0262F231B862F90E0831B91092F
:1013800041971CF080EF820F03C080E1830F861B22
:10139000821714F4315001C03F5F832F8F70407F5C
:1013A000482BD2014C93361386C001C0632F862F81
:1013B00090E0FC01E151F74F34903D0CFC01E1520B
:1013C000F74F6490600E6E826983F7018081F82F79
:1013D000F3702F2E153019F482FD77C505C0163035
:1013E00009F0BEC582FDC6C56C2DC7010E94EE1175
:1013F000C11061C080910002882369F0143039F077
:10140000E12FF0E0E553F74F6491621901C061E00C
:10141000C7010E94EE118091FF01882391F01230E4
:1014200018F485EC98E00BC08EEF810F823018F431
:1014300089ED98E004C0143021F483ED98E00E9417
:101440006D1AEA81FB8100819980E1E2F2E040E0DF
:1014500050E0908193FD29C0F5E0F49F9001F59F45
:10146000300D1124A901415E5D4F6A019B7F986098
:10147000DA0112969C9312973C92EE811196EC93AE
:10148000612FC9018F5D9D4F0E94EE11D60112960A
:101490008C9112978C7F282A12962C921297139671
:1014A0009C92139714960C9306C04F5F5F4F35962E
:1014B0004C33510571F6F501808164E10E949A3642
:1014C000D92EDD0CD90EDD0CD394D394182F110F27
:1014D000180F110F1F5FD7010C910370F201C0802C
:1014E000C294EFE0CE22402F612F8D2D0E94FF127B
:1014F000F8E0CF1206C06091FE01C5010E94991567
:1015000008C0D2012C912F704C2D612F8D2D0E947F
:10151000F113B4E0EB0EF11CE4E0AE0EB11CF4E00C
:101520004F0E511C2A813B812C5F3F4F3B832A8306
:1015300038E7E31634E0F30609F0ECCD8091FF01C3
:10154000873089F44FE1A42E42E0B42E50E2E52E1C
:1015500052E0F52E62E2862E62E0962E71E2C72EF0
:1015600072E0D72E80C213E3A12E19E0B12E04E35E
:10157000402E09E0502E86E3882E89E0982E99E3CC
:10158000C92E99E0D92E25E0622E36E0232E312C8B
:1015900080910401823009F4DFC00091180210919B
:1015A000190220911A0230911B02409101025091C0
:1015B0000202609103027091040240175107620712
:1015C000730708F4C9C081113FC085E080931E02F3
:1015D000A09117028091C501E1E020E233E040E0F4
:1015E00050E090E06E2F70E08617970774F0B1E43A
:1015F000EB9FB00111247B01770F000B110B2E0D17
:101600003F1D401F511FEF5FEDCFB0E00E945636E7
:1016100024E630E040E050E00E94693630931D023D
:1016200020931C028091C401813059F4C901969520
:10163000879596958795281B390B30931D0220932B
:101640001C0281E08093040180E090E020E0FC0136
:10165000ED5CF64F368136FD2F5F08968832910596
:10166000B1F7211131C080911E0281112DC08091EE
:10167000FF01882321F085E598E00E946D1A82E041
:10168000809304018091C5018F5F8093C5018E31E5
:1016900039F40E9431140E94DA1687E08093FF012A
:1016A0008091C50166E00E949A369093C4018091B2
:1016B000FF018350853018F484E00E9471118091FD
:1016C000C401853009F486C410911E02112309F467
:1016D00043C0115010931E028091C401853009F05F
:1016E000182F0E941136A9E3B9E0E0E0F0E02C9158
:1016F00026FD1AC0A3E0EE0FFF1FAA95E1F7ED5CEF
:10170000F64F2064268364E070E00E94C83688505B
:10171000808386E181831283138280911C029091E1
:101720001D029583848305C031961896E530F10536
:10173000F1F68091010290910202A0910302B09112
:1017400004024E96A11DB11D8093180290931902B8
:10175000A0931A02B0931B02F601008106FF73C129
:1017600080910002882329F034978081813009F02C
:101770000BC1D4011C91612F62956F7029F06150EB
:10178000C4010E94EE1100C1133008F07DC0F201C7
:101790009081D5018C9122E0280F223014F400E0D2
:1017A00058C085E0890F66E00E94A636082F822F78
:1017B000220F990B0197B1010E94C836862FE62EA1
:1017C000602F0E947F1C782E0E94113662E070E02C
:1017D0000E94C836F82E99279C012F5F3F4F3B830C
:1017E0002A8331E03E0D3C834FEF4E0D4F835FEF78
:1017F000500F588791E0900F9E838F2D90E02A81A3
:101800003B8128173907F4F0F0FE0DC068858E2D56
:101810000E947F1C8715C0F06E818E2D0E947F1C58
:10182000871570F413C0602F8C810E947F1C871570
:1018300008F4B5CF602F8F810E947F1C871540F080
:10184000F394DBCF04E005C001E003C003E001C076
:1018500002E0D4018C918F7063E00E949A36990F58
:10186000402F092E01C0440F0A94EAF723E030E02C
:1018700001C0220F9A95EAF7822F8095F601908198
:101880008923842B808318C0812F63E00E949A36BD
:10189000492F440F23E030E0042E01C0220F0A94A8
:1018A000EAF7802F8223082E000C990B02C0959531
:1018B00087954A95E2F7082FD2018C918B5F66E0FD
:1018C0000E94A636482FF50180818E5F282F880F51
:1018D000330BC9010197B1010E94C836862F642FCE
:1018E0000E947F1CD50117968C930430E9F48091F7
:1018F000FF018823A9F08091C8018B3040F08A5005
:101900008093C80187E498E00E946D1A09C0109284
:10191000C8010E9431140E94DA1687E08093FF010B
:10192000F60180818F7B8083D4018C91153019F46E
:10193000807F8C9306C01F5F1F70807F182BF4017F
:101940001083011108C0D5018C918F5F8C93F60133
:1019500080818F7718C0013039F4D2018C9118162C
:101960009CF481508C9310C0033021F4F2018081EB
:101970008F5F09C0023041F4D5018C9181508C9366
:10198000F601808180688083D6018C91E82EF12C4D
:1019900086FF59C0C701880F892F881F990BB82F60
:1019A000B170EB2EF40180818F7063E00E949A3653
:1019B00010911602F60134973081D2016C91F50135
:1019C0008081112331F0113039F04DE556E029E0E6
:1019D00006C04EE357E002C044EE56E026E0032F77
:1019E000000F300F032F090F062E000C770B082E67
:1019F000000C990B0E941F13D2012C91113009F495
:101A0000225080911C0290911D0267E070E00E94BC
:101A1000B43661157105B9F0F501848195810E9494
:101A2000B43641E0460F622F220F770B88E090E03A
:101A3000841B9109308100E021E0830F911D37FD67
:101A40009A950E94A6206A94F8E0AF0EB11C28E097
:101A5000420E511C38E0830E911C48E0C40ED11C8C
:101A6000611096CD6FCDD6013C9133FFE3C0F401F8
:101A70002081822F8F7090E0FC01E151F74FE491BB
:101A8000D5014C910E2E000CFF0BE40FF11D47FD0C
:101A9000FA95EC93FC01E152F74FE491D7018C9158
:101AA0000E2E000CFF0BE80FF11D87FDFA95EC934D
:101AB00032953F70343071F4122F12951F706FEF12
:101AC000610FC4010E94EE11111104C0F601808162
:101AD000877F8083D5018C913FEF380F3A3708F02C
:101AE00084C2F701908198330CF07FC2D6019C919B
:101AF00092959F70923041F198F49923B9F091300A
:101B000009F098C0D7016C91062E000C770B00E00D
:101B100022E042E0082E000C990B0E94A6208AC009
:101B2000933009F466C09430D9F084C0F701408145
:101B3000042E000C550B682F880F770B20E08BE5E7
:101B400099E00E94451C76C0F7016081062E000CCA
:101B5000770B41E0082E000C990B0E94C41F6AC04D
:101B6000D4018C9182958F7005E0081B02300CF433
:101B700002E0F7018081002E000C110B2801430EBA
:101B8000511CF1E84F1651040CF054C022242A9441
:101B9000280E020D111D013411050CF04BC0632EEF
:101BA000712C641475040CF045C0322CA32FA17065
:101BB000AA83432D50E040175107CCF437FD15C0E0
:101BC0002FE3231590F0832D81709A81992319F0CA
:101BD000811103C00AC0811108C020E0B3018BE568
:101BE00099E03C870E94451C3C853394E2CF3F5FDF
:101BF000D6CFF7016081062E000C770BD401EC9153
:101C00002E2F30E0F901E152F74F4491082E000CDD
:101C1000990BF901E151F74FE4919B01240F311D1C
:101C200047FD3A95AC014E0F511DE7FD5A9500E076
:101C30000E943D1FB5E0CB0ED11CE5E0AE0EB11CFD
:101C4000F5E0EF0EF11C25E0820E911C3BE4A3169B
:101C500033E0B30609F007CF5CE4E52E51E0F52E42
:101C600063E0862E912CA12CB12CD7010C9103FF9F
:101C700033C002950F70F70131976081062E000C7A
:101C8000770B6E5F7F4F31978081082E000C990B88
:101C900024E04FEF58E003960E940F136091010279
:101CA000709102028091030290910402A5019401B7
:101CB0000E946936672B682B692B71F4F7018081CC
:101CC000682F62956F70633028F46F5FC7010E94C0
:101CD000EE1102C0877F8083B3E0EB0EF11CE4ECD1
:101CE000EE16E1E0FE0609F623E3C22E29E0D22E2D
:101CF000E12CF12C35E0332E44E6842E912CA12CDE
:101D0000B12CF701ED5CF64F868186FF6CC08181B6
:101D1000D6012C91E1E2F2E000E010E030E0290190
:101D2000B5E04B0E511C90E03C0145E0640E711C87
:101D3000408143FF1BC0DF0112976C91062E000CFF
:101D4000770B4616570694F011964C91042E000C12
:101D5000550B6416750654F06B5F7F4F621773075F
:101D60002CF04B5F5F4F481759073CF40F5F1F4F34
:101D700035960C331105E1F636C0309EF001319EE8
:101D8000F00D1124E15EFD4F8281282E22949FE008
:101D900029222481E22DF0E0E15FF64FE491837087
:101DA00090E00196E89FD001E99FB00D11242D012C
:101DB0000B2E000C66087708222359F030E00E94B1
:101DC000E236A50194010E946936420E531E641E3C
:101DD000751E422DB201C6010E9411128DEF820DB7
:101DE000823008F007C158E0E50EF11C88E0C80E0B
:101DF000D11C98E2E916F10409F083CF2C960FB6B6
:101E0000F894DEBF0FBECDBFDF91CF911F910F9130
:101E1000FF90EF90DF90CF90BF90AF909F908F900A
:101E20007F906F905F904F903F902F900895360174
:101E3000A6E06A1A710801E02BE04BE0688579851D
:101E4000C3010E94A620E0FC03C049E958E002C09B
:101E50004FEA58E0E12C0BE02BE068857985C3015F
:101E60000E94D81A2AC9EF80022D03701FC9F501FC
:101E70008081212F30E0F901E151F74F049164E1B5
:101E80000E949A36E92FEE0F9E0F990F995F090F66
:101E9000F901E152F74FE491282F220F820F880FAA
:101EA0008A5FD82EDE0E89ED98E00E946D1AD70168
:101EB0008C918370E1E2F2E020E030E051C980E0F3
:101EC0001ECA81E01CCA82E01ACAC5010E94FA112A
:101ED000EA81FB812081E4E1F9E03491822D90E0F8
:101EE0000196389FD001399FB00D11243D010B2E72
:101EF000000C88089908222369F030E00E94E2363D
:101F000024E630E040E050E00E946936620E731E25
:101F1000841E951E45E0B3018C819D810E941112A3
:101F200080910002882309F4C6CA8091FF018823AA
:101F300021F089ED98E00E946D1A4885242F440F06
:101F4000330B8F81482F880F550B9E81692F990F76
:101F5000770B00E0832D330C990B0E943D1FABCA19
:101F6000143009F041CA65E0620DCE0101960E946D
:101F7000EE113ACAC5010E94FA1161E0C5010E9442
:101F8000CB1480910002882309F495CAD7016C9183
:101F90006370F201808182958F700E94B814D7011E
:101FA0009C91492F42954F709370990F985F491BF0
:101FB000480F8091FF01882331F083ED98E04C8732
:101FC0000E946D1A4C85602F70E08D2D90E00E946C
:101FD000C41F71CA80911602823020F48F5F8093F3
:101FE000160272CB109216026FCBD6019C91977F8E
:101FF0009C937CCDB1E02B120DC0309EF001319E40
:10200000F00D1124E15EFD4F8281982F9460928340
:1020100082FFE9CE309EF001319EF00D1124E15E89
:10202000FD4F8281877F8283DECE80912E098823B7
:1020300041F080912D0990E0880F991F8F509F4F9C
:10204000089580912C0990E0880F991F875E9E4F1C
:102050000895EF920F931F93CF93DF938091C60162
:102060009091C7016AEF70E00E94B436C62FD0E0AD
:1020700018E0DC1770F4E12C00E12FE04FEA59E0A2
:1020800063E070E0812F90E00E94D81A1C5EDF5F51
:10209000F0CFDF91CF911F910F91EF900895809134
:1020A00001018A3718F0815080930101809101016C
:1020B000881F8827881F089580910101843818F4AB
:1020C0008F5F8093010108950F9300E02EE130E0CF
:1020D00048E450E060E070E088E490E00E943D1F3A
:1020E00020E430E048E450E062E270E088E490E010
:1020F0000E943D1F2EE130E04FE450E06EE170E0C1
:1021000088E490E00E943D1F22E230E04FE450E07E
:1021100062E270E088E490E00E943D1F0F91089514
:10212000E091FE018E2F90E088309105F0F4FC01E3
:10213000EA5AFF4F0C94DC3687EA99E014C080EA33
:1021400099E011C08AE999E00EC084E999E00BC0DA
:102150008CE899E008C086E899E005C080E899E03D
:1021600002C088E799E00C948C210895FC0140811D
:102170005181CA01861B970BBC019C0197FF04C0CB
:1021800022273327281B390B283031052CF03595B1
:1021900027953595279501C021E077FF03C0420FB1
:1021A000511D04C0672B21F0421B5109518340830C
:1021B0000895FF920F931F93CF93DF9316E110932F
:1021C0002F0983E0809330098BE699E00E948C21EF
:1021D000C091D00140E1C49FE0011124BE018FE411
:1021E00093E00E94B61080914F03909150038C179A
:1021F0009D07D9F48091D001882349F010932F09CD
:102200008AE3809330098AE592E00E948C218091D4
:10221000D001843050F484E580932F098AE38093C1
:1022200030098CE592E00E948C2100E210E0C0E0D1
:10223000DCEF8AE3F82E20914F03309150034D2FAD
:102240004203C001439F900D1124800F911F9C01F8
:1022500020583F4F2F3F310509F0F0F480932F09AC
:10226000F0923009C23071F018F4C13041F004C06E
:10227000C33059F0C43061F08FE399E00BC08DE5B5
:1022800099E008C085E599E005C08DE499E002C0B9
:1022900087E499E00E948C21CF5F005C1F4FC5301E
:1022A00051F68091D0018430B1F48FE580932F09ED
:1022B0008AE3809330098091CE01882319F088E663
:1022C00099E002C084E699E0DF91CF911F910F91D0
:1022D000FF900C948C21DF91CF911F910F91FF9073
:1022E000089592E39093C30190910601911103C068
:1022F00096E99093C3018093C2010895CF93DF9331
:10230000D82F81E08093070184E68093C801109262
:10231000C501109216021092C40110921802109278
:10232000190210921A0210921B0282E0809304019B
:102330008091FF018350853018F484E00E94711170
:102340002D2F30E0F901EF5EF54FE491E093170295
:102350008091FF01813061F4F901E350F64FE4917F
:10236000F0E0F093CC01E093CB01E8EDF3E007C09F
:1023700084E690E09093CC018093CB01F6CF8081EE
:10238000877F8083349684E0E837F807C1F7E9E374
:10239000F9E090819F7B9083389689E0E136F807D9
:1023A000C1F7ECE4F1E09081977F9083339681E070
:1023B000E43CF807C1F7C0E06D2F8C2F0E94C71CCA
:1023C000813011F4C0937604682F8C2F0E948F1CEB
:1023D000CF5FC43B89F7DF91CF910895FC01962F21
:1023E0006081262F2F7080E1989FB0011124622B0D
:1023F00060830895FC0180910002811111C09281D7
:10240000692F62956F70292F2370220F285F621742
:1024100028F46E5FCF0102960C94EE119B7F92839D
:102420000895AF92BF92CF92DF92EF92FF920F93F7
:102430001F93CF93DF931F92CDB7DEB75C018B0163
:10244000423069F4DC0113966C9162956F706D30C7
:1024500030F46D5F039649830E94EE1149810115A6
:10246000110509F496C0E42FF0E0E95CF64FE49121
:10247000D50112968C91823019F4E1110CC009C07B
:10248000833019F4E13039F404C0843021F4E230AF
:1024900011F4169507954450433008F07CC08091A4
:1024A000010290910202A0910302B0910402837094
:1024B0009927AA27BB27892B8A2B8B2BB9F46BC0B2
:1024C0002F5F3F4F33962832310581F0808183FDA5
:1024D000F7CFF901EE0FFF1F2E0F3F1FF901E65B4B
:1024E000FE4F8860908341838F708283F5018481E1
:1024F00095810817190728F4801B910B9583848315
:1025000048C06091C50181E020E233E040E050E046
:1025100070E0E82FF0E06E177F0774F0F1E48F9F12
:10252000600111240D2C000CEE08FF082C0D3D1D40
:102530004E1D5F1D8F5FEDCFA4E6B0E00E945636C2
:1025400024E630E040E050E00E946936C90160E9CD
:1025500071E00E94B4368091CB019091CC01680F5C
:10256000791F683E83E0780728F47093CC0160936C
:10257000CB0106C087EE93E09093CC018093CB0112
:10258000D50116968C9116978F7B16968C9381E0C9
:102590000AC080E008C0F50141819081ECE4F1E0DF
:1025A00020E030E093CF0F90DF91CF911F910F91FA
:1025B000FF90EF90DF90CF90BF90AF9008950F9372
:1025C0001F93CF938C010E941B28C82FC80101962E
:1025D0000E941B282C2F30E0322F2227A901480F00
:1025E000511DCA01CF911F910F9108950E9415109E
:1025F0000E94DF129093C7018093C60108950F9344
:1026000003E0041B91E0423008F090E0090F70E015
:102610002BE04BE090E00E94C8200F910895CF92EC
:10262000EF920F93FB013896E934F10520F4C12CA9
:10263000E12C0E94501D0F91EF90CF900895CF9202
:10264000EF920F93FB013896E934F10518F4C12C91
:102650000E94501D0F91EF90CF900895CF92DF927E
:10266000EF920F93CF93C82F6B01E12C02E027E08C
:1026700041ED57E069E370E090E00E941F13EFE244
:10268000F9E0C85FC0838AE38183C601CF910F91CF
:10269000EF90DF90CF900C943D212F923F924F927C
:1026A0005F926F927F928F929F92AF92BF92CF92E2
:1026B000DF92EF92FF920F931F93CF93DF9300D09F
:1026C00000D000D0CDB7DEB73A01222309F470C0A4
:1026D000002309F46DC0AB823C2D502F022F4B011B
:1026E0005C012E9D70011124822F90E0079623E05B
:1026F000959587952A95E1F7089F202D11242A8327
:102700000150C12C452E512C515059831E821D82DF
:1027100017012C0C311C8D814D815E8144155505AE
:1027200009F442C09D81969596959695F1014A814E
:10273000499FE00DF11D1124E60DF71DE491F0E035
:102740009D81977002C0F595E7959A95E2F7E0FFB5
:1027500025C0313061F040F0323061F0333069F43F
:102760001981181BDC2C09C01C2DDD8006C01D81C1
:10277000D02E03C0102FD980D81A2B81A4014D0D63
:10278000511DD7FC5A95B501610F711D17FD7A9542
:102790008BE599E03C830E94451C3C818D819E81A4
:1027A00001969E838D83B7CFC394015008F0AECFBE
:1027B00026960FB6F894DEBF0FBECDBFDF91CF9146
:1027C0001F910F91FF90EF90DF90CF90BF90AF904F
:1027D0009F908F907F906F905F904F903F902F9041
:1027E0000895AF92CF92DF92EF920F938E5F6E5F5C
:1027F0000370062E000C770B082E000C990B463048
:1028000008F5322F3370E32EEE0CEE0C0E0D30E196
:10281000439F000D112438EF320F3430B8F0269565
:102820002695C22ED12C22E0C20ED11C33E0C32249
:10283000DD24A12CE02E07E027E042E652E00E94D2
:102840004D1309C0440F440F040F085B27E042E614
:1028500052E00E940F130F91EF90DF90CF90AF9056
:1028600008958091C5012091C80193E0299F9001AE
:10287000112494E1899F200D311D11248091CB01F9
:102880009091CC016AE070E00E94B436260F371FA9
:102890003093C7012093C60108958091E4098823ED
:1028A00081F00E949018DC01CB018A569F4FAF4FF8
:1028B000BF4F80934B0390934C03A0934D03B09371
:1028C0004E030895CF92DF92EF92FF921092E409A7
:1028D0000E94901821E0C0904B03D0904C03E090F0
:1028E0004D03F0904E036C157D058E059F0508F095
:1028F00020E0822FFF90EF90DF90CF900895282F57
:1029000030E0F901E15DF64F8491F901E95DF64FA0
:102910002491869F800D1124269F800D11240895F7
:102920000F931F93CF93C0E000E010E08091CA01A5
:102930008C1748F06C2F8091C9010E947F14080FFA
:10294000111DCF5FF3CFC80196958795CF911F9149
:102950000F9108956091CA01633038F46F5F8091E0
:10296000C9010E947F1490E008958FEF90E00895D0
:10297000282F30E0F901E15EF64F8491F901E95E1C
:10298000F64F249190E0880F991F0A969927269F69
:10299000800D112408952F923F924F925F926F9273
:1029A0007F928F929F92AF92BF92CF92DF92EF92DF
:1029B000FF920F931F93CF93DF938C01862E83E3B7
:1029C000E82E89E0F82ECAE3D9E0D12C99249A9414
:1029D000CC24CA9497E0292E312CFE0131978081B6
:1029E00086FF8BC0F80162816370818182958F7050
:1029F0000E94B814A82FF801808164E10E949A36E1
:102A0000482F440F480F440F4A5F50E0692F660F6C
:102A1000690F660F695F70E0F7018081E2E0E80FFF
:102A2000F0E09B012E1B3F0B121613061CF09F01BA
:102A3000261B370BFE01369760816B5F70E0FA0151
:102A4000E61BF70B1E161F061CF0FB01E41BF50B23
:102A5000AA2EB12CA216B30608F44FC0AE16BF06BC
:102A600008F44BC04AE0A49FC0011124B1010E94A8
:102A7000C83677272617370718F4E617F70770F0D8
:102A8000229F802D1124EE9F800D1124823010F0A2
:102A90000E94F61D90E08A159B057CF5882041F187
:102AA000F8012381E5E1F9E03491F8018281837036
:102AB00090E00196389FD001399FB00D11242D016F
:102AC0000B2E000C66087708222369F030E00E9484
:102AD000E23624E630E040E050E00E946936420EE3
:102AE000531E641E751E46E0B201C7010E941112FA
:102AF0008881891510F4CD2C982ED394F8E0EF0E30
:102B0000F11C289645E0D41268CF8C2DDF91CF912F
:102B10001F910F91FF90EF90DF90CF90BF90AF90FB
:102B20009F908F907F906F905F904F903F902F90ED
:102B30000895CF93DF93EC01862F9A81692F6370FC
:102B40000E94B814482F888164E10E949A36682F49
:102B5000880F680F660F6A5F70E0892F880F980FE3
:102B6000990F87E0890F90E0DF91CF910C94C41FFB
:102B70008091E50986958B5F0895CF92DF92EF9261
:102B80000F931F93CF93DF93182F8091FF01813014
:102B900009F446C0823009F045C08CE080932F09CB
:102BA000C9E3C09330098AE592E00E948C2184E356
:102BB00080932F09C09330098CE592E00E948C210C
:102BC00086E180932F09C093300980910501882305
:102BD00019F188EF99E00E948C2132E1C32ED12CAB
:102BE000C0E0E12C0C2F25E042E655E069E070E002
:102BF000C6010E941F13CF5F87E0C80ED11CC430EE
:102C000081F70BE02BE04FEA58E067E070E080E3EB
:102C100090E00E94D81A06C083EF99E00E948C21B0
:102C20000E9429108AE080932F0986E18093300961
:102C30008091FF01813019F48DEE99E002C088EE99
:102C400099E00E948C21C12FD0E0CE0101960E9414
:102C50003D2185E080932F0982E2809330090E9414
:102C6000B815181315C08EED99E00E948C218AE0EA
:102C700080932F098CE280933009CE010497880F4E
:102C8000991F0E943D2187ED99E00E948C2110C080
:102C90008DEC99E00E948C2188E180932F098CE2D1
:102CA000809330098091C6019091C7010E943D2117
:102CB0008091FF018130A1F5C12CE12C01E025E0DC
:102CC00040E851E067E370E085E090E00E94501D2D
:102CD0008CE080932F0919E3109330098091E50966
:102CE00090E00E943D2102E027E041ED57E068E3DB
:102CF00070E088E290E00E941F1381E380932F0927
:102D000010933009FE01E350F64F849190E0DF917B
:102D1000CF911F910F91EF90DF90CF900C943D21B8
:102D2000DF91CF911F910F91EF90DF90CF90089599
:102D3000EF92FF920F931F93CF93DF931F92CDB724
:102D4000DEB77C01FC0100811181C80169830E940A
:102D500021366981681719F0C8010E942936C70118
:102D60000F90DF91CF911F910F91FF90EF900895F9
:102D7000FF920F931F93CF93DF9300D0CDB7DEB7B1
:102D80008C01F62E672F9A838983CE0101960E94CB
:102D900098160F5F1F4F1A8309836F2DCE0101967E
:102DA0000E9498160F900F90DF91CF911F910F9175
:102DB000FF900895CF93DF930E941510EC010E94BD
:102DC000DF126091C6017091C7018617970728F43A
:102DD000CE01DF91CF910C94B816DF91CF91089579
:102DE000CF92DF92EF92FF920F931F93CF93DF93D7
:102DF0006C017A018B01C0E0D0E0CE15DF0589F0CF
:102E0000D8016D918D01D601ED91FC910190F08179
:102E1000E02DC6010995892B11F47E0102C021968F
:102E2000ECCFC701DF91CF911F910F91FF90EF90F1
:102E3000DF90CF9008953FB7F8948091D0039091A0
:102E4000D103A091D203B091D30326B5A89B05C0AE
:102E50002F3F19F00196A11DB11D3FBFBA2FA92F19
:102E6000982F8827820F911DA11DB11DBC01CD0196
:102E700042E0660F771F881F991F4A95D1F7089582
:102E800085ED8093BC008091BC0084FDFCCF109246
:102E9000A503089540917F03262F30E0240F311DB4
:102EA00021323105DCF42091A5032430C9F4FC0162
:102EB00080E090E0861758F430917F032191DC0187
:102EC000A35ABC4FA30FB11D2C930196F3CF809151
:102ED0007F03680F60937F0380E0089581E0089589
:102EE00082E0089508958FEF9FEF08958FEF9FEF91
:102EF000089580915C0390E09195819591090895E2
:102F0000CF93DF9300D0CDB7DEB7CB01642F4983D9
:102F10005A830E944A174981842F5A81952F0F9016
:102F20000F90DF91CF910895CF93DF931F92CDB78C
:102F3000DEB7698361E0CE0101960E944A1781E005
:102F400090E00F90DF91CF91089580915603E0912A
:102F50005403F0915503882349F0CF0102969093D2
:102F6000550380935403859194910895CF0102965F
:102F70009093550380935403808191810895CF925B
:102F8000DF92EF92FF920F931F93CF93DF930E94F4
:102F9000A517811520E8920759F4809171008D7F63
:102FA00080937100109291004698109253036BC069
:102FB00021E020935303813020E8920751F480915F
:102FC00051039091520390935503809354030E94B0
:102FD000A517EC01DF77209769F4469881E080938C
:102FE00057033FE9C32E3FE0D32EE12CF12CCAEF6B
:102FF000D0E014C08E0120E030E060E472E48FE0A5
:1030000090E0A90198010E94373669017A0181E0B8
:10301000C81AD108E108F10810925703E09131096C
:10302000F09132090995811103C081E08093570323
:103030000E94A517009771F09C01DE010E948B365B
:10304000DC01CB0129E0B595A795979587952A9541
:10305000D1F703C08FEF9FEFDC01109290002AE0C0
:1030600020939100D0929900C092980080935803C9
:1030700090935903A0935A03B0935B03809171001E
:10308000826080937100DF91CF911F910F91FF902B
:10309000EF90DF90CF9008958091CE01089508952C
:1030A000089580E090E008950E94E9368F929F9203
:1030B000AF92BF92CF92DF92EF92FF926B017C01B1
:1030C0000E941B174B015C01C114D104E104F104FF
:1030D000F1F00E941B17DC01CB0188199909AA099C
:1030E000BB09883E9340A105B10570F321E0C21AE7
:1030F000D108E108F10888EE880E83E0981EA11C33
:10310000B11CC114D104E104F10419F7DDCFFF9023
:10311000EF90DF90CF90BF90AF909F908F900895E9
:103120002FB7F8946091CC037091CD038091CE03BA
:103130009091CF032FBF08951F920F920FB60F9259
:1031400011242F933F938F939F93AF93BF938091BD
:10315000CC039091CD03A091CE03B091CF033091D9
:10316000CB0323E0230F2D3720F40196A11DB11DC1
:1031700005C026E8230F0296A11DB11D2093CB03A5
:103180008093CC039093CD03A093CE03B093CF0351
:103190008091D0039091D103A091D203B091D30339
:1031A0000196A11DB11D8093D0039093D103A093EC
:1031B000D203B093D303BF91AF919F918F913F9171
:1031C0002F910F900FBE0F901F9018951F920F9286
:1031D0000FB60F9211242F933F934F935F936F93EA
:1031E0007F938F939F93AF93BF93EF93FF938091C0
:1031F000B900887F803609F49CC068F5883209F4EC
:103200005BC090F4803109F454C038F4882309F489
:10321000F6C0883009F44DC0F6C0883109F44CC0BE
:10322000803209F45DC0EFC0803409F468C048F40E
:10323000803309F455C0883309F0E5C08093A403B6
:10324000D8C0803509F44FC0883509F45DC0883492
:1032500009F0D9C0D6C0883909F4C7C0A8F48837A6
:1032600009F467C038F4883609F463C0803709F47C
:1032700060C0C9C0883809F4B8C0803909F45FC09B
:10328000803809F0C0C05BC0803B09F486C038F4C8
:10329000803A09F466C0883A09F47FC0B4C0803C23
:1032A00009F4A7C0883C09F4A4C0883B09F48AC08B
:1032B000AAC08091CA0310C09091C9038091C8032D
:1032C000981770F5E091C90381E08E0F8093C903D0
:1032D000F0E0E855FC4F80818093BB0085EC86C010
:1032E0008093A4038EC0E091C90381E08E0F809388
:1032F000C9038091BB00F0E0E855FC4F80839091BA
:10330000C9038091C8036EC0E091C90381E08E0FAC
:103310008093C9038091BB00F0E0E855FC4F8083A7
:103320008091A70381116DC081E08093A60384EA98
:1033300061C083E08093A5031092A303CFCF809157
:10334000A303803208F051C0E091A30381E08E0F07
:103350008093A3038091BB00F0E0ED57FC4F808386
:10336000BDCF85EC8093BC001092A5038091A30390
:10337000803230F4E091A303F0E0ED57FC4F10826F
:103380006091A30370E0E0918103F091820383E8F0
:1033900093E009951092A30336C084E08093A503BF
:1033A0001092800310927F03E0917D03F0917E03E1
:1033B000099580917F03811105C081E080937F038F
:1033C00010925D03E091800381E08E0F8093800373
:1033D000F0E0E35AFC4F80818093BB009091800322
:1033E00080917F03981708F479CF85E88093BC001B
:1033F0000AC085EC8093BC001092A50304C0109213
:10340000A4030E944017FF91EF91BF91AF919F914C
:103410008F917F916F915F914F913F912F910F907D
:103420000FBE0F901F9018951F920F920FB60F921C
:1034300011242F933F934F935F936F937F938F93B9
:103440009F93AF93BF93EF93FF9380915803909115
:103450005903A0915A03B0915B03892B8A2B8B2BC4
:1034600049F180915703811104C098B180E4892704
:1034700088B98091580390915903A0915A03B09153
:103480005B03181619061A061B06B4F4809158033C
:1034900090915903A0915A03B0915B030197A10940
:1034A000B1098093580390935903A0935A03B093A2
:1034B0005B0302C00E94BF17FF91EF91BF91AF91D4
:1034C0009F918F917F916F915F914F913F912F913C
:1034D0000F900FBE0F901F9018959C01E1E7F0E050
:1034E00090819D7F908381E08093560330935503B4
:1034F0002093540330935203209351030C94BF172D
:103500002D9A0895BC0180E090E00C9456188FB17C
:103510008095807F669B88601C9B846008953E9A9E
:103520003F9A81E08093CE010895FC01840F911DA4
:1035300018161906E4F5E038F105CCF5F7FF02C0DE
:10354000E0E0F0E08138910514F080E890E0382F59
:103550003E1BAB0177FF02C0495F5F4F83E055958B
:1035600047958A95E1F75695542F442757954795E7
:10357000E40FF51FE55DFA4F6770772781E090E073
:1035800001C0880F6A95EAF7482F222349F02130BD
:1035900071F4315020F08081842B8193FACF08950B
:1035A0008095315020F0908198239193FACF08951F
:1035B0002F923F924F925F926F927F928F929F9243
:1035C000AF92BF92CF92DF92EF92FF920F931F9331
:1035D000CF93DF93CDB7DEB72D970FB6F894DEBF4C
:1035E0000FBECDBFED82E22EF12C9C012E0D3F1DB2
:1035F00037FD32C1803891050CF02EC19B01200FA0
:10360000311D37FD29C1603471050CF025C1DB0186
:1036100077FF04C0AA27BB27A61BB70BA770BB2741
:103620009B0177FF02C0295F3F4F13E03595279537
:103630001A95E1F777FF08C02150310968E070E082
:10364000FB01EA1BFB0BDF01E02FE695E695E69513
:10365000CE2ED12C077019F0FFEFCF1ADF0AB90177
:103660007695762F662777956795680F791F655D44
:103670007A4F8601020F131F19870887C12CD12C9E
:10368000F8E0AF2EB12C85010A1B1B0B1F830E83A4
:10369000088519852017310709F4DEC02830310567
:1036A00009F4DAC02F3F1FEF31070CF4CAC08B01B9
:1036B00000581F4F1D870C874B013B012B011C013C
:1036C0001C830B831A8309831B861A860A851B8534
:1036D0000E151F050CF0B5C010E82116310409F4D1
:1036E000B0C037FC89C02F3FEFEF3E0709F4B0C0F0
:1036F0000A851B850C0D1D1DFD81F13079F4F80143
:10370000E40FF51FE491F0E08F010A2E01C0000FD5
:103710000A94EAF7F301B0800B2925C0FD81F1116D
:1037200014C0F801E40FF51FE491F0E00A2E02C086
:10373000EE0FFF1F0A94E2F78F0100951095F40138
:10374000A080B12C0A211B210EC0F801E40FF51F47
:10375000E491F0E08F010A2E01C0000F0A94EAF70D
:10376000F201B0800B250083109709F445C0273083
:10377000310509F441C00A851B850C0D1D1DFD8115
:10378000F13089F4F801E40FF51FE4910E2F10E0F9
:103790000E8002C0159507950A94E2F7EC85FD8529
:1037A000B0800B2928C0FD81F11115C0F801E40F8C
:1037B000F51FE4910E2F10E00E8002C015950795BD
:1037C0000A94E2F700951095E981FA81A080B12C66
:1037D0000A211B2110C0F801E40FF51FE4910E2F00
:1037E00010E00E8002C0159507950A94E2F7EB8170
:1037F000FC81B0800B2500830A851B850F5F1F4F5E
:103800001B870A870C851D850F5F1F4F1D870C873F
:1038100009811A810F5F1F4F1A8309830B811C8155
:103820000F5F1F4F1C830B831FEF211A310AEFEF2D
:103830004E1A5E0AFFEF6F1A7F0A0FEF801A900A86
:1038400045CF2F5F3F4F60587F4FCE0CDF1C20CFFE
:10385000109709F090CFD0CF2D960FB6F894DEBF19
:103860000FBECDBFDF91CF911F910F91FF90EF90D1
:10387000DF90CF90BF90AF909F908F907F906F9090
:103880005F904F903F902F90089560387105D0F46D
:1038900040345105B8F4E9EAFDE080E1849FD001AD
:1038A000A0781124A60F4770E40FF11D8491A55D47
:1038B000BA4F222319F06C91862B03C080956C912E
:1038C00086238C9308950F93CF93DF93D82FC62F21
:1038D00070E06D5F7F4F90E001E027E049E00197E5
:1038E0000E94A62061E06C0F40E08EEF8D0F0E94D9
:1038F000FF1283E08C0FDF91CF910F9108958431F7
:1039000060F4693050F494E1699F800D1124E82F30
:10391000F0E0E958FB4F808108958FEF0895282F3C
:1039200020952370220F86958695E82FF0E0EF52C0
:10393000FE4F83E090E0022E02C0880F991F0A9488
:10394000E2F7809590959081892301C0660F2A95B2
:10395000EAF7862B80830895CF93DF93C82FD62F65
:103960000E948F1C6D2F81E08C0F0E948F1C6D2F89
:1039700084E18C0F0E948F1C6D2F85E18C0F0E94BB
:103980008F1C81E080930701DF91CF910895E82F8C
:10399000E695E6959091FF01F0E09230B1F4611167
:1039A00003C0EF52FE4F0FC0062E000C770B615084
:1039B00071099DE2969F9001979F300D1124E20FAF
:1039C000F31FE958FB4FE08108C02DE26202E00DD1
:1039D000F11D1124EB5DF54FE491982F90959370B4
:1039E000990FF0E023E030E0092E02C0220F331FD0
:1039F0000A94E2F7E223F3239F0102C0359527954D
:103A00009A95E2F7C9010895482F40954370440FF5
:103A100063E070E0042E02C0660F771F0A94E2F79D
:103A200086958695E82FF0E0EF52FE4F208130E03A
:103A3000CB018223932302C0959587954A95E2F79F
:103A40000895FF920F931F93CF93DF938C01EB01A7
:103A5000643B7105F8F4FB01E55DFA4F808181302C
:103A6000C9F0F62E862F0E94041D8150823090F0FE
:103A7000F8019191DF018A2F8E1B891720F48D9117
:103A80008F11F9CF07C0F801E90FF11DC1839F5FC6
:103A9000F8019083DF91CF911F910F91FF900895CE
:103AA0002F923F924F925F926F927F928F929F924E
:103AB000AF92BF92CF92DF92EF92FF920F931F933C
:103AC000CF93DF937E2CE22EF12CFC01EE0DFF1D37
:103AD000F7FD79C0813891050CF075C0362F37702D
:103AE000D32E1B0177FF03C0A7E02A0E311C33E061
:103AF000359427943A95E1F73694322C2224379462
:103B00002794029F20011124C0E0D0E04701F1E09A
:103B10008F1A910808E010E00D191109CE15DF0584
:103B200008F051C0772021F094012C1B3D0B01C0FF
:103B30009E01FE01E40DF51DE40FF51FE491D9018E
:103B4000A80FB91F9D01220D331D2115F4E03F0779
:103B5000C0F5A038B105A8F5D901A55DBA4FF0E0D0
:103B600077FD20C0C1100AC05F010D2C01C0AA0C56
:103B70000A94EAF7A094BC90AB2008C06C905F0157
:103B80000D2C01C0AA0C0A94EAF7A628AC92DD20FD
:103B9000C1F02038A3E03A07A4F420583F4FD901E0
:103BA000A55DBA4F002E02C0F595E7950A94E2F79D
:103BB000C11004C0E0952C91E22302C02C91E22BAD
:103BC000EC932196ABCFDF91CF911F910F91FF9096
:103BD000EF90DF90CF90BF90AF909F908F907F90AD
:103BE0006F905F904F903F902F900895CF93DF9309
:103BF000C82FD0E09E013595279535952795822FC2
:103C00002230310514F00E94F61D880F91E0980FC4
:103C1000999F90011124C217D3070CF0892FDF91CF
:103C2000CF910895DF92EF92FF920F931F93CF935E
:103C3000DF937C01D22E8B01040F111DEB0177FF66
:103C40000EC0C0E0D0E00BC0C417D5077CF42D2D0A
:103C5000AE01B7018BE599E00E94451C2196A801B1
:103C6000013411058CF340E450E0EECFDF91CF91A9
:103C70001F910F91FF90EF90DF9008952F923F9248
:103C80004F925F926F927F928F929F92AF92BF926C
:103C9000CF92DF92EF92FF920F931F93CF93DF9318
:103CA0007C016B01C42FD0E081E090E05C01AC1A94
:103CB000BD0A662477246C1A7D0A660C771C00E026
:103CC00010E088248394912C822F8470282E822FD8
:103CD0008270482E822F8870382E2170522E0C1739
:103CE0001D070CF071C0B7FC06C0219782E0680E7A
:103CF000711CA60CB71C0F5F1F4F82E0880E911C31
:103D0000A80CB91C2220B1F020E0A6014C0F5D1FC9
:103D1000B8016E0D7F1D8BE599E00E94451C20E0E7
:103D2000A8014C0D5D1DB7016C0F7D1F8BE599E05F
:103D30000E94451C4420B1F020E0A6014C1B5D0B05
:103D4000B8016E0D7F1D8BE599E00E94451C20E0B7
:103D5000A601401B510BB7016C0F7D1F8BE599E04D
:103D60000E94451C3320B1F020E0A8014C0D5D1DE0
:103D7000B7016C1B7D0B8BE599E00E94451C20E090
:103D8000A6014C0F5D1FB701601B710B8BE599E01D
:103D90000E94451C552009F4A2CF20E0A601401B3B
:103DA000510BB7016C1B7D0B8BE599E00E94451C04
:103DB00020E0A6014C1B5D0BB701601B710B8BE56E
:103DC00099E00E94451C8BCFDF91CF911F910F91FD
:103DD000FF90EF90DF90CF90BF90AF909F908F902B
:103DE0007F906F905F904F903F902F900895EF924B
:103DF0000F93CF93C82F803309F4CFE40FEB0C0F50
:103E00000A31C0F08FEC8C0F893018F40EEE0C0FD5
:103E100011C0C53271F0CF3341F1CC3341F1CE3313
:103E200041F1CD3241F1C133B9F080912F09895F61
:103E300016C00AE160913009062E000C770B8091C4
:103E40002F09E12C26E049ED5DE0082E000C990BCE
:103E50000E941F13C93439F780912F098B5F80931B
:103E60002F09CF910F91EF9008950BE1E3CF0CE173
:103E7000E1CF0DE1DFCF0EE1DDCF4F925F926F9288
:103E80007F928F929F92AF92BF92CF92DF92EF92EA
:103E9000FF920F931F93CF93DF93EC017B016A0195
:103EA000C901A901461B570B57FF03C05195419506
:103EB000510996012C1B3D0B37FF03C0319521950D
:103EC000310911E02417350714F010E00AC03C2D29
:103ED0002D2D6C01832F922F3C2F2D2FE701E32EE8
:103EE000F22ECC16DD0654F43E2D2F2D7C01832FAF
:103EF000922F3C2F2D2FE601C32ED22E26014C1AD5
:103F00005D0A4C018E189F0897FE03C0919481941E
:103F10009108520157FE03C02FEFA21AB20AB594BE
:103F2000A794E816F90614F08FEF01C081E0682E1F
:103F3000880F7708CC16DD06B4F0202F112319F076
:103F4000AE01B70102C0A701BE018BE599E00E9456
:103F5000451CA818B908B7FE04C0E60CF71CA40C51
:103F6000B51C2196E7CFDF91CF911F910F91FF9064
:103F7000EF90DF90CF90BF90AF909F908F907F9009
:103F80006F905F904F9008952F923F924F925F9263
:103F90006F927F928F929F92AF92BF92CF92DF9259
:103FA000EF92FF920F931F93CF93DF9300D000D037
:103FB000CDB7DEB78C017B01242F30E03C832B830F
:103FC00081E090E05C01A21AB30AC9019195819544
:103FD00091091C01220C331CA901460F571F20E038
:103FE000B8018BE599E00E94451CA7018B819C815B
:103FF000481B590B20E0B8018BE599E00E94451C55
:104000006B817C81600F711F20E0A7018BE599E037
:104010000E94451CB801EB81FC816E1B7F0B20E0E8
:10402000A7018BE599E00E94451CC12CD12C21E011
:1040300030E03A8329832B813C81C216D3060CF0F1
:104040006EC0B7FC0AC08B819C8101979C838B83D7
:1040500092E0290E311CA20CB31CEFEFCE1ADE0A3F
:1040600029813A812E5F3F4F3A832983A20EB31EE6
:104070003601600E711E20E08B809C808E0C9F1C90
:10408000A401B3018BE599E00E94451C28014C185E
:104090005D0820E0A401B2018BE599E00E94451C77
:1040A00020E047018B819C81881A990AA401B30101
:1040B0008BE599E00E94451C20E0A401B2018BE54C
:1040C00099E00E94451C46018E0C9F1C20E0A40133
:1040D0006B807C80600E711EB3018BE599E00E94BD
:1040E000451C20E0A4012801EB81FC814E1A5F0AE7
:1040F000B2018BE599E00E94451C47018C189D0890
:1041000020E0A401B3018BE599E00E94451C20E06A
:10411000A401B2018BE599E00E94451C8CCF0F9061
:104120000F900F900F90DF91CF911F910F91FF9003
:10413000EF90DF90CF90BF90AF909F908F907F9047
:104140006F905F904F903F902F900895CF92DF92A5
:10415000EF92FF920F931F93CF93DF936B01122F78
:10416000EC017C01E40EF11CCE15DF0544F4202F98
:10417000412FB601CE010E94121E2196F5CFDF918C
:10418000CF911F910F91FF90EF90DF90CF90089506
:104190005F926F927F928F929F92AF92BF92CF92D7
:1041A000DF92EF92FF920F931F93CF93DF93EC0177
:1041B0003B01542EF22E102F1195110FE12EE40E1B
:1041C000802E912C5C01A80CB91C6034710528F478
:1041D00020E04E2DC5010E94951A6301CF0CD11C21
:1041E000B601615071096034710528F420E04E2D4C
:1041F000C5010E94951A1F0D7301E80CF91C20E0FF
:10420000412FB701CE010E94121EC50DD11D20E025
:10421000412FB701CE0101970E94121E21E0402FCD
:10422000B701C5010E943E1EC819D909219722E095
:10423000402FB701CE010E943E1EC818D90881E068
:10424000C81AD10824E0402FB601CE010E943E1EBC
:1042500028E0402FB601C501DF91CF911F910F914A
:10426000FF90EF90DF90CF90BF90AF909F908F9096
:104270007F906F905F900C943E1ECF92DF92EF92F2
:10428000FF920F931F93CF93DF937C018A309105A8
:1042900050F08436910548F088EEE81683E0F80681
:1042A00030F0C4E005C0C1E003C0C2E001C0C3E01B
:1042B00020E001E010E08C2F90E001973AE0422FDF
:1042C00050E04817590744F4A801349F8001359FF6
:1042D000100D11242F5FF3CFD0E08AE0C82ED12C2F
:1042E000C701B8010E94B436CB01B6010E94B436B2
:1042F000805D0E94F71EC801B6010E94B4368B0192
:10430000DF5FDC13EDCFDF91CF911F910F91FF9015
:10431000EF90DF90CF9008951F93CF93DF93EC0140
:10432000FE011491812F0E94F71E21961111F8CFE2
:10433000DF91CF911F910895DF92EF92FF920F933B
:104340001F93CF93DF93EC017B01D42E122F6034A7
:10435000710520F4202FCE010E94951AB701610F3C
:10436000711D615071096034710528F4202F4D2DA5
:10437000CE010E94951A202F412FB701CE010E9435
:10438000121ECE018D0D911D202F412FB7010197D7
:10439000DF91CF911F910F91FF90EF90DF900C94E0
:1043A000121E8F929F92AF92BF92CF92DF92EF92A6
:1043B000FF920F931F93CF93DF93EC01D62E00E073
:1043C00024E14AE2BC0180E590E00E949C218091BA
:1043D0002E09882321F080912D09D81621F0809193
:1043E0002C09D8120DC001E09E01255F3F4F40E52A
:1043F00050E0BE01675F7F4F80E590E00E943D1F67
:104400000E94B815D816C0F0BE016E5F7F4F00E065
:1044100020E146E282E590E00E94A620BE016B5FAB
:104420007F4FEE24E3940BE028E049EC5DE081E669
:1044300090E00E94D81A45C010E05E018FEFA81AE4
:10444000B80AC12E81E5E82EF12C4E0182E0880EDB
:10445000911C6D2D8C2D0E94C71C823069F0833019
:1044600099F0813009F501E024E044E0BE01C70184
:1044700001970E94C82018C000E022E042E0B50188
:10448000C7010E94A62010C020E0A401B7018BE55F
:1044900099E00E94451C20E0A501B7016F5F7F4FA6
:1044A0008BE599E00E94451CC39482E0E80EF11C64
:1044B00089E7E816F10469F61C5E2296143B09F0C0
:1044C000BCCFDF91CF911F910F91FF90EF90DF90C4
:1044D000CF90BF90AF909F908F90089581E0EBE2D6
:1044E000F5E081118FEF0024819381938193819373
:1044F0000394D1F708952F923F924F925F926F925B
:104500007F928F929F92AF92BF92CF92DF92EF9263
:10451000FF920F931F93CF93DF93CDB7DEB7AA9788
:104520000FB6F894DEBF0FBECDBF109207011982FF
:1045300037E7832E34E0932EEBE2F5E0D40180E000
:104540008D9311928F5F843BD9F7809176048F8B86
:1045500081E0F12CE12C5524539494E1492E25E17E
:10456000322E9E01295E3F4F3901A12CB12CC82E5D
:10457000D12CAC14BD04ECF5D3012D903D01B0E578
:104580002B1202C0FF24F394022D10E0F801E95829
:10459000FB4FE082F801E55DFA4F5082B8016451AB
:1045A0007109CE0101960E94211DB8016C5E7F4FFA
:1045B000CE0101960E94211D822D642D0E949A3603
:1045C000292E911108C0B8016F5F7F4FCE0101966F
:1045D0000E94211D0AC0B80161507109CE010196E7
:1045E0000E94211DE3E12E12EECFFFEFAF1ABF0AAA
:1045F000C0CFFE013196DE015696832D01900D92BB
:104600008A95E1F78981811113C0EBE2F5E02FEF84
:10461000CF018C549191911102C0D4012C93BFEF22
:104620008B1A9B0A8E13F6CF0E946E228F2D06C026
:104630001982E394EAE5EE1294CF80E0AA960FB6D1
:10464000F894DEBF0FBECDBFDF91CF911F910F91C8
:10465000FF90EF90DF90CF90BF90AF909F908F90A2
:104660007F906F905F904F903F902F900895E6ED70
:10467000F3E090E0228123FF03C02081281731F06E
:104680009F5F34969832B1F78FEF0895892F089580
:10469000AF92BF92CF92DF92EF92FF920F931F9350
:1046A000CF93DF931F92CDB7DEB780E090E0FC019F
:1046B000EA52FC4F13820496803A9105C1F788EDC7
:1046C000A82E83E0B82E94E1F92E2FE0E22EF5011A
:1046D000208123FD14C0F4E0AF0EB11C28E7A21620
:1046E00024E0B206A1F70F90DF91CF911F910F91B7
:1046F000FF90EF90DF90CF90BF90AF900895F501BD
:104700003197808182958F70873029F7319780812A
:104710006F2D0E949A36D82E2370CE2C2E9DC00C61
:10472000112400E010E0F801E354F24F2491822FAD
:10473000890FF801EF54F24FE4918431D0F4ED0D7C
:10474000E930B8F4EF9D800D112499830E9437233E
:1047500099818F3F71F024E0829FF0011124EA5289
:10476000FC4F818182958F70873019F023812C0D49
:1047700023830F5F1F4F0C301105A9F6ACCFDF92DA
:10478000EF92FF920F931F93CF93DF93A8EDB3E0C7
:10479000E0E0F0E09C9193FD30C0122FD42EEF01A9
:1047A000CC0FDD1FCC0FDD1FFE01EA52FC4F9860DD
:1047B0009283082F94E1699F000D1124E8E04E17C1
:1047C00021F061E0802F0E94AC1CCE018A529C4FE8
:1047D0007C01FC0100831382137022812C70122B48
:1047E00012836D2DCE0189529C4F0E94EE11F7016C
:1047F0008181807F8860818305C031961496E8327C
:10480000F10541F6DF91CF911F910F91FF90EF904D
:10481000DF90089520916109282329F09091600983
:10482000982381E009F080E00895EBE2F5E0A0E054
:10483000B8E000800EBC8111012C1197A0FDFDCFC6
:104840000192B9F70DB40895FC018091D50381114F
:1048500003C08FEF9FEF08959FB7F89482E0809395
:10486000E9002091F20030E01216130614F421E062
:1048700030E02115310559F0289884E68093D4035F
:104880008091F10080838091F200882319F09FBF0E
:10489000C90108958BE68093E800F9CF2FB7F8940B
:1048A00083E08093E9009091E800892F807295FF62
:1048B00004C09091F20080E4891B2FBF0895CF932C
:1048C000DF931F92CDB7DEB76983DC01ED91FC91D8
:1048D0000280F381E02D41E050E0BE016F5F7F4F29
:1048E00009950F90DF91CF91089583E08093E900BF
:1048F0008091F200882319F08AE38093E8000895FC
:104900000E944E2490E00895FC018485958597FDD2
:104910000BC09FB7F89482E08093E9008091F20089
:104920009FBF90E0019608959FB7F89482E080932E
:10493000E9008091F2009FBF90E008958F929F92CE
:10494000AF92BF92CF92DF92EF92FF920F931F939D
:10495000CF93DF935C016B017A018091130188236F
:1049600009F45BC08091D503882309F456C0809177
:10497000D60980FF05C08091E00082608093E0004E
:10498000E70110E00AEF83E0882E9AE3992E209742
:10499000D9F10E944E2481110AC0015009F43DC092
:1049A00061E070E080E090E00E945618F0CF282F80
:1049B00030E0C217D3070CF48C2F4FB7F8948092D5
:1049C000E9009091E80095FF1DC0282F30E0C21B40
:1049D000D30BF601982F915020F081918093F10034
:1049E000FACFC20ED31E112319F09092E80009C02D
:1049F0008091E80085FD06C09092E80011E02097C4
:104A000009F010E04FBFC3CF1111C3CF5D9884E60A
:104A10008093D7091E141F0444F081E090E0F50153
:104A20009383828380E090E001C0C701DF91CF9142
:104A30001F910F91FF90EF90DF90CF90BF90AF90BC
:104A40009F908F900895CF93DF931F92CDB7DEB7DD
:104A5000FC018485958597FD05C02FEF3FEF3587D5
:104A600024870BC0CE0101960E942424019719F4DB
:104A7000898190E002C08FEF9FEF0F90DF91CF917F
:104A800008950F931F93CF93DF931F92CDB7DEB797
:104A90008C01FC018485958597FF0EC0CE0101969F
:104AA0000E942424019719F4298130E002C02FEFDD
:104AB0003FEFF80135872487F801848595850F90AD
:104AC000DF91CF911F910F9108958091DC098111A1
:104AD0000DC082E08093D80984E08093D9091092B8
:104AE000DB091092DA0981E08093DC0988ED99E016
:104AF00008951F920F920FB60F9211248F939F93D8
:104B00008091E1009091E100937F9093E10083FF19
:104B10000FC01092E90091E09093EB001092EC002E
:104B200092E39093ED001092D50398E09093F000FB
:104B300082FF20C093E09093E9009091F2009923C6
:104B400019F09AE39093E8009091D709992339F0EE
:104B50009091D70991509093D709992389F1909119
:104B6000D403992339F09091D40391509093D403B6
:104B7000992341F184FF10C08091E2008E7E816014
:104B80008093E2008091E1008F7E8093E10080912C
:104B9000D6098E7E806111C080FF16C08091E20030
:104BA0008E7E80618093E2008091E1008E7E809312
:104BB000E1008091D6098E7E81608093D60904C081
:104BC0005D9ACDCF289AD6CF9F918F910F900FBE2F
:104BD0000F901F9018951F920F920FB60F921124ED
:104BE000CF92DF92EF92FF920F931F932F933F93F9
:104BF0004F935F936F937F938F939F93AF93BF93E5
:104C0000EF93FF93CF93DF93CDB7DEB76C97DEBF03
:104C1000CDBF1092E9008091E80083FFEDC168E00C
:104C2000CE0145960E94062A82EF8093E8008D8986
:104C300087FF05C09091E80090FFFCCF03C09EEF76
:104C40009093E800982F907609F0C6C09E892F892E
:104C5000188D91110CC0803829F48091D50980936A
:104C6000F10002C01092F1001092F10048C1422FF1
:104C700050E0512B913051F4811141C14130510527
:104C800009F03DC18091D5098D7F0BC0933061F44F
:104C9000811135C14130510509F031C18091D509EB
:104CA00082608093D5092BC1953041F48091E80052
:104CB00080FFFCCF20682093E30021C1963009F0EB
:104CC0005FC0EB8CFC8C1092E9001092D30910921B
:104CD000D209123091F51092D1091092D0090E9498
:104CE000D42999E0BE016F5F7F4FDB01E92F1D9250
:104CF000EA95E9F799831A8391E09E8390EA988771
:104D00009AEF99872091D2093091D309275F3F4FBD
:104D10003C832B838D831092E9001092D30910926B
:104D2000D209F092D109E092D00949E050E080E048
:104D30000E94AD290E94D429E2C0F092D109E092EC
:104D4000D0090E946525DC011296ED90FC90139726
:104D5000E114F10409F4C0C0D701ED91FC91048085
:104D6000F581E02DBE016B5E7F4FC701099500976D
:104D700019F00CF0C4C0C7C0F701E084F184E8CF9B
:104D8000973009F4C0C0983021F481E08093F1009D
:104D9000B6C0993009F0B3C0837009F0B4C0E3E441
:104DA000F1E081E021E036E39081992361F0809386
:104DB000E9002093EB0091919093EC003093ED008B
:104DC0008F5F873089F78EE78093EA001092EA00C0
:104DD0008F898093D50393C08B8D9C8D1092E900B1
:104DE0001092D3091092D2099093D1098093D009DF
:104DF000898D811156C08E899D89913A59F48132ED
:104E000009F081C047E050E06CE071E080E00E9472
:104E1000AD2975C0913209F076C0833289F4888D4E
:104E200090E0982F88272F89822BA0E0B0E0809314
:104E3000080190930901A0930A01B0930B015FC090
:104E4000803269F48091E80082FFFCCF67E08CE05B
:104E500091E00E94062A8BEF8093E80006C0823220
:104E600009F04DC08F89809313018091D409882364
:104E700019F0EEEFFAE002C0E0E0F8E080910C01FA
:104E800090910D01A0910E01B0910F01803B9440D3
:104E9000A105B10509F07BC08091130180FF93C08B
:104EA00076C00E946525DC0112960D911C91139726
:104EB0000115110541F1D801ED91FC910190F081AE
:104EC000E02DBE016B5E7F4FC8010995811117C0AF
:104ED000F80100851185ECCF113009F44EC0133074
:104EE00091F48F89882309F445C0823081F440E829
:104EF00060E18BEE9EE00E948835882321F08EEFE2
:104F00008093E80079C081E28093EB0075C0813026
:104F100029F440E86BE08FED9EE0EDCF833099F708
:104F20000E946525DC011296ED90FC9013978E018E
:104F30000F5F1F4F6801E114F10479F0D701ED9183
:104F4000FC910680F781E02DB801C7010995080F93
:104F5000111DF701E084F184EECFD8011C92F60117
:104F600001900020E9F73197BF016C197D0940E0FD
:104F7000C601C1CF69EC7EE002C06DEC7EE0611538
:104F8000710509F2FB01449150E080E840CF0FB673
:104F9000F894A895809160008861809360001092D9
:104FA00060000FBEA895EE3F2AE0F20739F080912D
:104FB000FE0A9091FF0A91838083A1CF1092FF0A8D
:104FC0001092FE0A9CCFEE3F8AE0F80731F0808114
:104FD00091819093FF0A8093FE0A87E797E7918378
:104FE00080839BE088E10FB6F894A89580936000D9
:104FF0000FBE9093600083CF6C960FB6F894DEBF1F
:105000000FBECDBFDF91CF91FF91EF91BF91AF91D7
:105010009F918F917F916F915F914F913F912F91D0
:105020001F910F91FF90EF90DF90CF900F900FBEE8
:105030000F901F9018950C94213690910201809149
:10504000030124E1929F800D11240E943723809355
:10505000CD0194E0899FF0011124EA52FC4F818137
:1050600082958F708093C901828183708093CA0179
:105070000895EF92FF920F931F93CF93DF9300D089
:10508000CDB7DEB71092FF01109206011092CF014A
:1050900082E08093040184E8809301011092E50985
:1050A00091EFE92EF12C0AEF10E0C7010E94DF1208
:1050B000B8010E94B4368091E509860F8093E50916
:1050C00082E0E80EF11C89E1E81681E0F80669F754
:1050D00083E18093E509E9E3F9E080818F7B8083B8
:1050E000389689E0E136F807C1F7ECE4F1E0808119
:1050F000877F8083339681E0E43CF807C1F789E03D
:105100000E947E11E12CF12CF701EC5FF04F14911D
:10511000F701E450F14F6491EA8269830E94B81567
:105120009701280F311D280F311D2A5031094E2DAE
:1051300069812032310554F437FF02C0295F3F4FA7
:1051400083E0359527958A95E1F701C023E0812F0B
:105150000E94BF238FEFE81AF80A88E0E816F104EE
:1051600099F60F900F90DF91CF911F910F91FF90C3
:10517000EF90089588E00E940A24811104C084E021
:105180000E940A2481110C9439280895FF920F93EC
:105190001F93CF93DF93182FD091030190910201B9
:1051A000C4E19C9FC02D11248C2F8D0F0E94041DE3
:1051B000F82E811317C011E01D0F812F8C0F0E9454
:1051C000041D082F8F110EC0CC5E8C2F8D0F0E94F6
:1051D000041DD82F801306C08C2F810F0E94041D40
:1051E00091E08D1390E0892FDF91CF911F910F9166
:1051F000FF9008951F93CF93DF93EC01162F0E9429
:10520000871A85FF08C081E08093E409888188239C
:1052100011F0815088830E94871A86FF0FC081E0B9
:105220008093E4098881282F30E0612F70E061507D
:1052300071092617370714F48F5F8883DF91CF91A8
:105240001F9108951F93CF93DF93EC01162F0E94B7
:10525000871A87FF08C081E08093E409888188234A
:1052600011F0815088830E94871A84FF0FC081E06B
:105270008093E4098881282F30E0612F70E061502D
:1052800071092617370714F48F5F8883DF91CF9158
:105290001F910895CF93DF93D091FF010E94621474
:1052A000811114C0C1E0D43009F0C0E069E06C1B8A
:1052B00082E091E00E94222964E16C1B83E091E08E
:1052C0000E94FA28DF91CF910C944D14DF91CF9179
:1052D0000895FC018081662349F087FF02C081E0C8
:1052E000808380818F3751F08F5F07C018160CF4D0
:1052F00010828081803811F0815080830895409120
:10530000D2095091D3092091D0093091D109421787
:105310005307B4F49091E8009570E1F39091E800A0
:1053200092FD19C08093F1008091D2099091D30928
:1053300001968F739927892B19F48EEF8093E800DB
:105340008091D2099091D30901969093D3098093CB
:10535000D20981E0089580E00895DF92EF92FF92F4
:105360000F931F93CF93DF93D82E8A017B01E40E16
:10537000F51EEB01CE15DF0571F0D7FE03C0FE016F
:10538000849101C088810E947F2921968111F2CFEA
:105390008FEF9FEF01C0C801DF91CF911F910F9157
:1053A000FF90EF90DF9008950F931F93CF93DF93BB
:1053B0001F92CDB7DEB782E0898342E450E06CE013
:1053C0007FE080E80E94AD290E946525DC011296ED
:1053D0000D911C9113970115110569F0D801ED91FC
:1053E000FC910280F381E02DBE016F5F7F4FC80109
:1053F000099597FF07C089810F90DF91CF911F9189
:105400000F910895F80100851185E5CF615030F0C6
:105410002091F100FC0120830196F8CF289884E6C2
:105420008093D4030895CF93DF93CDB7DEB727974A
:105430000FB6F894DEBF0FBECDBF789484B58260FE
:1054400084BD84B5816084BD85B5826085BD85B528
:10545000816085BD80916E00816080936E001092A6
:105460008100809181008260809381008091810021
:1054700081608093810080918000816080938000B2
:105480008091910082608093910080919100816071
:105490008093910080919000816080939000809132
:1054A000C10084608093C1008091C10082608093BC
:1054B000C1008091C10081608093C1008091C300D0
:1054C00081608093C3008091C00082608093C0009F
:1054D0008091C20081608093C20080917A008460D4
:1054E00080937A0080917A00826080937A00809124
:1054F0007A00816080937A0080917A00806880933E
:105500007A001092D5031092D5091092D609809195
:10551000D70081608093D70080EA8093D80089B556
:10552000806189BD89B5826089BD09B400FEFDCF67
:1055300061E070E080E090E00E9456188091D80011
:105540008F7C80618093D8008091E000807F809381
:10555000E0008091E1008E7E8093E1008DE08093F9
:10556000E200559A209AEEEFFFE7859194918B3FE8
:105570009C4D19F481E08093D40981EC80937C00E8
:1055800085B1806F85B984B1877E84B984B1876E17
:1055900084B95E9A5F988AB1806D8AB9769A6E985E
:1055A00081B3806F81BB899880B38D7080BB80E5AB
:1055B0008CBD81E08DBD85E090E00E94821A5F9AEB
:1055C00085E090E00E94821A5E985C98ECE6F1E03B
:1055D0008DE08E0F94919EBD00000DB407FEFDCFAF
:1055E00031968E13F7CF5C9A81E8809364008091A6
:1055F000650081608093650080E00E9415240E9410
:10560000871A87FF16C05C9885EA8EBD00000DB42E
:1056100007FEFDCF8EB55C9A2E982F982D9880911D
:10562000640080628093640081E083BF889513BE2C
:10563000FCCF02E010E00E94871A82FF42C02D9842
:105640000E94871A84788438C9F00E94871A84716E
:10565000843191F50E94801A88EC90E00E94821AB1
:105660002E981A83098360E0CE0101960E94981655
:1056700084EF91E00E94821A2E9A19C00E94801A2B
:1056800088EC90E00E94821A2F981A8309836FEFAA
:10569000CE0101960E94981684EF91E00E94821A32
:1056A0002F9A0E94871A84788438D9F3CECF0E942B
:1056B000871A84718431D9F388EC90E00E94821AB1
:1056C000BACF0E94801A82E090E00E9421368111B8
:1056D0000E948F1A81E090E00E94213682FB112700
:1056E00010F981E090E00E94213681FF3CC0111149
:1056F0002E9850EF852E99249A940E94871A86FF3F
:1057000004C02E9A2F9A2D9A2EC0112331F034E026
:105710008316910411F42E9A2F9881E00E9415248B
:10572000EE24E39400E128E54CEB50E0B40184E181
:1057300090E00E94D81A80E00E9415248FE090E04B
:105740000E94821A4FEF841A940A89E18816910404
:10575000A1F6112311F02F9A2D9880E991E00E9473
:10576000821A0E94801A82E390E00E94821A0E94AC
:10577000871A8111F8CF81E280936209E8EDF3E0A6
:105780008081877F8083349694E0E837F907C1F7FA
:10579000E9E3F9E080818F7B8083389629E0E13668
:1057A000F207C1F7ECE4F1E08081877F80833396D4
:1057B00031E0E43CF307C1F703E211E0FF24F39486
:1057C000C8010E941B28F801EA5AFF4FE4918E138A
:1057D000F12C0F5F1F4F093241E0140789F701EFE9
:1057E00010E043E8C42E43E0D42E0E941136B601E7
:1057F0000E94C836BC016C597F4FC8010E94B81680
:105800000E5F1F4F093181E0180779F7FF2049F03B
:105810000E94392838EE432E33E0532E612C712C30
:1058200095C000E110E01A83098360E0CE01019683
:105830000E9498160F5F1F4F033291E0190799F7E6
:1058400003E211E0F801EA5AFF4F64911A830983D9
:10585000CE0101960E9498160F5F1F4F0932E1E0BA
:105860001E0781F7D5CF153009F05FC18091C301C4
:10587000882319F081508093C3018091C301811165
:10588000C8C111111FC20E94D9100E94D9100E94D4
:10589000B815282F8091C50166E00E949A36392FED
:1058A0008BEA289F812D1124869590E00696830F20
:1058B000911D8093C50180910401823011F41092F2
:1058C000040101E026E044E161E070E081E090E065
:1058D0000E94A62082E080932F0981E08093300906
:1058E0000E949018A30192010E946936209307023A
:1058F0009091000180910602921709F447C4209309
:10590000000180930502109206028091050290E04A
:105910000E943D2180E00E94152480910102909117
:105920000202A0910302B09104020196A11DB11DD3
:105930008093010290930202A0930302B0930402A9
:1059400080E090E0892B21F00E9400002FE2B22E2F
:105950000E94901880916309F62FF81B8F2F909169
:105960006409992329F0F09365091092640912C41F
:1059700090916209F91748F48F5F891708F00AC4FB
:1059800081E083BF889513BE05C481E080936409DC
:105990006093630980915E0990915F0901969093ED
:1059A0005F0980935E0980916009809361090E947C
:1059B000871A809360090E946E2280910102817093
:1059C000809300020E94901800910D0210910E0227
:1059D00020910F02309110026801790140E2C40E5B
:1059E000D11CE11CF11C21E06C157D058E059F0585
:1059F00008F020E02093110221111CC00E94901891
:105A000060930D0270930E0280930F029093100228
:105A10000E94871A61E083FF60E085E192E00E94C6
:105A200069290E94871A61E082FF60E084E192E0C8
:105A30000E946929809115028F3721F0809114020C
:105A40008F3729F481E0809315028093140220910E
:105A500013029091150280911402222339F0191635
:105A60002CF018161CF01092130223C09E3134F053
:105A70009FE79093150291E0909313028E3134F0DA
:105A80008FE78093140281E0809313028091FF01DD
:105A9000811110C4809115028F310CF080C388E011
:105AA0000E940A24811198C30E946214882309F479
:105AB000EEC38091FF019FEF980F933020F08A5042
:105AC000823008F0E2C61091FF018FEF810F823023
:105AD00008F4C9C000E028E130E040E050E060E0B8
