:100000000C9447070C946F070C946F070C946F07C0
:100010000C946F070C946F070C946F070C946F0788
:100020000C946F070C946F070C942D150C949F156E
:100030000C946F070C946F070C946F070C946F0768
:100040000C946F070C946F070C946F070C946F0758
:100050000C946F070C946F070C946F070C944F1F50
:100060000C946F070C946F070C946F070C946F0738
:100070000C946F070C946F070C946F070C946F0728
:100080000C94D3070C946F070C946F070C946F07B4
:100090000C94DD170C946F070C946F070C946F078A
:1000A0000C946F070C946F070C946F07C42DC72D29
:1000B000D02DD32DD62DD92DDC2DDF2D8B0D8E0DF2
:1000C0009A0D970D940D910D9D0DA00D4D696372C4
:1000D0006F546F7765727321004A55535420412045
:1000E0004255494C44494E4700413A20544F205311
:1000F000454E442057415645004E4F20454E5452E0
:100100005920424C4F434B494E4700424C4F434BC2
:1001100045442041524541004E4F5420414C4C4FE4
:1001200057454420484552450050524553532042BC
:1001300020544F20455849540044454C45544500EF
:10014000464F52455354004120524F434B005448B0
:1001500045204851005155495420454449544F5277
:100160003F0043484F53452054595000454449549B
:100170004F52000E0A1B110A041F131F13170E15EE
:100180000E18030E151A0D0D1A1A0D4D00440053CA
:10019000454C4C00494E464F530055504752414440
:1001A00045004D4158204C4556454C003C003E0012
:1001B0004C564C000008081C1C08000014141C1CA1
:1001C000080000082A2A3E3E08082A2A2A7F7F3E85
:1001D000001010180C0C000008283C3C0C00001407
:1001E00014525E3E041414564A7F3F3E0000100C29
:1001F0000E06000008042C1E0600004824124E2C97
:10020000184824134F2F1F1E0000380E0600000050
:100210001C0C3E0E00000C023E06370E001C077739
:100220000F771F06001C1C1C1408001C1C1C1C1C27
:1002300014081C1C1C1C3E361C1C1C1C3E7F773EDC
:100240000030383C140800381C1C1E0A0400383CDE
:100250001C1E0F1B1E383C3C1F1F3B1F0010381C70
:100260000A06006070381C0A06002070381E0F0D48
:100270000760703E1F1F1D0F00383C1A0C00000065
:1002800040787C3A0C0000607B7F3D0F0600727F57
:100290007F3D0F0F0808080808081C080808080810
:1002A000141C0808080814361C0808081436773E81
:1002B00010101008080E18101010080C0A0E10105C
:1002C000080E1A1A0E101018171B3B3E00201008BB
:1002D000040302002010080605030020100E0B0D79
:1002E0000740201C171B0D0F0000710F02020000B9
:1002F00000700F0503000000661F090F0000037F58
:1003000017090F0E001414141408001414141414F4
:10031000141C1414143636361C1414363636773E34
:100320000008282414180008282414120A0C08288D
:100330002416131B1E082C2637333B1E00080422EC
:1003400014080010084422160C0010084623171E3B
:100350000C100C4723371F1E001806320C0000003B
:10036000300C6319060000300F63190F06003E0FB2
:1003700063391F0E0808141408000008081C221C0A
:10038000000008081C2A2A1400081C2A496B3600A1
:1003900010181414080000101C1A120C0000101879
:1003A0003C2A2A1E00101C3A2925171C002018146C
:1003B00008000000201C1A120C00002C122A261C17
:1003C00000002E132925321C00007824180000009C
:1003D000007834241800001C723E120E00001C73BA
:1003E0003927120E0008143E2200000008142A3695
:1003F0000000081422497F0000081422415D6300B8
:100400000018162C302000001816222C300000187E
:1004100016232C700000181621234C7000001F12A8
:1004200014181000001F11161418003F222C283039
:1004300020003F21262C2830000E34281810000000
:100440000E3224141800020E3224141808030D3141
:100450002212140C00001C141C0000001C3E363E2E
:100460001C001C3E6B776B3E1C3E635D555D633E1E
:100470000008083E0808000808087F0808081C084B
:10048000497F49081C3C194B7F694C1E020301043B
:100490000203010004060303040A0104424F4F5300
:1004A0005453204F54484552530048495453204513
:1004B000564552594F4E4500313030252048495459
:1004C000204348414E4345004D554C5449504C45FE
:1004D0002048495453004849545320414C4C20492A
:1004E0004E204C494E4500534C4F575320454E45E6
:1004F0004D595300414F45204F4E20494D504143E7
:1005000054002D002D0057415645004C4947485492
:10051000004E4F524D414C00000003010201020306
:100520002D0035302500545950450052454C4F415F
:10053000440052414E47450044414D41474500501B
:10054000524943450053434F52450047414D454FA3
:10055000564552004F5054494F4E53004352454464
:10056000495453001941400001414C4C41010040A5
:1005700041191C22455D41221C060B173E1F0F0628
:100580001C1C1C7F3E1C08080C3A013A0C08000099
:100590003B3B2000002C2E2A6B2A3A1A7F3E1C7F00
:1005A0003E1C0833000001010000010100669901B2
:1005B0000000010100000101CC030004040000045C
:1005C000040000060104040000040400000404FC0C
:1005D00006560754047C40F8500040E0607C065703
:1005E000067C60E0400300030001000100030000FE
:1005F000000300010003000100030060D0E8687000
:1006000030F8E8906070C8E8F06030E8E8F060002A
:100610002040000040000060002000000000506406
:10062000FF58600000402040081C6C540822140849
:10063000142270185F1B730C32263E1C040E362ADF
:1006400004050C0C0832320000804040E06060D0AD
:100650006040804040E060E050604080404060E0AA
:1006600060D06040806030F03078A830108060B09A
:10067000703038E83010806030F030F828301000EA
:100680002090F878BC740C08004020F8783CF40CFA
:100690000800209078B8FC740C0810207070F0707E
:1006A000F86810102070F07070F86810202070F05A
:1006B00070F07868104020F070F8783C2C144020DE
:1006C000F07078F83C2C14402070F07878BC2C1432
:1006D00000EE1F3BCD00C02E1FFB0D0000EE1FFBE8
:1006E0000D0000F60F3DC600C0360FFD060000F6F7
:1006F0000FFD0600E3970F3DC68403F78F3DC684C8
:1007000003F78FFD8604E6970F3DCE8C06F78F3DED
:10071000CE8C06F78FFD8E0CE39F0F3DCE9E07F724
:100720008F3DCE9E07F78FFD8E1E0020F868A0003B
:1007300000A078E800000000F8E840000000F86839
:10074000A020008078E820200000F8E820200000A9
:10075000F868A078008078E820780000F8E8207831
:1007600010F8689010109078E810101010F8E81049
:100770001010707820F868807078A078E8007078A1
:1007800020F8E80000FFFEFDFDFDFEFF0001020372
:10079000030302010303020100FFFEFDFDFDFEFF56
:1007A000000102031C08000008141A0800081420A5
:1007B00000000412643C0AFA1E32140A04080C06F3
:1007C0000F0814040A0C12161E20281670381C3844
:1007D0007048381E38481C497F491C43414D5041E0
:1007E000494E0052455345542047414D4500435220
:1007F0004544495453004F5054494F4E53004544CB
:1008000049544F52004D4943524F20544F5745527F
:100810005300535550504F52540053484F434B00D0
:1008200046524F5354005241494C47554E00464C96
:10083000414D45004C415345520043414E4E4F4EB1
:10084000004D494E4947554E004849474853434F8C
:10085000524500534C4F54004C4556454C00544FA4
:100860002045444954005052455353203E002060D7
:1008700060A0A0300C030C30A0A06060202000001D
:10088000603C130804060408133C600000002819AB
:100890001E1E141414141414141414141414141404
:1008A00014140A0A0A0A0A0A0A0A0A0A0A0A0A0A94
:1008B0000A0A0A0A0A0AFC0000000FF000000003FE
:1008C0000000AC00000003AC00000003EC000400DA
:1008D00003E800000000280000C000000000F00055
:1008E00000000FC0000000000002C00037000280BE
:1008F000A03F280000200000000000000020280089
:100900000000A000E800000000E800FF0000000078
:10091000000000030300C3A400000C02A03000008C
:10092000000000F0000000000000300000000000A7
:100930000030000C00000003000030000F00000039
:100940000000000000000038000000003800000037
:1009500000F840000000380003000038000FC0001D
:1009600000003F0000000000000000000000000048
:10097000000000000000000000ABD000002802C012
:100980000000E800AAAAAABC000000003C00000089
:10099000000000000000000000000000000F0F0237
:1009A00084000F0F028000C0A0F00000F0A0F00053
:1009B000000F0F0000000F0F00000000F00000000B
:1009C00000F00000003FFFF000002800A00000221F
:1009D000022000000A1280000000000000000AAAA5
:1009E000800000080080000002AA00000000000053
:1009F0000003003008000000000003C830200000A1
:100A00000000000400000000000000C80000080012
:100A10000000800020030000030C0003030000001E
:100A20000000000000FC00000003030000000C00B8
:100A3000C000000C10C000000C00C0000003030048
:100A4000000000FC000000000000002C0000000876
:100A5000C80000002FC3C0003E83C300000AB7C017
:100A6000003C0F00000000C0030003C000A8008C81
:100A70000800AFF2BF3E00FE000000000000A00A28
:100A800006A80208208008080880802000000000D6
:100A90002008088080800820820080028028008052
:100AA00000000000000C20C200000020C200000076
:100AB00000C200000000020000000000000400006E
:100AC0000200000000C200000020C200000C20C292
:100AD00000000000000000004000000000000000D6
:100AE0000000000000000000000000000000000006
:100AF00000000000000000000000000000000000F6
:100B00000280000000028A000000000A00000000CD
:100B10000000002AAAAAAA8400000030000CC0002D
:100B20000300C000000C30FC0000F00000020002D6
:100B300000000200023A00020002CA02020202DCC5
:100B40000202020283AA020202B0F000020000F0D8
:100B500000020000FC00020000C00030000F00CCCA
:100B60000000030C0000000000330000000303003D
:100B70001000000300000000300000000C0CC0005A
:100B80000000030C000F0000000000000B00040038
:100B900000FFC000000203C0000003CB0000000300
:100BA00033C0000000CB00000000BC0000000000CB
:100BB00000000000000000002AAAAAAAA820000045
:100BC000000820000100082000000008A00000002C
:100BD0000800000000082AAAAAAAA8000000000035
:100BE00000F000000003FF0003F4030F000FF03FCC
:100BF00003003C00F003C0F000C003003000000020
:100C0000CCC00000003F0000000000000000000019
:100C1000000002A8812A000200A2208002808A200F
:100C200080020082208002A8822A000000000000CA
:100C30000000000000000000000001020408102075
:100C40004080F0F89C8E8783878E9CF8F00000FE31
:100C5000FF0303030303070EFCF80000FEFF03037A
:100C6000030303070EFCF80000FFFF000000000074
:100C70000000FFFF0000FEFF8383838383C7EE7CB9
:100C8000380000F8FC0E07030303070EFCF8000011
:100C90003F7FE0C08080C0E07F3FFFFF0101010196
:100CA000010101FFFF0000FFFF0C0C0C0C1C3E7744
:100CB000E3C100007FFFC0C0C0C0C0E0703F1F00A4
:100CC000001F3F70E0C0C0C0E0703F1F00007FFF0A
:100CD000C1C1C1C1C1E3773E1C00001F3F70E0C02D
:100CE000C0C0E0703F1F000000000001FFFF0100D6
:100CF0000000D5F08D14A1C881CFD9F1AF20000834
:100D00000B000202020100090400000102020000BF
:100D10000524001001052401010104240206052414
:100D20000600010705810310004009040100020AC2
:100D30000000000705020240000007058302400092
:100D4000000403090412010002EF020140412336AE
:100D50008000010102030141726475696E6F204CCD
:100D60004C430041726475696E6F204C656F6E6113
:100D700072646F00FEFEFEFFFF000001010202022E
:100D8000FF0001FE02FE02FE02FF0001E03E3FA363
:100D9000A33F3EE007040405050404071E1F0909DC
:100DA0001F1E1F1F15151F0E0E1F11111B0A1F1FBF
:100DB00011110F0E1F1F151511111F1F0505010120
:100DC0000E1F11150D1C1F1F04041F1F111F1F11C3
:100DD00000000811111F0F011F1F040E1F191F1FF4
:100DE000101010101F170E071F1F1F1F060C1F1FAC
:100DF0000E1F11111F0E1F1F090907060E1F1109D3
:100E00001F161F1F09091F16161715151D0D0101A5
:100E10001F1F01010F1F10101F0F070F18180F07BA
:100E20001F190C181F1F111B0E0E1B110307041C8A
:100E30001F03191D1D171713131B0C061B19020383
:100E400001151706040E1F1B110000111B1F0E04B5
:100E5000000404040400121F1F100000121B191DBF
:100E600017131111151F1F0A0F0F081E1E08171741
:100E7000151D1D090E1F15151D0C0101191D070358
:100E80000A1F15151F0A061715151F0E8730112486
:100E90001FBECFEFDAE0DEBFCDBF11E0A0E0B1E0D2
:100EA000ECEDF3E602C005900D92AC34B107D9F732
:100EB00029E0ACE4B1E001C01D92AD30B207E1F72A
:100EC00017E0C7E4D7E004C02197FE010E94E1319A
:100ED000C634D107C9F70E94991F0C94EC310C94C9
:100EE00000008FEF9FEF08958091F40290E09195BC
:100EF0008195910908958091B402E091B502F09135
:100F0000B602882349F0CF0102969093B6028093EF
:100F1000B502859194910895CF0102969093B602FF
:100F20008093B5028081918108958091C7020895D0
:100F3000089580E090E00895CF93DF93C82FD0E02C
:100F40009E013595279535952795822F223010F0F3
:100F50000E949C07880F91E0980F999F900111249F
:100F6000C217D3070CF0892FDF91CF910895CF934B
:100F7000DF93CB01EA01642F0E940719CE01DF91B4
:100F8000CF910895CF93DF931F92CDB7DEB76983DA
:100F900061E0CE0101960E94071981E090E00F9078
:100FA000DF91CF9108951F920F920FB60F921124E7
:100FB000CF92DF92EF92FF920F931F932F933F9365
:100FC0004F935F936F937F938F939F93AF93BF9351
:100FD000CF93DF93EF93FF938091B9029091BA0280
:100FE000A091BB02B091BC02892B8A2B8B2B51F1B3
:100FF0008091B802811104C098B180E4892788B932
:101000008091B9029091BA02A091BB02B091BC024A
:10101000181619061A061B060CF08CC08091B9022E
:101020009091BA02A091BB02B091BC020197A109B4
:10103000B1098093B9029093BA02A093BB02B09316
:10104000BC0278C00E947B07811520E8920759F402
:10105000809171008D7F809371001092910046986D
:101060001092B70267C021E02093B702813020E8D8
:10107000920731F41092B6021092B5020E947B07DB
:10108000EC01DF77209769F4469881E08093B802FD
:101090003FE9C32E3FE0D32EE12CF12CCAEFD0E084
:1010A00014C08E0120E030E060E472E48FE090E054
:1010B000A90198010E943C3169017A0181E0C81AB6
:1010C000D108E108F1081092B802E091BD08F09152
:1010D000BE080995811103C081E08093B8020E9487
:1010E0007B07009771F09C01DE010E949031DC01CA
:1010F000CB0129E0B595A795979587952A95D1F7C6
:1011000003C08FEF9FEFDC01109290002AE0209344
:101110009100D0929900C09298008093B902909368
:10112000BA02A093BB02B093BC02809171008260AE
:1011300080937100FF91EF91DF91CF91BF91AF91BB
:101140009F918F917F916F915F914F913F912F91DF
:101150001F910F91FF90EF90DF90CF900F900FBEF7
:101160000F901F9018952D9A0895BC0180E090E093
:101170000C9412138FB18095807F669B88601C9BB6
:10118000846008950C942631FC01E40FF11DAF0139
:101190001E161F06C4F580389105ACF597FF02C0F6
:1011A00080E090E04138510514F040E850E0481BE1
:1011B000FB0177FD379633E0F595E7953A95E1F732
:1011C000F695FE2FEE27F795E795E80FF91FE659FC
:1011D000FB4F6770772781E090E001C0880F6A9528
:1011E000EAF7382F222341F0213069F4415058F0BA
:1011F0008081832B8193FACF8095415020F090819C
:1012000098239193FACF089560387105D0F4403453
:101210005105B8F4EAE3FCE080E1849FD001A078B6
:101220001124A60F4770E40FF11D8491A659BB4FFE
:10123000222319F06C91862B03C080956C91862334
:101240008C930895FC014091540191E024E630E034
:1012500050E0692F70E0461757073CF086E4989FEE
:10126000200D311D11249F5FF4CFC9016AE070E0A9
:101270000E94B9312AE0269FC001279F900D1124BA
:1012800066E970E00E94B9318091960190919701D2
:10129000860F911D883E23E0920710F087EE93E0C1
:1012A000909397018093960180818F7B808308952E
:1012B000843160F4693050F494E1699F800D112409
:1012C000E82FF0E0EA54FC4F808108958FEF0895F5
:1012D000282F20952370220F86958695E82FF0E021
:1012E000E456FE4F83E090E0022E02C0880F991F63
:1012F0000A94E2F7809590959081892301C0660F4A
:101300002A95EAF7862B80830895CF93DF93C82F21
:10131000D62F0E9468096D2F81E08C0F0E9468090A
:101320006D2F84E18C0F0E9468096D2F85E18C0F71
:101330000E94680981E080931101DF91CF910895A7
:10134000E82FE695E6959091CA01F0E09230B1F46D
:10135000611103C0E456FE4F0FC0062E000C770B40
:10136000615071099DE2969F9001979F300D112465
:101370002A543C4FE20FF31FE08108C09DE269024E
:10138000E00DF11D1124EA54F74FE491282F209528
:101390002370220F83E090E0022E02C0880F991F75
:1013A0000A94E2F7F0E08E239F2302C0959587957B
:1013B0002A95E2F70895282F20952370220F86950D
:1013C0008695E82FF0E0E456FE4F8081482F50E0EC
:1013D00083E090E0022E02C0880F991F0A94E2F782
:1013E0008423952302C0959587952A95E2F7089561
:1013F000FF920F931F93CF93DF93643B710500F52A
:10140000FB01E659FB4F20812130D1F0EB018C012B
:10141000F62E862F0E94DB098150823088F0F80179
:10142000919120E0921729F08191F81649F02F5FF1
:10143000F9CFF801E90FF11DC1839F5FF801908397
:10144000DF91CF911F910F91FF9008952F923F92BE
:101450004F925F926F927F928F929F92AF92BF92C4
:10146000CF92DF92EF92FF920F931F93CF93DF9370
:101470007E2CE22EF12CF701E80FF91FF7FD79C061
:10148000813891050CF075C0362F3770D32E1B01B3
:1014900077FF03C0A7E02A0E311C33E03594279470
:1014A0003A95E1F73694322C222437942794209FE2
:1014B00020011124C0E0D0E04701F1E08F1A91082B
:1014C00008E010E00D191109CE15DF0508F051C034
:1014D000772021F094012C1B3D0B01C09E01F201ED
:1014E000EC0FFD1FE40FF51FE491DC01A20FB31F09
:1014F0009D01220D331D2115F4E03F07C0F5A038F2
:10150000B105A8F5D901A659BB4FF0E077FD20C081
:10151000C1100AC05F010D2C01C0AA0C0A94EAF7A1
:10152000A094BC90AB2008C06C905F010D2C01C052
:10153000AA0C0A94EAF7A628AC92DD20C1F0203864
:10154000A3E03A07A4F420583F4FD901A659BB4F56
:10155000002E02C0F595E7950A94E2F7C11004C089
:10156000E0952C91E22302C02C91E22BEC93219682
:10157000ABCFDF91CF911F910F91FF90EF90DF9054
:10158000CF90BF90AF909F908F907F906F905F9023
:101590004F903F902F9008950F931F93CF93DF9319
:1015A000D82F1091020180910101C4E18C9FC02DC0
:1015B0001124812F8C0F0E94DB09D81315C001E084
:1015C000010F802F8C0F0E94DB09D8130DC0CC5E59
:1015D000812F8C0F0E94DB09D81306C0802F8C0F3F
:1015E0000E94DB0991E0D81390E0892FDF91CF9121
:1015F0001F910F9108951F93CF93DF93EC01162F46
:101600000E94BA0885FF08C081E08093B3028881F8
:10161000882311F0815088830E94BA0886FF0FC08A
:1016200081E08093B3028881282F30E0612F70E041
:10163000615071092617370714F48F5F8883DF9193
:10164000CF911F9108951F93CF93DF93EC01162F35
:101650000E94BA0887FF08C081E08093B3028881A6
:10166000882311F0815088830E94BA0884FF0FC03C
:1016700081E08093B3028881282F30E0612F70E0F1
:10168000615071092617370714F48F5F8883DF9143
:10169000CF911F9108958091B302882381F00E9419
:1016A0004C13DC01CB018A569F4FAF4FBF4F809345
:1016B000AF029093B002A093B102B093B20208952A
:1016C000CF92DF92EF92FF921092B3020E944C13DE
:1016D00021E0C090AF02D090B002E090B102F09053
:1016E000B2026C157D058E059F0508F020E0822F63
:1016F000FF90EF90DF90CF900895CF93DF93D0913C
:10170000CA010E94600B811114C0C1E0D43009F0FD
:10171000C0E069E06C1B81E091E00E94230B64E172
:101720006C1B82E091E00E94FB0ADF91CF910C9448
:101730004B0BDF91CF910895809100018A3718F00B
:1017400081508093000180910001881F8827881FA5
:10175000089580910001843818F48F5F8093000110
:1017600008950F9300E02EE130E048E450E060E09F
:1017700070E088E490E00E94591A20E430E048E4E8
:1017800050E062E270E088E490E00E94591A2EE195
:1017900030E04FE450E06EE170E088E490E00E94B9
:1017A000591A22E230E04FE450E062E270E088E44F
:1017B00090E00E94591A0F910895FC019281937054
:1017C000218122952F7030E0F901EC56FB4F849176
:1017D000F901E457FB4F2491880F299F800D1124B4
:1017E000865F0895FC01962F6081262F2F7080E17F
:1017F000989FB0011124622B60830895FC018091B1
:10180000CB01811111C09281692F62956F70292FD0
:101810002370220F285F621728F46E5FCF010296B3
:101820000C94F20B9B7F92830895FF920F931F936A
:10183000CF93DF938C01EB01F42E82E048130CC0B0
:10184000D80113966C9162956F706E3028F46E5FBC
:10185000C80103960E94F20B209709F45BC0EF2D9C
:10186000F0E0E85EFA4FE491D80112968C91823054
:1018700019F4E1110CC009C0833019F4E13039F4D6
:1018800004C0843021F4E23011F4D695C7958CEF72
:101890008F0D833008F040C08091CC019091CD0134
:1018A000A091CE01B091CF0183709927AA27BB27C1
:1018B000892B8A2B8B2BC9F42FC001963396843148
:1018C000910599F0228123FDF8CFF8013181408103
:1018D0002860FC01EE0FFF1F8E0F9F1FFC01E65AD0
:1018E000FE4F408331832F702283D80114968D914F
:1018F0009C911597C817D90738F48C1B9D0B15962A
:101900009C938E93149706C0C80106960E942209E4
:1019100081E007C080E005C0EAE5F1E080E090E00A
:10192000D1CFDF91CF911F910F91FF9008953F92FA
:101930004F925F926F927F928F929F92AF92BF92DF
:10194000CF92DF92EF92FF920F931F93CF93DF938B
:101950008C01562ECFEBD8E0712C44244A94662497
:101960006A9484E1382E97E0C92ED12C2AEBA22E5E
:1019700027E0B22E34E6832E912C8E8186FF7AC02A
:10198000C8010E94DD0BA82FF8018081632D0E9401
:101990009F31482F440F480F440F4A5F50E0292FD2
:1019A000220F290F220F295F30E068816E5F70E0FF
:1019B000F901E61BF70B1E161F061CF0FB01E21BCC
:1019C000F30B89818B5F90E09A01281B390B12166B
:1019D00013061CF09C01241B350BEA2EF12CEE168D
:1019E000FF0608F447C0E216F30608F443C04AE0D5
:1019F000A49FC0011124B6010E94CD317727E617BC
:101A0000F70718F42617370770F0229F802D11244E
:101A1000EE9F800D1124823010F00E949C0790E010
:101A20008E159F053CF5552001F1F8014381F50124
:101A30005491F8018281837090E00196589F900143
:101A4000599F300D1124442359F0C901B4010E945B
:101A5000B931469FC001479F900D1124280F391FAF
:101A600046E0B901CE010E94150C8F81841510F457
:101A7000672C482E73942896F5E07F127ECF862D32
:101A8000DF91CF911F910F91FF90EF90DF90CF905A
:101A9000BF90AF909F908F907F906F905F904F908E
:101AA0003F90089580919901882331F080919801A9
:101AB00090E087589F4F05C080919B0190E083572D
:101AC0009F4F880F991F08950F931F93CF930E94E4
:101AD000520D8C010E94C208C82FC80101960E94B5
:101AE000C2082C2F30E0322F2227280F311D3093CF
:101AF000510120935001CF911F910F910895E091D2
:101B0000C9018E2F90E088309105F0F4FC01E25A73
:101B1000FF4F0C94E13181E498E014C08AE398E02F
:101B200011C084E398E00EC08EE298E00BC086E21C
:101B300098E008C080E298E005C08AE198E002C021
:101B400082E198E00C94E91B0895FC0140815181E9
:101B5000CA01861B970BBC019C0197FF04C022277A
:101B60003327281B390B283031052CF03595279564
:101B70003595279501C021E077FF03C0420F511D25
:101B800004C0672B21F0421B510951834083089503
:101B9000CF92EF920F931F93CF93DF9386E18093C1
:101BA0006B0883E080936C0885E098E00E94E91B55
:101BB00000E028E345E060E070E08BE790E00E9401
:101BC0006C1B01E023E045E063E370E08BE790E00D
:101BD0000E94D91CD0E0CAE21BEA2D2F30E0809190
:101BE0001201869590E003972817390704F56C2FAA
:101BF00070E0CB0108968934910570F4D19F012DD6
:101C000011240695CC24C394E12C25E04CEC57E03C
:101C10008BE790E00E94260AD23010F4C55005C030
:101C2000D53010F4C75001C0C950DF5FD6CFC09186
:101C30009A0120E1C29FE0011124BE018DEA92E0E9
:101C40000E94A50D8091AD029091AE02C817D907F0
:101C5000E1F480919A01882351F086E180936B082A
:101C60008AE380936C088CEA91E00E94E91B8091E2
:101C70009A01843050F484E580936B088AE3809362
:101C80006C088EEA91E00E94E91B00E210E0C0E0DF
:101C9000DAE38091AD029091AE02880F991F880F10
:101CA000991F9801281B390BC90120583F4F2F3F1E
:101CB000310509F0F0F480936B08D0936C08C230C2
:101CC00071F01CF4C13041F004C0C33059F0C4308D
:101CD00061F08BED97E00BC08EEF97E008C086EFC8
:101CE00097E005C08EEE97E002C083EE97E00E9479
:101CF000E91BCF5F005C1F4FC53059F6DF91CF91D4
:101D00001F910F91EF90CF90089598E290934F011B
:101D100090910401911103C090E590934F0180933D
:101D20004E010895CF93DF93D82F81E08093110166
:101D300084E6809352011092540110925601109241
:101D4000570110925801109259011092550180913B
:101D5000CA018350853018F484E00E94850E8D2FCF
:101D600090E0FC01EE55F74FE491E0935301FC0144
:101D7000E257F74FE491F0E0F0939701E09396017A
:101D8000E5E6F3E025EB33E08281877F82833496BA
:101D90002E173F07C9F7EFEBF8E027EE38E0868112
:101DA0008F7B868338962E173F07C9F7C0E06D2FCB
:101DB0008C2F0E94A009813011F4C093B503682FC5
:101DC0008C2F0E946809CF5FC43B89F7DF91CF91C8
:101DD00008951092CA0181E08093040182E080930B
:101DE0000301EFEBF8E086818F7B8683389688E0ED
:101DF000E73EF807C1F789E00E94920E40E065E0F7
:101E000089E00E94EC1E41E063E085E00E94EC1E48
:101E100042E062E081E00E94EC1E47E064E087E07F
:101E20000E94EC1E44E065E08DE00E94EC1E46E05E
:101E300064E082E00E94EC1E43E065E085E00E94E1
:101E4000EC1E45E063E08CE00C94EC1E88E00E9400
:101E5000351F811104C084E00E94351F81110C944C
:101E6000E90E08950F9301E0423008F000E0041BF2
:101E70000D5F70E02BE04BE090E00E94F91A0F91AB
:101E800008950F93CF93DF93D82FC62F70E06D5F27
:101E90007F4F90E001E027E049E001970E946C1B32
:101EA00061E06C0F40E08EEF8D0F0E94320F83E0F7
:101EB0008C0FDF91CF910F910895CF92EF920F93F6
:101EC000FB013896E934F10518F4C12C0E94260A6A
:101ED0000F91EF90CF900895EF920F93CF93DF93F0
:101EE000C82FD62FE12C02E027E044E655E069E355
:101EF00070E090E00E945D0FEBE6F8E0C85FC08301
:101F00008AE381838D2F90E0DF91CF910F91EF9045
:101F10000C948E1B2F923F924F925F926F927F9202
:101F20008F929F92AF92BF92CF92DF92EF92FF92E9
:101F30000F931F93CF93DF93CDB7DEB727970FB6DD
:101F4000F894DEBF0FBECDBF222309F473C0002377
:101F500009F470C0AD821C2D202E422E3A014B0197
:101F60005C012E9D900111243A832983842D90E0F9
:101F7000079623E0959587952A95E1F7489EC02C12
:101F800011244A94312CE02EF12C2A941F821E82B7
:101F900089819A81830D911D9C838B838E812E81F3
:101FA0003F81E216F30609F440C0922F969596956C
:101FB0009695EB81FC81C99EE00DF11D1124E60D83
:101FC000F71DE491F0E0922F977002C0F595E79528
:101FD0009A95E2F7E0FF23C0113061F040F0123033
:101FE00061F0133069F4D22CD81A532C09C0D32CC9
:101FF0005E8006C0DE80542C03C0D42C522C581AAC
:102000002D81A401450D511D57FC5A95B5016D0D4B
:10201000711DD7FC7A9587EE98E00E9404098E81A5
:102020009F8101969F838E83B9CF33944A949FEF0B
:102030004912ACCF27960FB6F894DEBF0FBECDBFC6
:10204000DF91CF911F910F91FF90EF90DF90CF9094
:10205000BF90AF909F908F907F906F905F904F90C8
:102060003F902F900895AF92CF92EF92FF920F93EF
:102070001F93CF93DF93F82E8091CA018130E9F44A
:10208000809150019091510168EC70E00E94B9314B
:10209000D62FC0E015E0A12CC12CE12C0FE02FE0E1
:1020A0004EE658E065E070E0812F90E00E948A0FD4
:1020B0001C5ECF5FDC1778F713C0C5E0C0936B08D8
:1020C00084E080936C0886E698E00E94E91BC09348
:1020D0006B088CE080936C088EE598E00E94E91B09
:1020E00085E080936B0888E180936C088091CA0139
:1020F000813019F488E598E002C083E598E00E94F9
:10210000E91B8F2D90E00E948E1BC5E0C0936B08E9
:1021100086E280936C0889E498E00E94E91BC093F2
:102120006B088EE280936C08809150019091510170
:10213000DF91CF911F910F91FF90EF90CF90AF90D3
:102140000C948E1BAF92CF92DF92EF920F93E62FFB
:10215000F0E0463010F5922F9370E92EEE0CEE0C65
:102160000370E00E26952695C22ED12C92E0C90E62
:10217000D11C93E0C922DD2490E1499FE00C112499
:10218000BF016E5F7F4F90E0A12C07E027E044EB9A
:1021900051E002960E948A0F15C0BF016E5F7F4F0B
:1021A0003A96E934F10570F4440F440F0370040FBC
:1021B000085B90E0C12CE12C27E044EB51E0029653
:1021C0000E94260A0F91EF90DF90CF90AF90089574
:1021D000282F30E0F901EC53F84F8491869F800D51
:1021E0001124F901E454F84F2491629F800D1124C9
:1021F0000895FF920F931F93CF93DF93EC01F62E78
:1022000008811981C8010E942631F81621F06F2D2E
:10221000C8010E942E31CE01DF91CF911F910F9105
:10222000FF9008954F925F927F928F929F92AF920C
:10223000BF92CF92DF92EF92FF920F931F93CF93B3
:10224000DF9300D0CDB7DEB781EC80937C0085B101
:10225000806F85B984B1877E84B984B1876E84B973
:102260005E9A5F988AB1806D8AB9769A6E9881B3CA
:10227000806F81BB899880B38D7080BB80E58CBDF9
:1022800081E08DBD85E090E00E94B5085F9A85E011
:1022900090E00E94B5085E985C98E2EFFCE08491C3
:1022A0008EBD00000DB407FEFDCF31964CE0EF3F30
:1022B000F407A9F75C9A81E8809364008091650037
:1022C00081608093650080E00E94401F0E94BA08F0
:1022D00087FF16C05C9885EA8EBD00000DB407FE2E
:1022E000FDCF8EB55C9A2E982F982D988091640022
:1022F00080628093640081E083BF889513BEFCCF29
:1023000002E010E00E94BA0882FF42C02D980E94AD
:10231000BA088478843831F00E94BA088471843114
:1023200091F519C00E94B30888EC90E00E94B508AE
:102330002F981A8309836FEFCE0101960E94F9103E
:1023400084EF91E00E94B5082F9A0E94BA08847821
:102350008438D9F3E1CF0E94B30888EC90E00E9462
:10236000B5082E981A83098360E0CE0101960E9479
:10237000F91084EF91E00E94B5082E9A0E94BA08E5
:1023800084718431D9F388EC90E00E94B508BACF0B
:102390000E94B30882E090E00E94C208882329F0DE
:1023A0003E9A3F9A81E08093C70281E090E00E94CC
:1023B000C20881FF83C0582F5470752E82FD2E985D
:1023C00000EF1FEFE8E0EE2EF12C0E94BA0886FF26
:1023D00005C02E9A2F9A0E94B30870C0772029F06A
:1023E0000430110511F42E9A2F9881E00E94401FAD
:1023F000980117FF04C022273327201B310B2770B9
:102400003327C80117FD079673E0959587957A9550
:10241000E1F717FF05C00197F701E21BF30B9F01DE
:10242000AC015695542F44275795479546595B4F15
:1024300060E070E04701821A930A8F3FFFEF9F0729
:102440004CF40196685A7F4F40585F4F603B7105CE
:10245000A1F71DC05A01E4E9AE0EB11C6A01A0E06B
:10246000B0E08F3FFFEF9F0791F1FD01E60FF71FEF
:10247000EE5BF34FE491F0E02F01022E01C0440C1B
:102480000A94EAF7F60154884528448A20C080E07F
:102490000E94401F8FE090E00E94B5080F5F1F4F21
:1024A0000931110509F091CF772011F02F9A2D985D
:1024B00080E991E00E94B5080E94B30882E390E0B1
:1024C0000E94B5080E94BA088111F8CF21C02115D9
:1024D000310591F0FD01E60FF71FEE5BF34FE4913C
:1024E000F0E02F01082C02C0559447940A94E2F7BB
:1024F000F5015080452840821196FFEFAF1ABF0AC0
:10250000EFEFCE1ADE0AA835B10509F0AACF99CFB0
:102510000F900F90DF91CF911F910F91FF90EF904F
:10252000DF90CF90BF90AF909F908F907F905F9003
:102530004F9008952091C602211103C08FEF9FEFA5
:1025400008955FB7F89422E02093E9002091F2000B
:1025500030E01216130614F421E030E0422FFC01A3
:1025600084E6415038F028988093C5029091F1009C
:102570009193F7CF2115310521F08091F200882346
:1025800019F05FBFC90108958BE68093E800F9CF89
:102590002FB7F89483E08093E9009091E800892FA9
:1025A000807295FF04C09091F20080E4891B2FBFD8
:1025B00008958091CC0281110DC082E08093C80201
:1025C00084E08093C9021092CB021092CA0281E08B
:1025D0008093CC0288EC92E008953FB7F894809104
:1025E000C1029091C202A091C302B091C40226B56B
:1025F000A89B05C02F3F19F00196A11DB11D3FBF3B
:10260000BA2FA92F982F8827820F911DA11DB11DC8
:10261000BC01CD0142E0660F771F881F991F4A95C4
:10262000D1F708958F929F92AF92BF92CF92DF928F
:10263000EF92FF926B017C010E94ED124B015C0155
:10264000C114D104E104F104F1F00E94ED12DC01A7
:10265000CB0188199909AA09BB09883E9340A105B5
:10266000B10570F321E0C21AD108E108F10888EE43
:10267000880E83E0981EA11CB11CC114D104E10492
:10268000F10419F7DDCFFF90EF90DF90CF90BF906E
:10269000AF909F908F9008952FB7F8946091BD02EE
:1026A0007091BE028091BF029091C0022FBF089529
:1026B000409161035091620320915F033091600368
:1026C00042175307B4F49091E8009570E1F39091AC
:1026D000E80092FD19C08093F10080916103909110
:1026E000620301968F739927892B19F48EEF8093DB
:1026F000E8008091610390916203019690936203D8
:102700008093610381E0089580E00895DF92EF9265
:10271000FF920F931F93CF93DF93D82E8A017B01F3
:10272000E40EF51EEB01CE15DF0571F0D7FE03C0F8
:10273000FE01849101C088810E9458132196811165
:10274000F2CF8FEF9FEF01C0C801DF91CF911F91B2
:102750000F91FF90EF90DF900895615030F020913D
:10276000F100FC0120830196F8CF289884E680933D
:10277000C5020895CF92DF92EF92FF920F931F93BD
:10278000CF93DF936C017A018B01C0E0D0E0CE15CE
:10279000DF0581F0D8016D918D01D601ED91FC919D
:1027A0000190F081E02DC6010995892B11F0219649
:1027B000EECF7E01C701DF91CF911F910F91FF9066
:1027C000EF90DF90CF900895CF93DF931F92CDB716
:1027D000DEB76983DC01ED91FC910280F381E02D8D
:1027E00041E050E0BE016F5F7F4F09950F90DF9190
:1027F000CF91089583E08093E9008091F2008823CF
:1028000019F08AE38093E8000895FC01848595859A
:1028100097FD0BC09FB7F89482E08093E900809108
:10282000F2009FBF90E0019608959FB7F89482E070
:102830008093E9008091F2009FBF90E0089585EDBC
:102840008093BC008091BC0084FDFCCF10923903C2
:10285000089508958FEF9FEF08950E94E7310F9339
:102860001F93CF93DF931F92CDB7DEB782E08983AA
:1028700042E450E06FEF7CE080E80E9486130E9403
:10288000D912DC0112960D911C91139701151105B7
:1028900089F0D801ED91FC910280F381E02DBE0119
:1028A0006F5F7F4FC801099597FD04C0F80100854F
:1028B0001185ECCF89810F90DF91CF911F910F91FE
:1028C00008958F929F92AF92BF92CF92DF92EF9234
:1028D000FF920F931F93CF93DF936C017B018A01CB
:1028E00080911001882309F45CC08091C60288237E
:1028F00009F457C080914C0180FF05C08091E00031
:1029000082608093E000E801B12C8AEFA82E93E06A
:10291000892E2AE3922E209711F4BB20D9F10E9430
:10292000C81281110AC0AA94AA20D9F161E070E00E
:1029300080E090E00E941213EECF282F30E0C21703
:10294000D3070CF48C2F9FB7F8948092E900209164
:10295000E80025FF1DC0282F30E0C21BD30BF70174
:10296000815020F041914093F100FACFE20EF31E26
:10297000BB2019F09092E8000AC08091E80085FD24
:1029800007C09092E800BB24B394209709F0B12CC3
:102990009FBFC1CF5D9884E6809364031016110633
:1029A00044F081E090E0F6019383828380E090E040
:1029B00001C0C801DF91CF911F910F91FF90EF905F
:1029C000DF90CF90BF90AF909F908F9008950E941E
:1029D000C81290E008950F931F93CF93DF931F9237
:1029E000CDB7DEB78C01FC018485958597FF0EC0BD
:1029F000CE0101960E949A12019719F4898190E004
:102A000002C08FEF9FEFF80195878487F8018485D6
:102A100095850F90DF91CF911F910F910895CF93DE
:102A2000DF931F92CDB7DEB7FC018485958597FDB6
:102A300005C02FEF3FEF358724870BC0CE010196ED
:102A40000E949A12019719F4898190E002C08FEFD9
:102A50009FEF0F90DF91CF9108951F920F920FB6C5
:102A60000F9211248F939F938091E1009091E10048
:102A7000937F9093E10083FF0FC01092E90091E0F3
:102A80009093EB001092EC0092E39093ED00109283
:102A9000C60298E09093F00082FF20C093E09093EC
:102AA000E9009091F200992319F09AE39093E800DD
:102AB00090916403992339F090916403915090931D
:102AC0006403992389F19091C502992339F090917B
:102AD000C50291509093C502992341F184FF10C023
:102AE0008091E2008E7E81608093E2008091E1001F
:102AF0008F7E8093E10080914C018E7E806111C0B9
:102B000080FF16C08091E2008E7E80618093E2009B
:102B10008091E1008E7E8093E10080914C018E7E59
:102B2000816080934C0104C05D9ACDCF289AD6CFA6
:102B30009F918F910F900FBE0F901F9018951F922D
:102B40000F920FB60F921124CF92DF92EF92FF9265
:102B50000F931F932F933F934F935F936F937F93A5
:102B60008F939F93AF93BF93EF93FF93CF93DF9395
:102B7000CDB7DEB76C97DEBFCDBF1092E900809174
:102B8000E80083FFFBC168E0CE0145960E94AD13CB
:102B900082EF8093E8008D8987FF05C09091E8005F
:102BA00090FFFCCF03C09EEF9093E800982F9076A3
:102BB00009F0C6C09E894F89588D2F89F88C9111D4
:102BC0000CC0803829F480914D018093F10002C03F
:102BD0001092F1001092F10045C1913051F4811131
:102BE00041C14130510509F03DC180914D018D7FBA
:102BF0000BC0933061F4811135C14130510509F0AA
:102C000031C180914D01826080934D012BC195307F
:102C100049F48091E80080FFFCCF822F8068809388
:102C2000E30020C1963009F05EC00B8D1C8D22E0C0
:102C30001092E9001092620310926103F21232C006
:102C40001092600310925F030E942F1499E0BE015E
:102C50006F5F7F4FDB01E92F1D92EA95E9F79983BA
:102C6000FA8291E09E8390EA98879AEF9987209163
:102C7000610330916203275F3F4F3C832B838D8339
:102C80001092E900109262031092610310936003A6
:102C900000935F0349E050E080E00E9486130E94A9
:102CA0002F14E0C01093600300935F030E94D912B9
:102CB000DC0112960D911C9113970115110509F471
:102CC000BBC0D801ED91FC910480F581E02DBE01DF
:102CD0006B5E7F4FC8010995009709F0C7C0F801E6
:102CE00000851185EACF973009F445C1983021F469
:102CF00081E08093F100B6C0993009F0B3C08370D1
:102D000009F039C1E9E1F1E081E031E096E32081A9
:102D1000211109C08EE78093EA001092EA008F89A2
:102D20008093C6029FC08093E9003093EB0021910D
:102D30002093EC009093ED008F5F873041F7EACF4E
:102D40008B8D9C8D1092E9001092620310926103AA
:102D50009093600380935F03898D811153C08E89A6
:102D60009D89913A49F4813209F005C147E050E06C
:102D700069E071E080E0BBC0913209F0FCC08332B1
:102D800069F48F89988DA0E0B0E08093050190935D
:102D90000601A0930701B093080164C0803269F472
:102DA0008091E80082FFFCCF67E089E091E00E941B
:102DB000AD138BEF8093E80055C0823209F052C00A
:102DC0008F8980931001EEEFFFE7859194918B3FFF
:102DD0009C4D19F0E0E0F8E002C0EEEFFAE08091DF
:102DE000090190910A01A0910B01B0910C01803B67
:102DF0009440A105B10509F09EC08091100180FFAB
:102E000079C099C00E94D912FC0102811381011579
:102E1000110509F4B0C0D801ED91FC910190F08149
:102E2000E02DBE016B5E7F4FC801099581111AC06C
:102E3000F80100851185EBCFF1E0FF1609F44EC0D3
:102E4000F3E0FF1298C08F89882309F44AC08230CA
:102E500089F440E860E183E69DE00E9452308823D7
:102E600009F489C08EEF8093E80088C0181619060F
:102E7000CCF381C0813029F440E86BE087E59DE028
:102E8000ECCF833009F077C00E94D912DC01129692
:102E9000ED90FC9013978E010F5F1F4F6801E114B6
:102EA000F10479F0D701ED91FC910680F781E02DD6
:102EB000B801C7010995080F111DF701E084F184DD
:102EC000EECFD8011C92F60101900020E9F731976E
:102ED000BF016C197D0940E0C601BFCF65E47DE00C
:102EE00002C061E47DE0FB01449150E080E80E9473
:102EF0008613B8CFEE3F2AE0F20751F0808191812E
:102F00008737A7E79A0721F09093FF0A8093FE0A7C
:102F100087E797E7918380838091600080936303C4
:102F20009BE088E10FB6F894A895809360000FBEEF
:102F30009093600097CF808191818737974709F000
:102F400091CFA89580916000886180936000809106
:102F5000630380936000EE3FBAE0FB0739F0809195
:102F6000FE0A9091FF0A918380837CCF1092FF0A22
:102F70001092FE0A77CF81E28093EB006C960FB639
:102F8000F894DEBF0FBECDBFDF91CF91FF91EF91DF
:102F9000BF91AF919F918F917F916F915F914F9171
:102FA0003F912F911F910F91FF90EF90DF90CF9065
:102FB0000F900FBE0F901F9018951F920F920FB693
:102FC0000F9211242F933F934F935F936F937F93AF
:102FD0008F939F93AF93BF93EF93FF938091B9002B
:102FE000887F803609F49CC068F5883209F45BC09C
:102FF00090F4803109F454C038F4882309F4F2C005
:10300000883009F44DC0F2C0883109F44CC08032D8
:1030100009F45DC0EBC0803409F468C048F4803323
:1030200009F455C0883309F0E1C080933803D4C057
:10303000803509F44FC0883509F45DC0883409F043
:10304000D5C0D2C0883909F4C3C0A8F4883709F4C0
:1030500067C038F4883609F463C0803709F460C06B
:10306000C5C0883809F4B4C0803909F45FC080381D
:1030700009F0BCC05BC0803B09F484C038F4803ADE
:1030800009F466C0883A09F47DC0B0C0803C09F4F8
:10309000A3C0883C09F4A0C0883B09F486C0A6C040
:1030A00080915E0310C090915D0380915C0398173E
:1030B00070F5E0915D0381E08E0F80935D03F0E099
:1030C000E45CFC4F80818093BB0085EC82C08093E0
:1030D00038038AC0E0915D0381E08E0F80935D0329
:1030E0008091BB00F0E0E45CFC4F808390915D0335
:1030F00080915C036AC0E0915D0381E08E0F809354
:103100005D038091BB00F0E0E45CFC4F8083809124
:103110003B03811169C081E080933A0384EA5DC07A
:1031200083E08093390310923703CFCF8091370328
:10313000803208F04DC0E091370381E08E0F80931C
:1031400037038091BB00F0E0E95EFC4F8083BDCF88
:1031500085EC8093BC001092390380913703803254
:1031600030F4E0913703F0E0E95EFC4F10826091AB
:10317000370370E087E193E0E0E0F0E0099510921A
:10318000370334C084E08093390310921603109201
:103190001503E0E0F0E0099580911503811105C069
:1031A00081E0809315031092F502E091160381E00F
:1031B0008E0F80931603F0E0EB50FD4F80818093DB
:1031C000BB009091160380911503981708F47DCFEA
:1031D00085E88093BC000AC085EC8093BC00109207
:1031E000390304C0109238030E941F14FF91EF911D
:1031F000BF91AF919F918F917F916F915F914F910F
:103200003F912F910F900FBE0F901F9018954091F6
:103210001503262F30E0240F311D21323105DCF457
:10322000209139032430C9F4FC0180E090E0861736
:1032300058F4309115032191DC01AB50BD4FA30F21
:10324000B11D2C930196F3CF80911503680F609305
:10325000150380E0089581E0089582E008952F929B
:103260003F924F925F926F927F928F929F92AF9216
:10327000BF92CF92DF92EF92FF920F931F93CF9363
:10328000DF937C016B01C42FD0E081E090E05C0112
:10329000AC1ABD0A662477246C1A7D0A660C771C6A
:1032A00000E010E088248394912C822F8470582EA3
:1032B000822F8270482E822F8870382E2170222E05
:1032C0000C171D070CF071C0B7FC06C0219782E0F7
:1032D000680E711CA60CB71C0F5F1F4F82E0880E92
:1032E000911CA80CB91C5520B1F020E0AE014C0D8A
:1032F0005D1DB701600F711F87EE98E00E94040901
:1033000020E0A601400F511FBE016E0D7F1D87EE0C
:1033100098E00E9404094420B1F020E0A6014C1B73
:103320005D0BB701600F711F87EE98E00E940409E2
:1033300020E0A601401B510BBE016E0D7F1D87EEE4
:1033400098E00E9404093320B1F020E0A601400F6C
:10335000511FB7016C1B7D0B87EE98E00E9404099A
:1033600020E0AE014C0D5D1DB701601B710B87EEB7
:1033700098E00E940409222009F4A2CF20E0A601CF
:10338000401B510BB7016C1B7D0B87EE98E00E9430
:10339000040920E0A6014C1B5D0BB701601B710BFB
:1033A00087EE98E00E9404098BCFDF91CF911F91A7
:1033B0000F91FF90EF90DF90CF90BF90AF909F90D4
:1033C0008F907F906F905F904F903F902F900895D7
:1033D000DF92EF92FF920F931F93CF93DF937C01C5
:1033E000D22E8B01040F111DEB0177FF02C0C0E04C
:1033F000D0E0C8010134110514F080E490E0C81752
:10340000D9074CF42D2DAE01B70187EE98E00E944C
:1034100004092196EECFDF91CF911F910F91FF907C
:10342000EF90DF900895EF920F93CF93C82F8033E2
:1034300009F4CFE40FEB0C0F0A31C0F08FEC8C0FC6
:10344000893018F40EEE0C0F11C0C53271F0CF3375
:1034500041F1CC3341F1CE3341F1CD3241F1C133B1
:10346000B9F080916B08895F16C00AE160916C0821
:10347000062E000C770B80916B08E12C26E04CE9BE
:103480005DE0082E000C990B0E945D0FC93439F7DE
:1034900080916B088B5F80936B08CF910F91EF90B9
:1034A00008950BE1E3CF0CE1E1CF0DE1DFCF0EE1B9
:1034B000DDCF2F923F924F925F926F927F928F92C9
:1034C0009F92AF92BF92CF92DF92EF92FF920F93B3
:1034D0001F93CF93DF9300D01F92CDB7DEB79B83AE
:1034E0008A837B016A0109838901061B170B17FF79
:1034F00003C011950195110956018A819B81A81A73
:10350000B90AB7FE03C0B194A194B108A016B106E0
:103510005CF49C2D8D2D6901292F382F9A818B8188
:10352000FB82EA82E92EF82E8A819B81C816D90691
:103530005CF49E2D8F2D7901292F382F9A818B8154
:10354000DB82CA82C92ED82E16018A819B81281A55
:10355000390A29014E185F0857FE03C0519441945F
:103560005108310137FE03C09FEF691A790A75943B
:103570006794E216F30614F08FEF01C081E0882E05
:10358000880F99088A819B81C816D906E4F02981A1
:10359000A016B1061CF4AC01B70103C0A7016A81F3
:1035A0007B8187EE98E00E9404096418750877FE15
:1035B00004C0E80CF91C620C731C8A819B81019683
:1035C0009B838A83DFCF0F900F900F90DF91CF9175
:1035D0001F910F91FF90EF90DF90CF90BF90AF9031
:1035E0009F908F907F906F905F904F903F902F9023
:1035F00008955F926F927F928F929F92AF92BF9247
:10360000CF92DF92EF92FF920F931F93CF93DF93AE
:10361000EC017B01742E122F602E660C542E56186E
:10362000802E912C5401A80EB91E6034710528F427
:1036300020E0452DC5010E94C4086701C10ED11CC0
:10364000B601615071096034710528F420E0452D00
:10365000C5010E94C4081619E80CF91C20E0412F8E
:10366000B701CE010E94E819C70DD11D20E0412FFE
:10367000B701CE0101970E94E81921E0402FB70160
:10368000C5010E942F19C819D909219722E0402F9E
:10369000B701CE010E942F19C818D90881E0C81AB5
:1036A000D10824E0402FB601CE010E942F1928E056
:1036B000402FB601C501DF91CF911F910F91FF906F
:1036C000EF90DF90CF90BF90AF909F908F907F90C2
:1036D0006F905F900C942F19CF92DF92EF92FF9230
:1036E0000F931F93CF93DF937B01122FEC016C019B
:1036F000C40ED11CCC15DD0544F4202F412FB70199
:10370000CE010E94E8192196F5CFDF91CF911F914C
:103710000F91FF90EF90DF90CF900895BF92CF92DE
:10372000DF92EF92FF920F931F93CF93DF938A3034
:103730009105C8F18436910518F033E0E32E02C0FC
:1037400022E0E22E20E001E010E04E2D50E041505A
:1037500051093AE0622F70E06417750744F4B8012C
:10376000369F8001379F100D11242F5FF3CFEC019E
:10377000F12C8AE0B82E9AE0C92ED12CCE01B801E6
:103780000E94B931862F6B2D0E949F3180E3890FF3
:103790000E94131AC801B6010E94B9318B01F3943B
:1037A000EF10ECCF0CC0805DDF91CF911F910F9196
:1037B000FF90EF90DF90CF90BF900C94131ADF91A1
:1037C000CF911F910F91FF90EF90DF90CF90BF901E
:1037D00008951F93CF93DF93EC01FE011491812F85
:1037E0000E94131A21961111F8CFDF91CF911F91EA
:1037F00008952F923F924F925F926F927F928F9295
:103800009F92AF92BF92CF92DF92EF92FF920F936F
:103810001F93CF93DF9300D000D0CDB7DEB77C01EC
:103820008B01242F30E03C832B8381E090E05C010E
:10383000A21AB30A1901319421943108220C331CC5
:10384000A901460F571F20E0B70187EE98E00E94BC
:103850000409A8018B819C81481B590B20E0B7010A
:1038600087EE98E00E9404096B817C816E0D7F1DBC
:1038700020E0A80187EE98E00E940409B7012B819F
:103880003C81621B730B20E0A80187EE98E00E9448
:103890000409C12CD12C81E090E09A8389832B818B
:1038A0003C81C216D3060CF06DC0B7FC09C0215094
:1038B00031093C832B8332E0230E311CA20CB31C54
:1038C0008FEFC81AD80A29813A812E5F3F4F3A8379
:1038D0002983A20EB31E37016C0C7D1C20E08B8067
:1038E0009C80800E911EA401B30187EE98E00E9497
:1038F000040927014C185D0820E0A401B20187EEFD
:1039000098E00E94040920E048018B819C81881A7C
:10391000990AA401B30187EE98E00E94040920E00F
:10392000A401B20187EE98E00E9404094601800ECE
:10393000911E20E0A4016B807C806E0C7F1CB30183
:1039400087EE98E00E94040920E0A40127018B8102
:103950009C81481A590AB20187EE98E00E94040936
:1039600048018C189D0820E0A401B30187EE98E07F
:103970000E94040920E0A401B20187EE98E00E94B1
:1039800004098DCF0F900F900F900F90DF91CF9182
:103990001F910F91FF90EF90DF90CF90BF90AF906D
:1039A0009F908F907F906F905F904F903F902F905F
:1039B0000895DF92EF92FF920F931F93CF93DF93BF
:1039C000EC017B01D42E122F6034710520F4202FDE
:1039D000CE010E94C408B701610F711D61507109C9
:1039E0006034710528F4202F4D2DCE010E94C408AB
:1039F000202F412FB701CE010E94E819CE018D0D75
:103A0000911D202F412FB7010197DF91CF911F9179
:103A10000F91FF90EF90DF900C94E8198F929F9296
:103A2000AF92BF92CF92DF92EF92FF920F931F93CC
:103A3000CF93DF93EC01C62E00E024E14AE2BC0103
:103A400080E590E00E94D91C80911201C816C8F050
:103A5000BE016E5F7F4F24E146E282E590E00E9466
:103A60006C1BBE016A5F7F4FAA24A394C12CE12C7A
:103A70000BE028E04CE85DE081E690E00E948A0FD0
:103A800052C09E01255F3F4FBE01675F7F4F01E03F
:103A900040E550E080E590E00E94591A10E05E0198
:103AA0008FEFA81AB80AD12E81E5E82EF12C4E012D
:103AB00082E0880E911C6C2D8D2D0E94A009823011
:103AC00069F0833099F0813009F501E024E044E0A9
:103AD000BE01C70101970E94F91A18C000E022E058
:103AE00042E0B501C7010E946C1B10C020E0A40198
:103AF000B70187EE98E00E94040920E0A501B70114
:103B00006F5F7F4F87EE98E00E940409D39482E0B4
:103B1000E80EF11C89E7E816F10469F61C5E2296AE
:103B2000143B09F0BCCFDF91CF911F910F91FF9013
:103B3000EF90DF90CF90BF90AF909F908F900895BF
:103B400081E0EAE6F4E081118FEF00248193819314
:103B5000819381930394D1F708952F923F924F92CE
:103B60005F926F927F928F929F92AF92BF92CF920D
:103B7000DF92EF92FF920F931F93CF93DF93CDB716
:103B8000DEB7AA970FB6F894DEBF0FBECDBF109276
:103B90001101198226EBC22E23E0D22E3AE6A32E83
:103BA00034E0B32EF501D60180E08D9311928F5F42
:103BB000843BD9F78091B5038F8B81E0512C412C48
:103BC0004E0136E1830E911C94E1292E7401682E7A
:103BD000712CC7018819990986159705ECF5F7012D
:103BE0003180F0E53F1202C055245394032D10E0BC
:103BF000F801EA54FC4F4082F801E659FB4F31E0EE
:103C00003083B80164517109CE0101960E94F80910
:103C1000B8016C5E7F4FCE0101960E94F809832D9A
:103C2000622D0E949F31392E911108C0B8016F5F3B
:103C30007F4FCE0101960E94F8090AC0B801615079
:103C40007109CE0101960E94F80983E13812EECF86
:103C50009FEFE91AF90ABDCF85E1FE013196D40143
:103C600001900D928A95E1F78981811114C08EE14E
:103C700095E02FEFF50131915F01311102C0F6019E
:103C80002083FFEFCF1ADF0A8A159B0599F70E9460
:103C9000A01D852D06C0198243943AE5431296CFA4
:103CA00080E0AA960FB6F894DEBF0FBECDBFDF91BD
:103CB000CF911F910F91FF90EF90DF90CF90BF9029
:103CC000AF909F908F907F906F905F904F903F90BC
:103CD0002F900895E5E6F3E090E0228123FF03C0F2
:103CE0002081281731F09F5F34969431B1F78FEF20
:103CF0000895892F08957F928F929F92AF92BF92DD
:103D0000CF92DF92EF92FF920F931F93CF93DF93A7
:103D1000C5E6D3E035EBC32E33E0D32EFE0113828C
:103D2000349683E0E53BF807D1F724E1B22E2A81EF
:103D300023FD12C02496CC16DD06C9F7DF91CF9182
:103D40001F910F91FF90EF90DF90CF90BF90AF90B9
:103D50009F908F907F900895898182958F70873092
:103D600049F788816B2D0E949F31782E892E237010
:103D70009B2C2B9D900C112480E8E82E8DE0F82ED2
:103D800004E71DE09CE0A92EF7018491880DF8015D
:103D900094918431C0F4970D9930A8F49B9D800DC7
:103DA00011240E946A1E8F3F71F094E0899FF001F8
:103DB0001124EB59FC4F818182958F70873019F067
:103DC0008381890D8383AA94EFEFEE1AFE0A0F5FB9
:103DD0001F4FA110D9CFAECFEF92FF920F931F9339
:103DE000CF93DF93E5E6F3E020E030E0928193FDAE
:103DF00024C0E42E8901000F111F000F111FE801DC
:103E0000CB59DC4F98609A83F82E94E1699FF00CAF
:103E1000112461E08F2D0E948509F8821B828A811E
:103E20008C708A836E2DC8018A599C4F0E94F20BB8
:103E30008981807F8860898306C02F5F3F4F3496D9
:103E40002431310599F6DF91CF911F910F91FF90A9
:103E5000EF9008952091ED08282329F49091EC0823
:103E6000982381E009F480E008952091ED0828234B
:103E700029F09091EC08982381E009F080E0089502
:103E8000EAE6F4E0A0E0B8E000800EBC8111012C6D
:103E90001197A0FDFDCF0192B9F70DB408951F92BF
:103EA0000F920FB60F9211242F933F938F939F93EE
:103EB000AF93BF938091BD029091BE02A091BF02CB
:103EC000B091C00230910C0923E0230F2D3720F46C
:103ED0000196A11DB11D05C026E8230F0296A11D64
:103EE000B11D20930C098093BD029093BE02A09354
:103EF000BF02B093C0028091C1029091C202A09112
:103F0000C302B091C4020196A11DB11D8093C102EC
:103F10009093C202A093C302B093C402BF91AF9129
:103F20009F918F913F912F910F900FBE0F901F90F7
:103F30001895CF93DF93CDB7DEB72C970FB6F894D3
:103F4000DEBF0FBECDBF789484B5826084BD84B5DA
:103F5000816084BD85B5826085BD85B5816085BD84
:103F600080916E00816080936E001092810080913C
:103F700081008260809381008091810081608093C4
:103F80008100809180008160809380008091910009
:103F90008260809391008091910081608093910074
:103FA000809190008160809390008091C100846036
:103FB0008093C1008091C10082608093C100809194
:103FC000C10081608093C1008091C30081608093B3
:103FD000C3008091C00082608093C0008091C200C5
:103FE00081608093C20080917A00846080937A001F
:103FF00080917A00826080937A0080917A0081605B
:1040000080937A0080917A00806880937A00109281
:10401000C60210924D0110924C018091D700816030
:104020008093D70080EA8093D80089B5806189BDEC
:1040300089B5826089BD09B400FEFDCF61E070E002
:1040400080E090E00E9412138091D8008F7C806104
:104050008093D8008091E000807F8093E000809181
:10406000E1008E7E8093E1008DE08093E200559A1E
:10407000209A8FEF9FEF90937A08809379080CEC49
:1040800010E0F8016491611110C042E050E069E471
:1040900071E08DE698E00E9461140E94121181E2A5
:1040A0008093EE08E5E6F3E009C08DE698E00E9413
:1040B000E4130F5F1F4F892B21F7E7CF8281877FA2
:1040C0008283349625EB33E02E173F07B9F7EFEBE9
:1040D000F8E086818F7B8683389687EE98E08E178E
:1040E0009F07B9F7EAE5F1E08281877F8283339603
:1040F000A6E9B1E0AE17BF07B9F70E94E90E0E942A
:104100004C138091EF08B62FB81B8B2F9091F008BD
:10411000992329F0B093F1081092F00860C19091B2
:10412000EE08B91748F48F5F891708F058C181E08D
:1041300083BF889513BE53C181E08093F0086093DC
:10414000EF088091EA089091EB0801969093EB08B4
:104150008093EA080E94ED128091EC088093ED08AC
:104160000E94BA088093EC080E94A01D8091CC01A7
:1041700081708093CB010E944C130091A00210919A
:10418000A1022091A2023091A30268017901E0E22C
:10419000CE0ED11CE11CF11C21E06C157D058E05B5
:1041A0009F0508F020E02093A4026C157D058E0584
:1041B0009F0508F442C00E944C136093A0027093C4
:1041C000A1028093A2029093A3020E94BA08909148
:1041D000AC0283FF0BC097FF03C081E08093AC0269
:1041E0008091AC028F3769F08F5F09C0191614F403
:1041F0001092AC028091AC02803819F0815080930B
:10420000AC020E94BA089091AB0282FF0BC097FFEC
:1042100003C081E08093AB028091AB028F3769F0DD
:104220008F5F09C0191614F41092AB028091AB0293
:10423000803819F081508093AB028091AC028F37A7
:1042400021F08091AB028F3729F481E08093AC029A
:104250008093AB022091AA029091AC028091AB02B4
:10426000222339F019162CF018161CF01092AA020D
:104270002AC09E3134F09FE79093AC0291E0909376
:10428000AA028E3134F08FE78093AB0281E08093F5
:10429000AA028091CA01882309F4AEC09FEF980F4B
:1042A000923008F066C184E00E94351F81110E949F
:1042B000E90E8091CA01813009F407C18091CA01D9
:1042C000823009F428C18091CA018150833008F0FE
:1042D0009EC31091CA018FEF810F823010F40C94AD
:1042E000213000E028E130E040E050E060E070E0A4
:1042F00080E090E00E94591A26E330E040E050E070
:104300006EE170E080E090E00E94591A27E330E00F
:104310004AE750E067E370E080E090E00E94591ABD
:10432000809100018D3738F027E330E04AE750E014
:1043300060E070E01DC01530F9F088EF810F823029
:1043400020F0BAE2FB2E2DE003C0ADE2FA2E2AE007
:1043500030E000E04AE750E060E070E08AE790E09B
:104360000E94591A6F2D70E027E330E04AE750E0D1
:104370008AE790E00E94591A80914F01882319F032
:10438000815080934F0180914F01882311F40C9448
:10439000CC2E81E080936B088AE380936C08809137
:1043A0004E01811103C088E191E015C0813019F4FC
:1043B0008BE091E010C0823019F489EF90E00BC0DF
:1043C000833019F489ED90E006C0843011F00C942C
:1043D0001B2C89EE90E00E94E91B0C941B2C809111
:1043E0000401882309F4B6CE80E090E0892B09F41B
:1043F00086CE0E94000083CE8091AC028F3134F4CF
:1044000088E00E94351F81111CC057C080919A011D
:104410008430B1F785E080931201109298011092D8
:104420009B0102EF10E01A83098360E0CE01019640
:104430000E94F9100F5F1F4F0432F1E01F0799F738
:10444000DFCF80919A01813069F030F0823091F1B4
:10445000833099F58BE02FC081E08093CA0180936F
:1044600099012BC092E09093CA0110929901809318
:1044700011013CE9E32E31E0F32E00E110E0C80128
:104480000E942631D7018D937D010F5F1F4F0D33A1
:104490001105A9F726EBE22E23E0F22EC8010E94B7
:1044A0002631F70181937F010F5F1F4F013F1105F7
:1044B000A9F703C08AE08093CA010E94600B8111B2
:1044C00002CF65E08AE991E0F2C188E00E94351FE1
:1044D000882339F084E08093CA01809198010E947A
:1044E000920E0E94600B8111E9CE6091120165313C
:1044F00008F064E188E991E00E94230B80E80E94C3
:104500002A1F81116CC280E10E942A1F811167C29B
:104510000E944B0BD3CE88E00E94351F882339F0D0
:1045200080919B010E94920E84E08093CA0180E4F6
:104530000E94351F882349F01092C90180919B0188
:104540000E94920E88E08093CA010E94600B811144
:10455000BACE65E08BE991E00E94230B80E80E94CF
:104560002A1F81113FC280E10E942A1F81113AC295
:1045700083C19DEF980F953008F0A2C18091AB02E6
:104580008F3114F00E94E90E8091AC028F3134F02B
:104590009091040181E08927809304018091CA01F0
:1045A000843009F091C088E00E94351F882329F0EB
:1045B00080910301823009F418C284E00E94351F03
:1045C000882309F47EC010910201111107C0809167
:1045D00001018350823010F482E042C080E00E94EA
:1045E000CC0A882361F140E060910101812F0E9493
:1045F000EC1E0E94AD1D882321F085E08093CA0146
:1046000003C080E00E94850E90910101809102011B
:10461000F4E19F9F800D11240E946A1E24E0829F76
:10462000C00111248C010B591C4F60E0D8018C9102
:104630000E948509F8018281877F828342C081E0E0
:104640000E94CC0A882359F080910101F4E18F9FE8
:10465000100D1124812F0E946A1E8F3F21F481E0EA
:104660000E94850E2EC096E09093CA0124E0829F9E
:10467000F0011124EB59FC4F018102950F7012815A
:10468000137083818093A902133031F061E0610FD0
:10469000802F0E94E81001C08FEF8093A802109233
:1046A000A702F12C6F2D802F0E94E8109091A70295
:1046B000890F8093A702F3941F15A0F78695809326
:1046C000A7020E947D0BFFCD8530C1F588E00E94D6
:1046D000351F8823F1F060E08091C9010E94E81045
:1046E00090E020919601309197012817390788F0C2
:1046F000281B390B30939701209396014091C901F3
:1047000060910101809102010E94EC1E84E080937F
:10471000CA0184E00E94351F882319F084E0809349
:10472000CA018091AB028F311CF081E08093CA01F5
:104730000E94600B8111C7CD68E049C1863009F045
:104740009EC088E00E94351F882309F484C08091B0
:10475000A602811137C0909101018091020134E1DC
:10476000939F800D11240E946A1E44E0849FC00123
:104770001124FC01EB59FC4F818182958F7092814D
:1047800093709093A502933009F465C04091A802FC
:1047900050E020919601309197012417350708F4D5
:1047A0005AC0241B350B3093970120939601228128
:1047B0002C7F9F5F922B9283873009F049C00E9423
:1047C0007B1E46C08130E1F490910101809102018D
:1047D000A4E19A9F800D11240E946A1EB4E08B9F71
:1047E000C0011124FC01EB59FC4F8281837091813F
:1047F00092959F709093C90180939B0183E029C09B
:10480000823049F59091010180910201E4E19E9F7F
:10481000800D11240E946A1E9091A702209196019A
:1048200030919701290F311D309397012093960104
:10483000F4E08F9FC00111248C010B591C4F60E0E4
:10484000D8018C910E948509F8018281877F82833B
:1048500084E08093CA0184E00E94351F882319F008
:1048600084E08093CA010E94600B81112CCD63E02B
:1048700086EA92E00E94230B0E944B0B24CD8330EA
:10488000C9F488E00E94351F8111B2C084E00E9403
:10489000351F8111ADC00E94600B811114CD68E0FD
:1048A00089EC91E00E94230B64E08BE991E00E9487
:1048B000FB0AE2CF873009F006CD0E94260F03CD18
:1048C00098EF980F923008F085C08091AC028F313C
:1048D0002CF08091C901882309F48EC08091AB022D
:1048E0008F31F4F080919B019DE2899F802D1124EE
:1048F000B0E1FB2EF80E0CE911E09DE3E92EE80E85
:10490000D8016D918D018F2D90E09A838983CE011E
:1049100001960E94F910F394FE10F2CF0E94E90E66
:104920008091CA018830D9F50E94351F882369F12A
:104930009091010114E180910201919F800D112459
:104940000E94DB099091C9019817F9F081E08093EA
:104950001101913071F460E08091B5030E94680903
:104960009091010180910201919F800D112480930B
:10497000B50390910101809102016091C901B4E1F8
:104980009B9F800D11240E94680984E00E94351FBE
:10499000882309F496CE89E08093CA0192CE8930AB
:1049A00009F091CC88E00E94351F81112CC084E071
:1049B0000E94351F811127C08091AB028F3114F006
:1049C0001092CA010E94600B81117DCC64E089ECD9
:1049D00091E050CF8A50823008F075CC6ECF0E94A3
:1049E000640D96CD0E94640D47CF10920301E5CD72
:1049F00084E08093CA014FCF8DE2ACE9B1E01D9213
:104A00008A95E9F76BCF88E08093CA01D5CF809172
:104A10001101882321F00E94AD1D0E947B1ED12C24
:104A2000AEEF8A2E99249A94F12C212C312CECEEA5
:104A3000EF0DE987AA24AA94AF0C2101F2E06F2EB2
:104A4000712C10E0FD2DF170FE8394012F5F3F4F1C
:104A50003B872A872C868DEF880DA82FB0E0B8877A
:104A6000AF83BB24B394BA0C8B2D0E94DB09C82EF4
:104A7000B2E08B1791F0E3E08E1799F0F1E08F131D
:104A800026C08091B5038B1122C0E12C01E025E006
:104A90004DE256E06A857B8517C0EE80042D0370D9
:104AA0000FC0812F6C2D0E949F319201290F311D63
:104AB000C90166E070E00E94CD3104E0080FEE808D
:104AC00025E04BEF55E0B401C3010E945D0F1123B7
:104AD000B1F13C85332399F18A2D0E94DB09E82E40
:104AE0008985810F0E94DB09082F8CEE8A0D0E94B8
:104AF000DB0942E0C41223C0E41221C00230F9F401
:104B00008230E9F48AEF860DA82FB0E0BC83AB8336
:104B100001E02BE04BE06F817885CD010E946C1B9A
:104B2000A12CC12CBB2DB170EB2E0BE02BE04FEC78
:104B300055E06F8178858B819C810E948A0F1F5F71
:104B4000E6E06E0E711CFFEF4F1A5F0AAB2C1431BA
:104B500009F087CF2FEF221A320A34E1F30E46E034
:104B6000840E911CD3948D2D8170D82E94EBF91264
:104B70005ECF65E6E62E63E0F62E74E1272EE0E1D7
:104B8000CE2ED70112968C91129783FF7FC111967A
:104B90000C9102950F70073009F457C160E0C7010E
:104BA0000E94970C282FF7018281B82EB2945FE003
:104BB000B5228090CB01882071F0BB2019F0BA9407
:104BC000B11009C09BEF900F923020F48460D701A0
:104BD00012968C93B12C2F3F09F437C1F7018081D5
:104BE000622D0E949F31D92EDD0C9D0D990F37E06B
:104BF000D32ED90E182F110F180F110F1A5FF8E0CE
:104C00002F02C00111249C012154374F3901D901D1
:104C1000AC90A394A39411962C9145E0942E920EFF
:104C2000F7014181342F3F70063008F0A5C0612F95
:104C30006919EA2DED1919F4662309F465C00E2EE1
:104C4000000CFF0B062E000C770B77FF05C071954B
:104C50006195710921E001C020E0F7FF04C02E5FDB
:104C6000F195E195F1095DE2E617F70748F45E9FDB
:104C7000C0015F9F900D11240E94B931205F08C0D0
:104C8000569FC001579F900D1124BF010E94B9315A
:104C9000673160F06D3208F053C56A3208F052C5D2
:104CA000663208F051C5613270F00BC0623008F412
:104CB00047C5663008F446C56A3008F445C56F300C
:104CC00010F483E001C084E0680F711D24FF05C06B
:104CD0008AE590E0861B970BBC01822F817021FF33
:104CE0000BC0882319F06C547F4F10C0A4EBB0E0C8
:104CF000A61BB70BBD010AC0882341F0E8E6F1E02E
:104D0000E61BF70BBF0102C060E070E0F4E6F69F1F
:104D1000C001F79F900D11248B599B4F6AEC78E0EE
:104D20000E94B9316F70361741F1631740F48C2D32
:104D3000831B860F932F961B98178CF012C0262F7B
:104D4000231B862F90E0831B910941971CF080EF75
:104D5000820F03C080E1830F861B821714F4315049
:104D600001C03F5F832F8F70407F482BD701119682
:104D70004C9336136AC001C0632F862F062E000C99
:104D8000990BFC01EC56F84F44904D0CFC01EC578C
:104D9000F84F5490510E6983F7018281F82FF37018
:104DA0003F2E053019F482FDD1C405C0063009F04C
:104DB00022C582FD01C53701B2E06B0E711C6B2D5F
:104DC000C3010E94F20BB11040C0882069F004308A
:104DD00039F0E02FF0E0EF5BF94F6491631901C007
:104DE00061E0C3010E94F20BE8EDF1E020E030E069
:104DF000928193FD24C0F7011381D980F5E0F29FE1
:104E0000A001F39F500D11249A0128523E4F5901E1
:104E10009B7F9860D90112969C9312974C921196A1
:104E20005C92602FCA0186529E4F0E94F20BF501E0
:104E300082818C7F382A3282D382148306C02F5F0E
:104E40003F4F35962832310599F6D7018C91622D66
:104E50000E949F31192F110F190F110F1E5FD82EAD
:104E6000DD0CD80EDD0CD39412960C910370402FFC
:104E70006D2D812F0E94320FF7014181242F2F7059
:104E800042954F706D2D812F0E94A210F4E0EF0E1D
:104E9000F11C25EB33E02E153F0509F072CE809111
:104EA000CA01873039F498EDE92E91E0F92E25E01A
:104EB000622E86C2BFEBCB2EB8E0DB2E15E0B12E02
:104EC00006E0A02E83E0282E312C80910301823051
:104ED00009F4BDC00091560110915701209158016D
:104EE000309159014091CC015091CD016091CE019A
:104EF0007091CF01401751076207730708F4A7C0EC
:104F000081112FC085E080935501809154018E312D
:104F100018F48F5F80935401E09153014091540144
:104F200091E024E630E050E0692F70E04617570723
:104F30003CF086E4989F200D311D11249F5FF4CF33
:104F4000C9016AE070E00E94B931E69FC001E79FA5
:104F5000900D11249093D7018093D60181E0809326
:104F60000301809154016A2D0E949F31092FEFEBBC
:104F7000F8E080E0968196FD8F5F3896A7EEB8E066
:104F8000AE17BF07B9F781111AC010915501111161
:104F90001BC082E0809303018091CA018350853059
:104FA00018F484E00E94850E053009F050C080910D
:104FB000D501823008F029C48F5F8093D50110910C
:104FC0005501112309F443C01150109355010530C8
:104FD00009F0102F0E941631AFEBB8E0E0E0F0E0EE
:104FE00016962C91169726FD1AC0A3E0EE0FFF1F10
:104FF000AA95E1F7E154F74F2064268364E070E05E
:105000000E94CD3188508083B6E1B1831283138230
:105010008091D6019091D7019583848305C0319604
:105020001896E530F105E1F68091CC019091CD0123
:10503000A091CE01B091CF014E96A11DB11D8093DC
:10504000560190935701A0935801B0935901F6016E
:10505000E680E6FEAEC18091CB01882329F08281F3
:10506000813011F00C945030D60113961C91612FB1
:1050700062956F7031F06150C60103960E94F20B89
:105080002EC1133008F07BC0F601808122E0280F8A
:1050900022300CF44EC081818B5F6A2D0E94AB31AF
:1050A000082F822F220F990B019766E070E00E9473
:1050B000CD31862F862E602F0E945809782E0E94AF
:1050C000163162E070E00E94CD31982E99277C0164
:1050D000FFEFEF1AFF0A66246394680C44244A9495
:1050E000480C55245A94500E21E0200F2B83892D13
:1050F00090E0E816F906FCF090FE0DC0652D882DB5
:105100000E9458098715C8F06B81882D0E945809A4
:10511000871568F414C0602F862D0E9458098715E2
:1051200040F0602F842D0E945809871550F0939409
:10513000DECF00E007C004E005C001E003C003E0EB
:1051400001C002E0D60113968C9113978F7063E033
:105150000E949F31990F9101092E01C0220F0A94DC
:10516000EAF7822F809516962C918223B02F01C0EA
:10517000BB0F9A95EAF78B2BF601868316C0812F19
:1051800063E00E949F31292F220FC101022E01C02E
:10519000880F0A94EAF7E8220E2C000CFF0802C0E0
:1051A000F594E7942A95E2F70E2DD60111968C918D
:1051B00011978B5F6A2D0E94AB31282F8C918E5FE7
:1051C000082E000C990B019766E070E00E94CD312B
:1051D000862F622F0E945809F6018783043009F058
:1051E00046C0809152018B3020F08A50809352014A
:1051F0003AC01092520180915401E0909601F090D3
:105200009701F694E794FAE08F9FE00CF11C1124CB
:10521000F0925101E09250010E94520D4C010E9407
:10522000C208482E34012FEF621A720AC3010E948D
:10523000C208242D30E0322F2227280F311D2E15D1
:105240003F0570F49A8289826F2DCE0101960E94EB
:10525000F9107A8269826E2DCE0101960E94F910B2
:1052600087E08093CA01C60106960E942209D601F2
:1052700013968C911397807F153019F413968C93A5
:1052800005C01F5F1F70182BF601138301110BC09F
:10529000D6018C918F5F8C9316968C9116978F7791
:1052A00016968C931CC0013039F4F60181811816D2
:1052B000B4F48150818313C0033041F4D6011196B8
:1052C0008C9111978F5F11968C9309C0023039F43D
:1052D000F601808181508083868180688683D60133
:1052E00016968C91E82EF12C86FF63C0C701880FBB
:1052F000892F881F990BB82FB170EB2EF60183818F
:105300008F7063E00E949F31F92E8091D501882330
:1053100041F0813059F069E4862E66E0962E19E05E
:105320000AC05AE2852E57E0952E04C040ED842E27
:1053300046E0942E16E0D60111962C91813009F4A6
:1053400021508091D6019091D70167E070E00E94D2
:10535000B93161157105B9F0F601848195810E941A
:10536000B93141E0460F622F220F770B88E090E0C1
:10537000841B9109308100E021E0830F911D37FDEE
:105380009A950E946C1BD60112960C911297802F51
:10539000880F080F0F0D11966C911197062E000CB7
:1053A000770B8C91212FA401082E000C990B0E94E1
:1053B0005D0FBA94B8E0CB0ED11CB11086CD73CD81
:1053C000F701328133FFDBC02381E22FEF708E2F94
:1053D00090E0FC01EC56F84FE491D7014C91E40FBA
:1053E000EC93FC01EC57F84FE49111968C911197D6
:1053F000E80F1196EC9332953F70343079F4122F08
:1054000012951F706FEF610FC70103960E94F20B98
:10541000111104C0F7018281877F8283D7018C91AB
:10542000DD24DA94D80EB9E7BD1508F4F1C1F7010F
:10543000918198330CF0ECC1D70112969C91929512
:105440009F70923049F1A0F49923C1F0913009F096
:1054500096C0D70111966C91062E000C770B00E0D8
:1054600022E042E0082E000C990B0E946C1B87C0C2
:10547000933009F462C09430D9F081C0F7014181C2
:10548000042E000C550B682F880F770B20E087EE59
:1054900098E00E94040973C0F7016181062E000C98
:1054A000770B41E0082E000C990B0E94F91B67C096
:1054B000D70113968C9182958F70062D081B0230B0
:1054C0000CF402E0002E000C110B5801AD0CB11CC5
:1054D000B1E8AB16B1040CF052C0F70171807A94B8
:1054E000070D111D013411050CF049C08D2C912CB4
:1054F0008A149B040CF043C0C72CFD2DF1705F2E65
:105500004C2D50E040175107B4F4D7FC12C02FE3E4
:105510002C1578F08C2D8170552019F0811103C065
:1055200008C0811106C020E0B40187EE98E00E9417
:105530000409C394E5CFD394D9CFD70111966C91C8
:105540001197062E000C770B13962C9130E0F90181
:10555000EC57F84F4491082E000C990BF901EC56CA
:10556000F84FE4919B01240F311D47FD3A95AC01A2
:105570004E0F511DE7FD5A9500E00E94591AB5E003
:10558000EB0EF11CE0EAEE16E2E0FE0609F018CFA1
:105590003AE5A32E31E0B32ED50112960C91129765
:1055A00003FF3CC011968C911197082E000C990BAB
:1055B000BC016C5F7F4F0C968934910570F40295A5
:1055C0000F708C91082E000C990BC12CE12C24E05B
:1055D00044EA57E003960E94260A6091CC0170913C
:1055E000CD018091CE019091CF0123E030E040E0E9
:1055F00050E00E946E31672B682B692B79F4F5011E
:105600008281682F62956F70633030F46F5FC501DF
:1056100002960E94F20B02C0877F8283B3E0AB0E3A
:10562000B11CE6E9F1E0EA15FB0509F0B5CF0FEB97
:1056300018E095E0D92E24E6822E912CD8011696FA
:105640008C91169786FF72C011966C9111974C91B0
:10565000E8EDF1E0E12CF12C50E0DA01159670E074
:105660005B0125E0A20EB11C828183FF17C020815F
:10567000022E000C330BA217B30784F08181082E91
:10568000000C990BA816B9064CF02B5F3F4F24175E
:10569000350724F00596861797074CF43FEFE31A79
:1056A000F30A359688E2E816F104F1F63FC0DE9C75
:1056B000F001DF9CF00D1124E852FE4FC280C2942D
:1056C0008FE0C8224481EC2DF0E0EC54F84FE491D7
:1056D000A1E0B0E0EA9F9001EB9F300D112444233C
:1056E00059F0C901B4010E94B931469FC001479FDA
:1056F000900D1124280F391FB90177274C2DC801AF
:105700000E94150C8DEF8C0D823080F0B1E0CB1231
:1057100087C0DE9CF001DF9CF00D1124E852FE4FA3
:105720008281982F9460928382FD7AC0085F1F4F18
:10573000E7EEF8E0E017F10709F080CF0C9469215B
:1057400080E0C2CA81E0C0CA82E0BECAC7010E942E
:10575000FE0BF7014381E9EBF7E05491832D90E0D4
:105760000196589F9001599F300D1124442361F0F8
:10577000C90164E670E00E94B931469FC001479FAD
:10578000900D1124280F391F45E0B901C3010E9473
:10579000150C882009F459CB292D990C330B4A2D6F
:1057A000AA0C550B652D550C770B00E0842D440C8D
:1057B000990B0E94591A49CBC7010E94FE0B61E068
:1057C000C7010E94970C882009F43FCBC7010E94B3
:1057D000DD0BD70112969C91492F42954F70937023
:1057E000990F985F491B480F612F70E08D2D90E055
:1057F0000E94F91B2ACB043009F0DDCA65E0630D75
:10580000CE0101960E94F20BD6CA1092D501D7CBD9
:10581000D70112969C911297977F12969C930CCE6B
:10582000DE9CF001DF9CF00D1124E852FE4F8281D6
:10583000877F82837BCF111133C00E94C80D809176
:10584000540166E00E949F319093540180910301BE
:10585000823009F034C21092030131C28091A60255
:10586000813009F016C384E991E00E94E91BF090B1
:10587000A902FF20A9F0C12CE12C07E627E044EBA8
:1058800051E069E370E086E590E00E94260A82E636
:1058900080936B08D0926C088F2D90E00E948E1B35
:1058A000123099F560919B01E7E16E9FB0011124E0
:1058B00082ED91E00E94A50D80919B010E94331022
:1058C0000E94B10B66E1E62EF12C10E08091D2012E
:1058D0009091D3019701281B390BC901295E3F4FD5
:1058E0002835310518F4612F0E940E1D1F5F37E126
:1058F000E30EF11C153051F737C28DEF810F853063
:1059000008F04DC3173009F04CC28DEF810F853080
:1059100008F08FC1143019F40E94A90BD0C11530C2
:10592000A9F50E949C0B8111CFC1FF24F394D12CC7
:1059300058E4B52EA12C9090C901C09000019D1093
:1059400006C0CA946F2D8C2D0E94410FF82E45E0A1
:105950004D1510F00A2D01C00B2D6F2D70E0E12CBC
:1059600027E044EB51E08C2D90E00E945D0F9D10EC
:1059700002C083E0F80E97E0F90ED394A0E1AA0EDE
:10598000B4E0BB0EE8E0DE12D6CF9EC1163009F0BF
:1059900053C00E949C0B811197C14EE0F42ED12C74
:1059A000B090A602C0900001BD1006C0CA946F2D31
:1059B0008C2D0E94410FF82E6F2D70E0E12C05E038
:1059C0000D0D27E044E655E08C2D90E00E945D0F20
:1059D000BD1002C0F3E0FF0E27E0F20ED39433E0D7
:1059E000D312DECF9091010104E180910201909FDA
:1059F000800D11240E946A1E44E0849FC00111247E
:105A0000DC01AB59BC4F7D01CD010E94DD0B482F5D
:105A1000F7018081602F0E949F31682F660F680F09
:105A2000660F6A5F70E0892F880F890F880F895F82
:105A300090E00E94F91B43C1133009F0D8C00E94C6
:105A4000A90B02E010E02AE0F22E30E5E32EF092FE
:105A50006B0800936C08123071F018F4113041F0AB
:105A600004C0133059F0143061F08FE395E00BC09F
:105A700088E395E008C082E395E005C08BE295E0FD
:105A800002C086E295E00E94E91BE0926B08009359
:105A90006C08123019F118F4113069F005C0133098
:105AA00081F1143009F43FC060919B018091C901DC
:105AB0000E94E8102EC0E091C901F0E0EC54F84FCC
:105AC000E49180919B0190E001969C01E29FC001CE
:105AD000E39F900D11240E948E1B3FC090919B016B
